:020000040000FA
:100000000C9458000C9480000C9480000C94800098
:100010000C9480000C9480000C9480000C94800060
:100020000C9480000C9480000C9480000C94800050
:100030000C9480000C9480000C9480000C94800040
:100040000C9419080C9480000C9489080C94630893
:100050000C9480000C9480000C9480000C94800020
:100060000C94BB080C9480000000000025002800C0
:100070002B00040404040404040402020202020229
:10008000030303030303010204081020408001025C
:1000900004081020010204081020000000080002DB
:1000A0000100000304070000000000000000DA095E
:1000B00011241FBECFEFD8E0DEBFCDBF13E0A0E01C
:1000C000B1E0E2E9FDE102C005900D92AE3BB1075F
:1000D000D9F725E0AEEBB3E001C01D92A839B20715
:1000E000E1F710E0C8E5D0E004C02197FE010E94CE
:1000F000C10EC735D107C9F70E94130A0C94C70E69
:100100000C94000090919E0480919D042FEF3FEF8E
:10011000981748F4E92FF0E0E358FB4F208130E0D6
:100120009F5F90939E04C901089590919E048091D1
:100130009D042FEF3FEF981748F4E92FF0E0E358C4
:10014000FB4F208130E09F5F90939E04C90108958A
:1001500091E09093CB048093ED041092CC04109224
:10016000EE04089580919D0490919E04891B990B43
:10017000089590E0FC01E656FF4F2491FC01EA57F8
:10018000FF4F3491FC01EE58FF4FE491EE23C9F08C
:10019000222339F0233001F1A8F4213019F1223063
:1001A00029F1F0E0EE0FFF1FE859FF4FA591B49140
:1001B0008FB7F894EC91611126C030953E233C93A3
:1001C0008FBF08952730A9F02830C9F0243049F7AF
:1001D000809180008F7D03C0809180008F77809315
:1001E0008000DFCF84B58F7784BDDBCF84B58F7D72
:1001F000FBCF8091B0008F778093B000D2CF8091F9
:10020000B0008F7DF9CF3E2BDACF3FB7F8948091C5
:100210000B0490910C04A0910D04B0910E0426B52E
:10022000A89B05C02F3F19F00196A11DB11D3FBF2E
:10023000BA2FA92F982F8827BC01CD01620F711DFD
:10024000811D911D42E0660F771F881F991F4A95F7
:10025000D1F708958F929F92AF92BF92CF92DF9283
:10026000EF92FF920E9405014B015C0188EEC82EBF
:1002700083E0D82EE12CF12C0E9405016819790940
:100280008A099B09683E734081059105A8F321E026
:10029000C21AD108E108F10888EE880E83E0981EA2
:1002A000A11CB11CC114D104E104F10429F7FF9091
:1002B000EF90DF90CF90BF90AF909F908F90089578
:1002C00008950895AF92BF92CF92DF92EF92FF927E
:1002D0000F931F93CF93DF936C017B018B01040F6E
:1002E000151FEB015E01AE18BF08C017D10759F00A
:1002F0006991D601ED91FC910190F081E02DC6014C
:100300000995892B79F7C501DF91CF911F910F9145
:10031000FF90EF90DF90CF90BF90AF900895FC01D9
:10032000538D448D252F30E0842F90E0821B930B5A
:10033000541710F0CF96089501970895FC01918D00
:10034000828D981761F0A28DAE0FBF2FB11D5D9603
:100350008C91928D9F5F9F73928F90E008958FEFA5
:100360009FEF0895FC01918D828D981731F0828D59
:10037000E80FF11D858D90E008958FEF9FEF0895B0
:10038000FC01918D228D892F90E0805C9F4F821B14
:1003900091098F73992708958FEE94E00E94C00110
:1003A00021E0892B09F420E0822F089580E090E07D
:1003B000892B29F00E94CC0181110C940000089532
:1003C000FC01A48DA80FB92FB11DA35ABF4F2C91CA
:1003D000848D90E001968F739927848FA689B789C1
:1003E0002C93A089B1898C91837080648C93938DB8
:1003F000848D981306C00288F389E02D80818F7D5B
:1004000080830895EF92FF920F931F93CF93DF9312
:10041000EC0181E0888F9B8D8C8D98131AC0E88940
:10042000F989808185FF15C09FB7F894EE89FF890F
:100430006083E889F98980818370806480839FBFAD
:1004400081E090E0DF91CF911F910F91FF90EF90AD
:100450000895F62E0B8D10E00F5F1F4F0F731127BD
:10046000E02E8C8D8E110CC00FB607FCFACFE889F8
:10047000F989808185FFF5CFCE010E94E001F1CF9F
:10048000EB8DEC0FFD2FF11DE35AFF4FF0829FB76C
:10049000F8940B8FEA89FB8980818062CFCFCF935C
:1004A000DF93EC01888D8823B9F0AA89BB89E8899C
:1004B000F9898C9185FD03C0808186FD0DC00FB642
:1004C00007FCF7CF8C9185FFF2CF808185FFEDCFC0
:1004D000CE010E94E001E9CFDF91CF9108952091F4
:1004E000DF03260F3327331F21323105ECF420912F
:1004F000C504FC0190E080E0243069F082E00895BA
:10050000A091DF032191AC0141545C4FA40FB52FA2
:10051000B11D2C930196861798F38091DF03680F25
:100520006093DF0380E0089581E008951092C50490
:1005300081E08093C40410929F0461E082E10E94F4
:10054000B90061E083E10E94B900E9EBF0E080814D
:100550008E7F808380818D7F808388E48093B80044
:1005600085E48093BC000895CF93DF9391E090934E
:10057000BE038823B9F0C091B800D091BA00809131
:10058000BC008A7B8093BC0060E082E10E94B900DD
:1005900060E083E10E94B9000E949602D093BA0005
:1005A000C093B800DF91CF910895CF92DF92EF9280
:1005B000FF920F931F93CF93DF93D091EE0481E0CE
:1005C000D13208F09CC0C091ED040E9405016B017E
:1005D0007C018091C50481116CC082E08093C504C8
:1005E00081E08093C4048FEF8093C3041092C2040F
:1005F000D093C104ADECB4E0E1EAF4E080E0D813BC
:100600008DC01092A0048091A004CC0FC82BC09381
:10061000A00480919F04813009F084C010929F044F
:100620000E9405016B017C018091A0048093BB00B6
:100630008091C7049091C804A091C904B091CA04E4
:10064000892B8A2B8B2BA1F00E9405010091C704F6
:100650001091C8042091C9043091CA046C197D0915
:100660008E099F09061717072807390708F442C0A3
:100670008091BC0083FDD8CF85EC8093BC000E94A4
:1006800005016B017C018091C504823009F44CC0E6
:100690008091C3048F3F09F469C08091C304803204
:1006A00009F466C08091C304803309F463C084E018
:1006B00026C08091C7049091C804A091C904B0914C
:1006C000CA04892B8A2B8B2B09F483CF0E94050146
:1006D0000091C7041091C8042091C9043091CA0444
:1006E0006C197D098E099F09061717072807390716
:1006F00008F06FCF8091C6040E94B40285E010928A
:10070000CC041092EE041092CB04DF91CF911F9194
:100710000F91FF90EF90DF90CF9008959D9191936E
:100720008F5F6DCF85EEA9CF8091C7049091C804EB
:10073000A091C904B091CA04892B8A2B8B2B09F490
:10074000A2CF0E9405010091C7041091C804209116
:10075000C9043091CA046C197D098E099F090617D6
:1007600017072807390708F08ECFC4CF80E0C7CF1E
:1007700082E0C5CF83E0C3CF0895E0919E048091CD
:100780009D04E81730F4F0E0E358FB4F808190E0DF
:1007900008958FEF9FEF0895CF92DF92EF92FF922F
:1007A0000F931F93CF93DF937C01CB018A0120919C
:1007B000CB04222389F0EB016B01C40ED51ECC15AE
:1007C000DD0569F06991D701ED91FC910190F0810F
:1007D000E02DC7010995F3CF642F0E946F02C80175
:1007E000DF91CF911F910F91FF90EF90DF90CF900D
:1007F0000895CF93DF931F92CDB7DEB76983209121
:10080000CB042223F9F02091EE04203258F021E0AD
:1008100030E0FC013383228390E080E00F90DF9191
:10082000CF9108958091CC04E82FF0E0E353FB4F83
:10083000998190838F5F8093CC048093EE0481E054
:1008400090E0ECCF61E0CE0101960E946F02F7CFFD
:10085000CF93C82F80917B040E94A8006C2F8CE856
:1008600095E00E94F90360E08CE895E00E94F903AE
:1008700060E08CE895E00E94F903CF910C94D502DA
:10088000CF93DF93D82FC62F80917B040E94A800BE
:100890006D2F8CE895E00E94F9036C2F8CE895E0B1
:1008A0000E94F903DF91CF910C94D50290E080E093
:1008B0000895FC0101900020E9F73197AF01481B32
:1008C000590BBC018FEE94E00C9462018F929F92C1
:1008D000AF92BF920F931F93CF93DF93CDB7DEB745
:1008E000A1970FB6F894DEBF0FBECDBF19A242305C
:1008F00008F44AE08E010F5D1F4F842E912CB12C1D
:10090000A12CA50194010E949F0EE62FB901CA01F6
:10091000EA30F4F4E05DD801EE938D01232B242B13
:10092000252B79F790E080E0109719F0CD010E9417
:100930005904A1960FB6F894DEBF0FBECDBFDF916C
:10094000CF911F910F91BF90AF909F908F9008957E
:10095000E95CE1CFCF92DF92EF92FF92CF93DF93EA
:100960006B017C016DE28FEE94E00E940202EC01CB
:1009700066277727CB016C197D098E099F094AE00C
:100980000E9466048C0F9D1FDF91CF91FF90EF9026
:10099000DF90CF900895CF93DF930E945904EC012C
:1009A00084E291E00E9459048C0F9D1FDF91CF914A
:1009B00008950C945904BC01990F880B990B97FD6D
:1009C0000C94AA044AE00C9466048F929F92AF9212
:1009D000BF92CF92DF92EF92FF921F93CF93DF935C
:1009E000D82F162F0E9405016B017C018091C50450
:1009F000811166C0C12F81E08093C5048093C40437
:100A00009FEF9093C3041092C204910F9093C1047E
:100A10008093A0048091A004DD0FD82BD093A00474
:100A200080919F04813009F082C010929F040E943F
:100A300005016B017C018091A0048093BB00809133
:100A4000C7049091C804A091C904B091CA04892B2D
:100A50008A2B8B2BA1F00E9405018090C7049090F7
:100A6000C804A090C904B090CA046C197D098E090D
:100A70009F0986169706A806B90608F442C0809119
:100A8000BC0083FDD8CF85EC8093BC000E9405019B
:100A90006B017C018091C504813009F44AC08091CA
:100AA000C204811710F4C091C204A1EAB4E0EDE7DA
:100AB000F4E080E08C1751F19D9191938F5FFACF14
:100AC0008091C7049091C804A091C904B091CA0450
:100AD000892B8A2B8B2B09F489CF0E9405018090EA
:100AE000C7049090C804A090C904B090CA046C19BF
:100AF0007D098E099F0986169706A806B90608F093
:100B000075CF8091C6040E94B402C0E010929E048A
:100B1000C0939D048C2FDF91CF911F91FF90EF9098
:100B2000DF90CF90BF90AF909F908F90089585EE0B
:100B3000ABCF8091C7049091C804A091C904B09133
:100B4000CA04892B8A2B8B2B09F4A4CF0E940501A0
:100B50008090C7049090C804A090C904B090CA04C3
:100B60006C197D098E099F0986169706A806B90695
:100B700008F090CFC6CFCF93DF93C82F80917B042E
:100B80000E94A8006C2F8CE895E00E94F9030E9457
:100B9000D50280917B040E94A80062E070E0809101
:100BA0007B0490917C040E94E50490919D048091C7
:100BB0009E049817F1F30E949500D82F0E9495008B
:100BC000C82F0E94D50280E09D2F8C2BDF91CF9102
:100BD0000895CF93C82F80917B040E94A8006C2FAA
:100BE0008CE895E00E94F9030E94D50280917B0475
:100BF0000E94A80061E070E080917B0490917C04E9
:100C00000E94E50490919D0480919E049817F1F351
:100C10000E949500C82F0E94D5028C2FCF91089575
:100C2000CF92DF92EF92FF920F931F93CF93DF93B8
:100C3000EC0180917B040E94A8006BE38CE895E0B6
:100C40000E94F9030E94D50280917B040E94A800B3
:100C500066E070E080917B0490917C040E94E50442
:100C600080919D0490919E04891B990B863091057B
:100C7000ECF30E949500C82E0E949500D82E0E9489
:100C80009500E82E0E949500F82E0E949500082FEE
:100C90000E949500182F60E07C2D6D29072E000C16
:100CA000880B990B0E94780D60930F0470931004C9
:100CB000809311049093120460E07E2D6F29072E1B
:100CC000000C880B990B0E94780D609313047093AD
:100CD0001404809315049093160460E0702F612B28
:100CE000072E000C880B990B0E94780D6093170457
:100CF000709318048093190490931A048CE0EFE029
:100D0000F4E0DE0101900D928A95E1F7CE01DF91CA
:100D1000CF911F910F91FF90EF90DF90CF900895AA
:100D2000AF92BF92CF92DF92EF92FF920F931F93F9
:100D3000CF93DF93CDB7DEB72C970FB6F894DEBF15
:100D40000FBECDBF5C01CE0101960E9410060FE0E0
:100D500014E0C0907204D0907304E0907404F0909A
:100D60007504F8012081318142815381C701B601A8
:100D70000E942D0E2AE038EE4CE151E40E942D0E27
:100D8000F801608F718F828F938F24813581468126
:100D90005781C701B6010E942D0E2AE038EE4CE1C2
:100DA00051E40E942D0EF801648F758F868F978F06
:100DB0002085318542855385C701B6010E942D0EDD
:100DC0002AE038EE4CE151E40E942D0EF80160A3B8
:100DD00071A382A393A38CE0E7E2F4E0D501019034
:100DE0000D928A95E1F7C5012C960FB6F894DEBFF7
:100DF0000FBECDBFDF91CF911F910F91FF90EF906C
:100E0000DF90CF90BF90AF9008954F925F926F9216
:100E10007F928F929F92AF92BF92CF92DF92EF928A
:100E2000FF920F931F93CF936B017C01742EAC0143
:100E30009B010E949A0E882399F087E291E0CF915E
:100E40001F910F91FF90EF90DF90CF90BF90AF90E8
:100E50009F908F907F906F905F904F900C9459046B
:100E600046015701E894B7F82FEF3FEF4FE75FE7F0
:100E7000C501B4010E949A0E81110DC02FEF3FEF02
:100E80004FE75FE7C501B4010E94D00C18161CF4AF
:100E90008BE291E0D4CF2FEF3FEF4FE75FE4C70144
:100EA000B6010E94280E18161CF48FE291E0C7CFFD
:100EB0002FEF3FEF4FE75FECC701B6010E94D00C68
:100EC00087FDF3CF20E030E0A901C701B6010E9401
:100ED000D00C10E000E087FF0AC06DE28FEE94E0D6
:100EE0000E9402028C01F7FAF094F7F8F094C0E047
:100EF00060E070E080E09FE37C1641F020E030E0AD
:100F000040E251E40E94D50CCF5FF6CFA7019601D5
:100F10000E94640C2B013C010E94470D4B015C01B7
:100F20004AE00E9466047C01E00EF11ECC23C1F170
:100F3000C501B4010E94760D9B01AC01C301B20151
:100F40000E94630C4B015C016EE28FEE94E00E9404
:100F50000202E80EF91EC15018F120E030E040E234
:100F600051E4C501B4010E942D0E2B013C010E94E9
:100F7000470D4B01B12CA12C4AE0C501B4010E94E0
:100F80006604E80EF91EC501B4010E94760D9B01AE
:100F9000AC01C301B2010E94630C4B015C01DBCFC9
:100FA000C701CF911F910F91FF90EF90DF90CF90ED
:100FB000BF90AF909F908F907F906F905F904F9079
:100FC000089585ED8093BC008091C7049091C8047A
:100FD000A091C904B091CA040796A11DB11D23E0D8
:100FE000B695A795979587952A95D1F72091BC003E
:100FF00024FD03C01092C50408954091C704509188
:10100000C8046091C9047091CA04452B462B472B34
:1010100069F30097A105B10541F02AE22A95F1F79D
:1010200000C00197A109B109E1CF8091C6040C94D9
:10103000B4021F920F920FB60F9211242F933F9379
:101040008F939F93AF93BF9380910704909108046F
:10105000A0910904B0910A043091060423E0230F03
:101060002D3758F50196A11DB11D209306048093DC
:10107000070490930804A0930904B0930A04809194
:101080000B0490910C04A0910D04B0910E040196F4
:10109000A11DB11D80930B0490930C04A0930D042B
:1010A000B0930E04BF91AF919F918F913F912F917B
:1010B0000F900FBE0F901F90189526E8230F0296F1
:1010C000A11DB11DD2CF1F920F920FB60F92112406
:1010D0002F933F934F935F936F937F938F939F9340
:1010E000AF93BF93EF93FF938FEE94E00E94E001E4
:1010F000FF91EF91BF91AF919F918F917F916F91F0
:101100005F914F913F912F910F900FBE0F901F90C5
:1011100018951F920F920FB60F9211242F938F9351
:101120009F93EF93FF93E091FF04F091000580817E
:10113000E0910505F091060582FD1BC0908180912C
:1011400008058F5F8F7320910905821741F0E091A8
:101150000805F0E0E151FB4F958F80930805FF9162
:10116000EF919F918F912F910F900FBE0F901F9035
:1011700018958081F4CF1F920F920FB60F92112411
:101180002F933F934F935F936F937F938F939F938F
:10119000AF93BF93EF93FF938091B900887F803620
:1011A00009F44AC0F0F5883209F4A7C018F5803177
:1011B00009F49BC0B8F4882309F4F9C0883009F415
:1011C00094C0FF91EF91BF91AF919F918F917F91CB
:1011D0006F915F914F913F912F910F900FBE0F90A4
:1011E0001F901895883109F488C0803251F7809398
:1011F000C30414C0803409F49DC040F48033B9F3B3
:101200008833F9F68093C30485ECB0C0803509F4C7
:1012100085C0883509F496C0883499F60E94E107A4
:10122000D0CF883909F48CC038F5883729F050F4CC
:10123000883611F0803729F683E08093C504109238
:10124000010457C0883809F47BC0803919F0803810
:1012500009F0B7CF80910104803208F071C0E091AD
:10126000010481E08E0F809301048091BB00F0E0C7
:10127000EF51FC4F80833DC0803B39F0E0F4803A71
:1012800009F479C0883A09F09CCF84E08093C504C2
:101290001092E0031092DF03E0910404F091050442
:1012A00009958091DF0381110FC081E08093DF03F6
:1012B0001092BF0309C0803C09F4A6CF883C09F412
:1012C000A3CF883B09F07DCFE091E00381E08E0F52
:1012D0008093E003F0E0E154FC4F80818093BB00F9
:1012E0009091E0038091DF0329C08091A004809356
:1012F000BB0085EC8093BC0064CF9091C2048091C8
:10130000C104981758F5E091C20481E08E0F8093D4
:10131000C204F0E0EF55FB4F8081E9CFE091C204B9
:1013200081E08E0F8093C2048091BB00F0E0EF5506
:10133000FB4F80839091C2048091C1049817C8F23A
:1013400085E8D8CFE091C20481E08E0F8093C2047B
:101350008091BB00F0E0EF55FB4F80838091C40487
:1013600081115CCF81E080939F0484EA8093BC006C
:101370001092C50426CF85EC8093BC001092C50462
:1013800080910104803230F4E0910104F0E0EF51EB
:10139000FC4F10826091010470E0E0910204F09132
:1013A000030481EE93E00995109201040ACF109294
:1013B000C30434CFEFEEF4E01382128288EE93E0A0
:1013C000A0E0B0E084839583A683B78324E031E076
:1013D0003183208325EC30E03587248724EC30E00E
:1013E0003787268720EC30E0318B208B21EC30E0F2
:1013F000338B228B22EC30E0358B248B26EC30E0D3
:10140000378B268B118E128E138E148EECE8F5E03E
:101410001382128284839583A683B78386E191E049
:10142000918380830895CF93DF93CDB7DEB72C9758
:101430000FB6F894DEBF0FBECDBF789484B582603E
:1014400084BD84B5816084BD85B5826085BD85B568
:10145000816085BD80916E00816080936E001092E6
:101460008100809181008260809381008091810061
:1014700081608093810080918000816080938000F2
:101480008091B10084608093B1008091B000816050
:101490008093B00080917A00846080937A0080917C
:1014A0007A00826080937A0080917A0081608093D4
:1014B0007A0080917A00806880937A001092C1004F
:1014C000E091FF04F091000582E08083E091FB044D
:1014D000F091FC041082E091FD04F091FE0480E1A3
:1014E000808310920705E0910305F091040586E0E2
:1014F0008083E0910105F091020580818061808305
:10150000E0910105F0910205808188608083E0917F
:101510000105F0910205808180688083E0910105DA
:10152000F091020580818F7D808384E491E00E94A8
:10153000CB0408E610E030E6E32E31E0F32E41E67E
:10154000C42E41E0D42E10937C0400937B041092AF
:101550009E0410929D041092CC041092EE040E94FE
:101560009602F0920504E0920404D0920304C09223
:10157000020410924B0410924C0410924D041092ED
:101580004E0410924F041092500410925104109285
:101590005204109253041092540410925504109265
:1015A000560410927A0410923F0410924004109254
:1015B0004104109242041092430410924404109289
:1015C0004504109246041092470410924804109269
:1015D000490410924A0410927604109277041092F3
:1015E00078041092790480917B040E94A80065E73A
:1015F0008CE895E00E94F9030E94D50280917B045B
:101600000E94A80061E070E080917B0490917C04CE
:101610000E94E5040E949500B82E0E94D50288E63B
:10162000B81639F084E591E00E94CB040E942A01AB
:101630008ACF8BE60E94E905887F682F61608BE680
:101640000E9440048CEE90ECA9E7BDE380936E0409
:1016500090936F04A0937004B09371048BE10E9487
:10166000E905682F68618BE10E94400480E49AEDEF
:10167000AFE7B8E38093720490937304A09374046B
:10168000B09375048CE10E94E905682F677E8CE1B8
:101690000E9440048BE60E94E905682F6F7B8BE671
:1016A0000E94400484E291E00E94590482E791E0A4
:1016B0000E94D9048BE60E94E90586FD1AC08BE3DF
:1016C00091E00E94CB0488E891E00E94D9048BE667
:1016D0000E94E9058770E82FF0E0EF58F44F0C9472
:1016E000C10EAA0BA70BA40BA10B9B0B9E0B800B8F
:1016F0007C0B83E391E0E5CF8EE991E00E94CB047F
:1017000085EA92E00E94D9048CE10E94E905887183
:1017100090E023E0959587952A95E1F78230910531
:1017200009F4C7C083309105C1F0019709F0C4C026
:1017300081ED92E014C086ED91E0E0CF8CEF91E076
:10174000DDCF80E292E0DACF84E492E0D7CF88E682
:1017500092E0D4CF8CE892E0D1CF80EC92E00E946E
:10176000CB0486E00E94280488E00E9428048AE0D6
:101770000E94280481EE92E00E94D90486E00E9433
:10178000BB050E94DB048CEF92E00E94D90488E044
:101790000E94BB050E94DB048CEF92E00E94D904FA
:1017A0008AE00E94BB05BC01990F880B990B97FF3B
:1017B00086C00E94AA0484E291E00E94590484E257
:1017C00091E00E94590480E093E00E94CB048FE3F3
:1017D00093E00E94CB048EE793E00E94CB0400E0EC
:1017E00010E0CE0101960E94100669817A818B81FA
:1017F0009C8142E00E9405078BE393E00E94D9049C
:10180000CE0101960E9410066D817E818F819885A0
:1018100042E00E9405078BE393E00E94D904CE01C9
:1018200001960E94100669857A858B859C8542E029
:101830000E94050789E393E00E94D904CE01019636
:101840000E94900669817A818B819C8142E00E948E
:10185000050789E393E00E94D904CE0101960E9416
:1018600090066D817E818F81988542E00E940507F8
:1018700088E393E00E94D904CE0101960E9490066D
:1018800069857A858B859C8542E00E94050784E204
:1018900091E00E9459040E942A010115110509F4E2
:1018A000A0CF0E94CC01882309F49BCF0E940000A6
:1018B00098CF89EC92E053CF89ED92E050CF4AE087
:1018C0000E94660478CF5058BB27AA270E947B0C41
:1018D0000C94EE0D0E94E00D38F00E94E70D20F010
:1018E00039F49F3F19F426F40C94DD0D0EF4E095C5
:1018F000E7FB0C94D70DE92F0E94FF0D58F3BA17A0
:10190000620773078407950720F079F4A6F50C9415
:10191000210E0EF4E0950B2EBA2FA02D0B01B9016C
:1019200090010C01CA01A0011124FF27591B99F055
:10193000593F50F4503E68F11A16F040A22F232F61
:10194000342F4427585FF3CF469537952795A795B1
:10195000F0405395C9F77EF41F16BA0B620B730B58
:10196000840BBAF09150A1F0FF0FBB1F661F771FC9
:10197000881FC2F70EC0BA0F621F731F841F48F47E
:10198000879577956795B795F7959E3F08F0B0CF07
:101990009395880F08F09927EE0F979587950895EE
:1019A0000E94B30D08F481E008950E94E90C0C94A4
:1019B000EE0D0E94E70D58F00E94E00D40F029F472
:1019C0005F3F29F00C94D70D51110C94220E0C940A
:1019D000DD0D0E94FF0D68F39923B1F3552391F3B8
:1019E000951B550BBB27AA2762177307840738F08E
:1019F0009F5F5F4F220F331F441FAA1FA9F335D0EB
:101A00000E2E3AF0E0E832D091505040E695001C9E
:101A1000CAF72BD0FE2F29D0660F771F881FBB1F58
:101A2000261737074807AB07B0E809F0BB0B802D36
:101A3000BF01FF2793585F4F3AF09E3F510578F062
:101A40000C94D70D0C94220E5F3FE4F3983ED4F330
:101A5000869577956795B795F7959F5FC9F7880F36
:101A6000911D9695879597F90895E1E0660F771F88
:101A7000881FBB1F621773078407BA0720F0621B19
:101A8000730B840BBA0BEE1F88F7E09508950E9444
:101A9000070E88F09F5798F0B92F9927B751B0F0EB
:101AA000E1F0660F771F881F991F1AF0BA95C9F7E2
:101AB00014C0B13091F00E94210EB1E008950C9451
:101AC000210E672F782F8827B85F39F0B93FCCF304
:101AD000869577956795B395D9F73EF4909580955F
:101AE000709561957F4F8F4F9F4F0895E89409C07F
:101AF00097FB3EF490958095709561957F4F8F4F41
:101B00009F4F9923A9F0F92F96E9BB279395F69556
:101B1000879577956795B795F111F8CFFAF4BB0FD4
:101B200011F460FF1BC06F5F7F4F8F4F9F4F16C038
:101B3000882311F096E911C0772321F09EE8872FC2
:101B4000762F05C0662371F096E8862F70E060E07E
:101B50002AF09A95660F771F881FDAF7880F9695F7
:101B6000879597F90895990F0008550FAA0BE0E89B
:101B7000FEEF16161706E807F907C0F0121613064F
:101B8000E407F50798F0621B730B840B950B39F48F
:101B90000A2661F0232B242B252B21F408950A26F5
:101BA00009F4A140A6958FEF811D811D089597F935
:101BB0009F6780E870E060E008959FEF80EC0895F3
:101BC00000240A941616170618060906089500241C
:101BD0000A9412161306140605060895092E039496
:101BE000000C11F4882352F0BB0F40F4BF2B11F40A
:101BF00060FF04C06F5F7F4F8F4F9F4F089557FD69
:101C00009058440F551F59F05F3F71F04795880F6A
:101C100097FB991F61F09F3F79F087950895121601
:101C200013061406551FF2CF4695F1DF08C01616AD
:101C300017061806991FF1CF86957105610508945E
:101C40000895E894BB2766277727CB0197F9089575
:101C50000E94B30D08F48FEF08950E94400E0C947B
:101C6000EE0D0E94E00D38F00E94E70D20F0952364
:101C700011F00C94D70D0C94DD0D11240C94220E50
:101C80000E94FF0D70F3959FC1F3950F50E0551F13
:101C9000629FF001729FBB27F00DB11D639FAA27C1
:101CA000F00DB11DAA1F649F6627B00DA11D661F10
:101CB000829F2227B00DA11D621F739FB00DA11D31
:101CC000621F839FA00D611D221F749F3327A00DEB
:101CD000611D231F849F600D211D822F762F6A2F87
:101CE00011249F5750409AF0F1F088234AF0EE0FEC
:101CF000FF1FBB1F661F771F881F91505040A9F719
:101D00009E3F510580F00C94D70D0C94220E5F3F3E
:101D1000E4F3983ED4F3869577956795B795F79554
:101D2000E7959F5FC1F7FE2B880F911D96958795CC
:101D300097F908950E94B30D880B990B0895A1E2BD
:101D40001A2EAA1BBB1BFD010DC0AA1FBB1FEE1F35
:101D5000FF1FA217B307E407F50720F0A21BB30B80
:101D6000E40BF50B661F771F881F991F1A9469F7FC
:101D700060957095809590959B01AC01BD01CF0158
:101D80000895EE0FFF1F0590F491E02D0994F8944B
:101D9000FFCF00000000020262018F014F02C0016C
:101DA0009E01B20100000000F903CC035604BC03FD
:101DB000B2008200BD030D0A006E616E00696E669E
:101DC000006F766600456E61626C656400446973FD
:101DD00061626C65640053657474696E6720557048
:101DE000204D50550A004F6F707321204368656382
:101DF0006B20796F757220636F6E6E656374696FA7
:101E00006E732100202A20536C656570204D6F642D
:101E1000653A2020202020202000202A20436C6FBB
:101E2000636B20536F757263653A20202020200079
:101E300053746F70732074686520636C6F636B20DC
:101E4000616E64206B6565707320746865207469C9
:101E50006D696E672067656E657261746F72206967
:101E60006E20726573657400504C4C2077697468FD
:101E70002065787465726E616C2033322E37363887
:101E80006B487A207265666572656E636500504CBA
:101E90004C20776974682065787465726E616C2077
:101EA00031392E324D487A207265666572656E63EF
:101EB0006500504C4C2077697468205A206178691D
:101EC00073206779726F73636F70652072656665E2
:101ED00072656E636500504C4C20776974682059B8
:101EE0002061786973206779726F73636F70652002
:101EF0007265666572656E636500504C4C2077694B
:101F0000746820582061786973206779726F7363F1
:101F10006F7065207265666572656E636500496EF7
:101F20007465726E616C20384D487A206F736369F6
:101F30006C6C61746F7200202A20416363656C656C
:101F4000726F6D657465723A202020202020202059
:101F500020002B2F2D2031362067002B2F2D2038ED
:101F60002067002B2F2D20342067002B2F2D2032AF
:101F7000206700202A20416363656C65726F6D6580
:101F8000746572206F6666736574733A2000202F43
:101F9000200020202020202020416363656C617296
:101FA0006F6D657465722020202020202020202065
:101FB0002020202020202020202020204779726F00
:101FC0006D65746572202020202020202020202094
:101FD000002D2D2D2D2D2D2D2D2D2D2D2D2D2D2D5E
:101FE0002D2D2D2D2D2D2D2D2D2D2D2D2D2D2D2D21
:101FF0002D2D2D2D2D2D2D2D2D2D2D2D2D2D2D2D11
:102000002D2D2D2D2D2D2D2D2D2D2D2D2D2D2D002D
:10201000205872617720202020202059726177207B
:102020002020202020205A7261772020202020208C
:102030002020586E6F726D2020202020596E6F7204
:102040006D20202020205A6E6F726D20202000000D
:107E0000112484B714BE81FFF0D085E080938100F7
:107E100082E08093C00088E18093C10086E0809377
:107E2000C20080E18093C4008EE0C9D0259A86E02C
:107E300020E33CEF91E0309385002093840096BBD3
:107E4000B09BFECF1D9AA8958150A9F7CC24DD24C4
:107E500088248394B5E0AB2EA1E19A2EF3E0BF2EE7
:107E6000A2D0813461F49FD0082FAFD0023811F036
:107E7000013811F484E001C083E08DD089C08234E0
:107E800011F484E103C0853419F485E0A6D080C0E4
:107E9000853579F488D0E82EFF2485D0082F10E0AE
:107EA000102F00270E291F29000F111F8ED06801E7
:107EB0006FC0863521F484E090D080E0DECF843638
:107EC00009F040C070D06FD0082F6DD080E0C81688
:107ED00080E7D80618F4F601B7BEE895C0E0D1E017
:107EE00062D089930C17E1F7F0E0CF16F0E7DF06D8
:107EF00018F0F601B7BEE89568D007B600FCFDCFD4
:107F0000A601A0E0B1E02C9130E011968C91119780
:107F100090E0982F8827822B932B1296FA010C0160
:107F200087BEE89511244E5F5F4FF1E0A038BF0790
:107F300051F7F601A7BEE89507B600FCFDCF97BE46
:107F4000E89526C08437B1F42ED02DD0F82E2BD052
:107F50003CD0F601EF2C8F010F5F1F4F84911BD097
:107F6000EA94F801C1F70894C11CD11CFA94CF0C13
:107F7000D11C0EC0853739F428D08EE10CD085E9AC
:107F80000AD08FE07ACF813511F488E018D01DD067
:107F900080E101D065CF982F8091C00085FFFCCF94
:107FA0009093C60008958091C00087FFFCCF809118
:107FB000C00084FD01C0A8958091C6000895E0E648
:107FC000F0E098E1908380830895EDDF803219F02E
:107FD00088E0F5DFFFCF84E1DECF1F93182FE3DFCA
:107FE0001150E9F7F2DF1F91089580E0E8DFEE27F6
:047FF000FF270994CA
:027FFE00040479
:00000001FF
