:1000000000800020015200009B5200009D52000021
:10001000FFFFFFFFFFFFFFFFFFFFFFFFFFFFFFFFF0
:10002000FFFFFFFFFFFFFFFFFFFFFFFF9F520000EB
:10003000FFFFFFFFFFFFFFFFA1520000CD290000DF
:10004000A5520000A5520000A5520000A5520000D4
:10005000A5520000A5520000A5520000A5520000C4
:10006000A5520000A5520000A5520000A5520000B4
:10007000A5520000A5520000A5520000A5520000A4
:10008000A5520000A5520000A5520000C145000085
:10009000ED450000A5520000A5520000A935000062
:1000A000CD350000DD350000ED350000A552000023
:1000B000A5520000B92E0000A5520000A552000074
:1000C00010B5064C2378002B07D1054B002B02D02E
:1000D000044800E000BF0123237010BDD8000020B9
:1000E000000000002C660000044B10B5002B03D06C
:1000F0000349044800E000BF10BDC04600000000F6
:10010000DC0000202C66000002B47146490849005A
:10011000095C49008E4402BC7047C0460022430877
:100120008B4274D303098B425FD3030A8B4244D3BF
:10013000030B8B4228D3030C8B420DD3FF22090201
:1001400012BA030C8B4202D31212090265D0030BC0
:100150008B4219D300E0090AC30B8B4201D3CB03B6
:10016000C01A5241830B8B4201D38B03C01A5241F8
:10017000430B8B4201D34B03C01A5241030B8B42FA
:1001800001D30B03C01A5241C30A8B4201D3CB02E5
:10019000C01A5241830A8B4201D38B02C01A5241CA
:1001A000430A8B4201D34B02C01A5241030A8B42CD
:1001B00001D30B02C01A5241CDD2C3098B4201D3E5
:1001C000CB01C01A524183098B4201D38B01C01A63
:1001D000524143098B4201D34B01C01A52410309DA
:1001E0008B4201D30B01C01A5241C3088B4201D389
:1001F000CB00C01A524183088B4201D38B00C01A36
:10020000524143088B4201D34B00C01A5241411A5C
:1002100000D20146524110467047FFE701B5002069
:1002200000F0F0F802BDC0460029F7D076E770472D
:1002300003460B437FD4002243088B4274D3030947
:100240008B425FD3030A8B4244D3030B8B4228D3E8
:10025000030C8B420DD3FF22090212BA030C8B420E
:1002600002D31212090265D0030B8B4219D300E0AE
:10027000090AC30B8B4201D3CB03C01A5241830B33
:100280008B4201D38B03C01A5241430B8B4201D3E3
:100290004B03C01A5241030B8B4201D30B03C01A0C
:1002A0005241C30A8B4201D3CB02C01A5241830A86
:1002B0008B4201D38B02C01A5241430A8B4201D3B5
:1002C0004B02C01A5241030A8B4201D30B02C01ADF
:1002D0005241CDD2C3098B4201D3CB01C01A524146
:1002E00083098B4201D38B01C01A524143098B42CF
:1002F00001D34B01C01A524103098B4201D30B01B8
:10030000C01A5241C3088B4201D3CB00C01A5241DC
:1003100083088B4201D38B00C01A524143088B42A1
:1003200001D34B00C01A5241411A00D2014652413A
:10033000104670475DE0CA0F00D04942031000D359
:100340004042534000229C4603098B422DD3030AAE
:100350008B4212D3FC22890112BA030A8B420CD3BE
:10036000890192118B4208D3890192118B4204D3E7
:1003700089013AD0921100E08909C3098B4201D367
:10038000CB01C01A524183098B4201D38B01C01AA1
:10039000524143098B4201D34B01C01A5241030918
:1003A0008B4201D30B01C01A5241C3088B4201D3C7
:1003B000CB00C01A524183088B4201D38B00C01A74
:1003C0005241D9D243088B4201D34B00C01A52414B
:1003D000411A00D20146634652415B10104601D3D8
:1003E0004042002B00D54942704763465B1000D362
:1003F000404201B5002000F005F802BD0029F8D008
:1004000016E770477047C0468446101C62468C460B
:10041000191C634600E0C0461FB501F08BF80028A8
:1004200001D40021C8421FBD10B500F0E3FF4042D7
:10043000013010BD10B501F07DF8002801DB00206F
:1004400010BD012010BDC04610B501F073F80028A2
:1004500001DD002010BD012010BDC04610B501F027
:1004600005F8002801DC002010BD012010BDC046A9
:1004700010B500F0FBFF002801DA002010BD0120BC
:1004800010BDC04670B500220C4B04000D00FFF7F4
:10049000EFFF002804D12000290001F089FE70BD83
:1004A000064B00222000290001F01EFB01F080FE17
:1004B00080231B069C466044F1E7C0460000E041F3
:1004C000F0B54E4657464546DE46E0B543025B0A68
:1004D000450083B00F1C99462D0EC60F002D57D036
:1004E000FF2D24D08020DB00C00418430023814668
:1004F0009A469B467F3D7C027A00FB0F640A120EEF
:10050000984623D0FF2A4BD0E30080240020E40447
:100510007F3A1C43AD186B1C474601935346774006
:100520003A000F2B48D87D499B00CB589F46002BA3
:1005300000D085E008339A46063B9B467C027A0051
:10054000FB0FFF25640A120E9846DBD1002C00D069
:1005500090E0524601231A4392460120DBE74C46C5
:1005600058461700022824D0032800D1CFE00022EB
:10057000002301284DD15802D205400AFF0710433D
:10058000384303B03CBC90469946A246AB46F0BD0A
:10059000002B5BD104239A46033B00259B46AAE728
:1005A000FF35002C60D1524602231A4392460220A6
:1005B000B1E7FF220023DEE74B461B0C9C464B466F
:1005C0002604360C180461463300220C6446000CE5
:1005D00043434E435043544380191A0C1218964219
:1005E00003D9802149028C4664441B041B0C10046F
:1005F000C01883015E1EB341800E1843130C1B19F3
:100600009B0103431C00230179D5012362081C4090
:100610001443019A7F32002A4DDD630704D00F2373
:100620002340042B00D00434230103D53C4B019A12
:100630001C408032FE2ABCDCA3015B0AD2B29AE7DE
:100640000C239A46093BFF259B4654E7180001F00E
:1006500069FE4A46431F76259A4000236D42914623
:100660002D1A9A469B4646E7524603231A43924662
:10067000032050E7200001F055FE431F2D1A9C4037
:10068000763D002047E780230027DB03FF2272E747
:10069000424666E74C463200584662E780234A46A7
:1006A000DB031A4222D01C4220D123435B025B0AA7
:1006B0004746FF225FE701239A1A1B2A21DC230009
:1006C0000199D3409E318C401A0023005C1EA34147
:1006D00013435A0704D00F221A40042A00D00433CF
:1006E0005A0111D49B015B0A002244E780234A4649
:1006F000DB0313435B025B0A3700FF223BE70195F4
:1007000087E70022002336E70122002333E7802316
:10071000DB0323435B025B0AFF222CE744660000F5
:10072000FFFFFFF770B500283DD0C317C5185D4027
:10073000C40F280001F0F6FD9E22121A962A07DC4B
:10074000D2B2082833DD083885406802400A23E029
:10075000992A0BDD052329001B1AD94003001B33FE
:100760009D402B005D1EAB4119430D00052801DDA6
:10077000431F9D402B000F490B406E0709D00F26E9
:100780003540042D05D004335D0102D59F220B4076
:10079000121A9B01580AD2B24002D205400AE4075D
:1007A0001043204370BD002400220020F4E76802BB
:1007B000400AF1E7FFFFFFFBF0B54F464646D6463D
:1007C0000C000903C0B5490A470F5E0039431F03F7
:1007D000DB0F9C4665007B0A570F1F436D0DE40F2E
:1007E000760DA146C000B846D200AB1B64457BD055
:1007F000002B5FDD002E00D0A4E03E00164300D1A8
:1008000012E15E1E002E00D09EE1871A4346B842D8
:1008100080410125C91A4042091A0B0200D431E176
:1008200049024E0A002E00D16EE1300001F07AFD3F
:100830000300083B1F2B00DD61E120223900D21AA2
:100840009E40D1409F400E439D4200DD51E15D1B23
:100850006B1C1F2B00DD7CE12021C91A3D003000FC
:100860008F408840DD40791E8F41310007222843A8
:10087000D940002507433A40002A09D00F233B40C6
:10088000042B05D03B1DBB42BF417F42C9191F004D
:100890000B0200D426E26A1CC64B55056D0D9A4228
:1008A00000D106E1C44AFF080A40530752023B4305
:1008B000120B8EE0002B00D0B8E06B1C5B055B0DCB
:1008C000012B00DC30E1871A4346B842B641CB1A0F
:1008D00076429E1B330200D54CE13B003343A1D14D
:1008E00000220024002570E0002B00DCE5E0002E53
:1008F00000D183E0AF4EB54260D080263604374346
:10090000B846382B00DC3EE1434613431F007A1EF5
:1009100097413F1887428041404209180B0200D49A
:10092000B0E0A44B01359D4200D1C3E0A24A7B0850
:100930000A4001210F401F435108D30707221F43DC
:100940003A4099E79B4EB54238D08026360437436B
:10095000B846382B00DDDCE01F2B00DC30E11E0048
:100960004746203EF740BC46202B04D04026F31AD1
:1009700046469E403243170063467A1E97411F4306
:10098000CCE0002B00D104E24346134300D159E1EF
:100990004B07C00818438023C9081B03194208D01D
:1009A0004546ED081D4204D14346D0085907084387
:1009B0002900420FC9007F4D1143C0004B07CA08F0
:1009C0007C49C00803438D4268D012036D05120BA9
:1009D0006D0D002112031800130B0A0D12051A43A6
:1009E000764B2D0513402B435B00E4075B08234344
:1009F00019001CBC90469946A246F0BD3E00164325
:100A000012D05E1E002E00D000E187188742804180
:100A100041444042091801250B0233D5022585E7E0
:100A200064463300414610001D00C7E7002D00D08A
:100A3000DAE00C000443F3D05C1C00D19FE15D4C74
:100A4000A64200D12FE1DB43382B00DD66E11F2BEE
:100A500000DD83E120240500E41A0F00DD40D940C9
:100A6000A0404346A7405B1A441EA04198462F432E
:100A70003843171ABA42924143465242991A644681
:100A80003500CAE607223A40002A00D0F6E64B07B6
:100A9000CA084849FF083B438D4296D119001143CB
:100AA00000D19EE1802109030A431203120B414D3C
:100AB0008FE71500002200238BE7002B00D0C7E052
:100AC0006B1C5F057F0D012F00DCF1E0394DAB425F
:100AD00000D1B9E085180A00854289414244494263
:100AE00051180722CF076D082F4349083A401D00CF
:100AF000C2E607223049ED1A31403A40BCE63E00DA
:100B00002838864000279FE6380001F00BFC203093
:100B10008EE6434613431F007A1E9741C71BB84217
:100B200080414042091A78E60E003B000643134319
:100B3000002D61D1002E00D0F4E0002B00D11BE18C
:100B400064463900100039E71A4FBB427AD03300AF
:100B5000FFE630001F3DE840202B03D04021CB1A98
:100B60009E4037437B1E9F41072207433A400021A6
:100B7000002589E7171A4346BA42B641591A764208
:100B80008E1B64464EE61F2B00DDADE02026474657
:100B9000F61AB740B9461700B246DF404E463E430C
:100BA00037005646B240561EB24117434246DA401D
:100BB0008918AEE6FF070000FFFF7FFFFFFF0F80F1
:100BC00020264746F61AB740B9461700B246DF401E
:100BD0004E463E4337005646B240561EB24117437A
:100BE0004246DA40891A99E77F4CA6425BD08024BE
:100BF00024045B42214327E7002E0CD1002B00D1B7
:100C0000CBE0644639001000774DD7E6764FBB4203
:100C100018D0330075E6002B14D04B07C0081843DA
:100C20008023C9081B03194207D0FC081C4204D1C9
:100C30007907D0080843E14621004C46420FC9001D
:100C40001143C000684DB9E61D0000220023C0E634
:100C5000002D5BD10D00054300D1E2E65D1C00D103
:100C6000B0E0614DAE421FD0DB43382B71DC1F2B4F
:100C700000DD96E020250F00ED1AAF40B9460700D1
:100C8000AA46DF404D463D432F005546A840D94077
:100C9000451EA84188440743BF18974292415142DC
:100CA000414435003AE6644635004146100085E689
:100CB0000B000343002D00D063E6002BF5D0434624
:100CC000134300D17AE687188742804107224144C6
:100CD000404209183A400B0200D4D5E6434B013597
:100CE0001940C9E5380069E61E004746203EF74036
:100CF000BC46202B04D04026F31A46469E40324381
:100D0000170063467A1E97411F4302E6364DAE42F6
:100D1000CAD080252D045B422943A6E70843411E23
:100D20008841A6E6002B00D148E6871A4346B84220
:100D3000B641CB1A76429E1B33024BD5171A434657
:100D4000BA429241591A5242891A072264463A40DD
:100D500092E501430F00791E8F419DE71C000F00B3
:100D6000203CE740202B03D04024E31A994008435D
:100D7000411E884138437CE60022002425E6171AEC
:100D80004346BA429241591A5242891A6446350082
:100D900043E541461000144D10E680220024120362
:100DA00080E61D000F00203DEF40BC46202B03D005
:100DB0004025EB1A9940084307006346781E874197
:100DC0001F4369E7871897429B4141445B42C9181A
:100DD0003500A3E53B003343CED0072231003A4033
:100DE00052E600231A00F4E5FF070000FFFF7FFF33
:100DF000F0B55746DE464E464546E0B58346070009
:100E00000E03480085B092461C00360B400DCD0FF6
:100E1000002800D19DE0954B984239D08023F60000
:100E20001B041E43924A7B0F3343994694460300AA
:100E30006344009300230026FF00029323031B0B4F
:100E400098466300E40F52465B0D019400D1B3E075
:100E500086498B4200D19EE04246D1008022120496
:100E60000A435146490F11438B46814952468C46ED
:100E700000996344CB1A0021D20000932B006340F9
:100E80009A460F2E00D905E17A4BB6009B599F4632
:100E90005B463343994600D0B8E00223082600277A
:100EA00000900293CAE7CB463A0002990195019B54
:100EB0009A46022927D0032900D180E2012944D093
:100EC0006D49009B8C4663441C00002C38DD5307A1
:100ED00000D013E2D2085B46DB0109D55946674BC7
:100EE00019408B468021C9008C46009B63441C003E
:100EF000634B9C4207DC5B4664055F075B0217435C
:100F00001B0B620D02E000230027584A00211B033F
:100F10001C0B0B0D1B05234314055A4A38001340C4
:100F20001C4353466400DB0764081C43210005B0E2
:100F30003CBC90469946A246AB46F0BD01225242C7
:100F400001231B1B382B00DCADE10022002300270E
:100F5000DCE75B46334399465ED0002E00D18AE140
:100F6000300001F0DFF903000B3B1C2B00DD7BE1BF
:100F70001D22D31A5A460100DA4008398E40130068
:100F80005F46334399468F403F4B00261B1A009320
:100F90000023029352E7414653460B433B499B468D
:100FA0008C46009B634400935B46002B3BD102239D
:100FB00000221E43022161E7434613439B4637D07C
:100FC0004346002B00D162E1404601F0ABF903003B
:100FD0000B3B1C2B00DD53E102004146083A9140D7
:100FE00088461D21CB1A5146D9400B0041460B4380
:100FF0009B46534693401A00009B25499C466044FB
:1010000003008C4663440093002137E70323B14675
:1010100000900C26029311E700230093013304266D
:10102000002702930AE70323C3461E43032125E753
:1010300001331E430022012120E700239A4680232A
:1010400000271B03094A61E7802349461B03194215
:1010500000D1E2E05946194200D0DEE00B431B0309
:1010600017001B0BA246014A50E7C046FF070000CD
:1010700001FCFFFF84660000FF030000FFFFFFFE8E
:10108000FE070000FFFF0F800DFCFFFF01F8FFFFD0
:10109000F3030000D94500D9CBE000D1C6E03C0005
:1010A00048460027009B013B00935B46160E1B023F
:1010B0001E431302984633041B0C9946310C0191D0
:1010C000FFF7B2F84A4642430B04210C05001943CE
:1010D0008A4207D98919013D8E4203D88A4201D933
:1010E000851E8919881A0199FFF79EF809048C4614
:1010F0004A46210464464243090C030021438A42C4
:1011000004D98919013B8E4200D8F1E02D041D431A
:10111000AB464346891A4246280C12041D0C5B4616
:10112000140C22001B041B0C5A4303946B434443CE
:10113000029568431B19150CEB189C4203D98024B7
:101140006402A44660441C0C15041B042D0C2018DA
:101150005D19814277D373D00C1AA24A7D1BAF422E
:10116000BF419446009B7F426344E01B1C008642C3
:1011700000D1DBE00199FFF757F84A4642430B04E0
:10118000290C070019438A4207D98919013F8E4269
:1011900003D88A4201D9871E8919881A0199FFF755
:1011A00043F809044A46894629044D464243090C3E
:1011B000030029438A4207D98919013B8E4203D88B
:1011C0008A4201D9831E89193F04891A3A00039F74
:1011D0001A43380013041B0C584381460298150C1F
:1011E0006F43434345434846000C8446DB19634440
:1011F0009F4203D9802040028446654448461F0C24
:1012000000041B04000C7D191818A94200D284E0C8
:1012100000D17FE001231A4357E680234A461B038F
:1012200013431B031B0BAA466F4A6FE6BA4200D951
:1012300035E74B46DC0758087B081C43FF0734E7BB
:101240000024AF4289D247444745A4415B466442EB
:10125000A4196418013BA6421ED2A0426DD800D149
:10126000B6E0241A9B4678E703005A46283B9A408A
:101270000027914688E6584601F054F8203072E67F
:1012800003005246283B9A4093460022B4E650465B
:1012900001F048F820309AE6A642E2D1B845DCD900
:1012A000341A9B4659E71F2B65DC504C0099A44625
:1012B0005C46614408008C4011008240D940501EB9
:1012C00082410C4314435A46DA401300620709D0A6
:1012D0000F222240042A05D02200141D9442894185
:1012E00049425B181A0262D50122002300270DE64D
:1012F0008A4200D80AE7831E891907E70F231340A3
:10130000042B00D1E6E5171D9742924153429B44BE
:10131000FA08E0E5002800D1D7E57118531EB14264
:1013200027D3A94215D358D01A0073E7002B00DC4D
:1013300004E6012300229B44CDE5022347444745B0
:1013400089415B429C46494289190C19E344241A9D
:1013500003E743465F0047459B41B8465B429E1901
:10136000023A8919A94200D054E7404500D051E71C
:10137000ABE51A00F6E71F215F4649420C1BE74028
:10138000202B07D01A49009B8C46634418005B460B
:1013900083401A43501E82413A43072700231740D7
:1013A00009D00F21002311401400042995D12200F7
:1013B0005F075B021B0BD20817430022A6E58023C0
:1013C00059461B030B431B0317001B0B064A9DE5E5
:1013D000BD42B2D89B460024BFE68045B9D31A006F
:1013E000C3E7C046FF030000FF0700001E04000023
:1013F0003E040000F0B54F464646D6468446C0B58A
:101400008046194E18030F034D00000B5C00824606
:101410003F0B6D0DC90F9146640DDB0F0120B542E6
:101420000AD0B44203D0A54201D157450CD01CBC10
:1014300090469946A246F0BD66463E43F7D1AC427F
:10144000F5D154461443F2D10120C845EFD1994259
:1014500007D0002DEBD163461F433800471EB8412B
:10146000E5E70020E3E7C046FF070000F0B54F4680
:101470004646D6464D00C0B50E03C90F8A462C49D4
:101480001F035C008046360B6D0D91463F0B640DCB
:10149000DB0F8D421ED08C4216D0002D1ED1304362
:1014A0008446002C01D13A4323D06246002A1AD048
:1014B0009A4529D0514602200139084001381CBC08
:1014C00090469946A246F0BD39001143E5D002206E
:1014D0004042F4E73043FAD1AC420FD0002C0FD198
:1014E0003A43E7D00CE00122013B9343180001305E
:1014F000E5E763460020002BE1D0DBE73A43E6D185
:101500009A45D7D1A542D5DCA54205DBBE42D1D84C
:1015100008D00020BE42D2D2504601230138984361
:101520000130CCE7C845C5D80020C845F4D3C6E78C
:10153000FF070000F0B54F464646D6464D00C0B501
:101540000E03C90F8A462E491F035C008046360BE6
:101550006D0D91463F0B640DDB0F8D4218D08C4210
:1015600011D0002D18D130438446002C1ED13A43AF
:101570001CD163460020002B30D051460220013997
:10158000084001382AE039001143EAD0022025E062
:101590003043FBD1AC4226D0002C26D13A4324D193
:1015A0005146022001390840013817E06246002AFE
:1015B0000FD09A45E1D1A54205DBBE42DDD819D056
:1015C0000020BE420AD25046012301389843013020
:1015D00004E00122013B9343180001301CBC9046FB
:1015E0009946A246F0BD3A43D0D19A45C5D1A5420D
:1015F000C3DCE0E7C845C0D80020C845E3D3EDE729
:10160000FF070000F0B55746DE464E464546E0B5BA
:10161000834606000F03480087B092461D003F0B2B
:10162000400DCC0F002800D16FE0DE4B984238D03F
:101630008023FF001B041F43730F3B430193DA4BCE
:101640000027994600239B46F60081442B0369003E
:101650001B0B52469846490DED0F002900D185E03D
:10166000D04B994200D173E04346DA0080231B043B
:1016700013435246CC48520F84461343524600202F
:101680006144D20089442100694000918C460121C7
:1016900049448A460F2F00D990E0C449BF00CF5972
:1016A000BF465B463B43019300D06AE10223082713
:1016B000002681469B46C9E732005846019B614699
:1016C0000091022800D175E0032800D1FEE1012835
:1016D00000D02CE100230027002600253F032A0D1F
:1016E0003F0BB34812053A4302401B051343009ACF
:1016F0005B00D1075B080B433000190007B03CBC0E
:1017000090469946A246AB46F0BD5B463B430193EB
:1017100000D12FE1002F00D1A5E1380000F002FE3A
:1017200003000B3B1C2B00DD96E11D22D31A5A4609
:101730000100DA405E4608398F4013008E403B437B
:1017400001939C4B00271B1A994600239B467DE77B
:10175000414653460B4393498C46E144002B00D04D
:101760001AE102220220174300228CE7134300D122
:101770000DE14346002B00D181E1404600F0D2FD4F
:1017800002000B3A1C2A00DD72E1010043460839D1
:101790008B4098461D239A1A5346D3401A0043465D
:1017A000134352468A404946081A82498946814471
:1017B000002068E77B4B002700268EE7140C1204FC
:1017C000120C1100370C3604350C794328008C4676
:1017D0002E0060436044834656432100300C80460F
:1017E0005846794340440291844506D98846802171
:1017F00049028C46E044414602913604010C360C05
:1018000000048B4681191E0C1B041B0C039119004C
:1018100079438C46280075436544A8465843050C17
:1018200045447743A94203D9802149028C46674445
:10183000290C8C4639000004000C2D042D1861443D
:10184000AB4405915946049101990F043F0C080CD3
:10185000390051434243904602008C46090C8B46A6
:1018600062437C4344445C44A04503D9802149023F
:1018700088464244210C884661460904090C8C467E
:1018800039005943434370437E430F0CF618240438
:10189000BE19644442448C46B34203D980235B02A0
:1018A00098464044029B61469846049B3704434453
:1018B0009B46AB45AD416B420D0405992D0C8C4602
:1018C0007F196744FD18A8465D462D19A542A4411D
:1018D00093466442A446C344DC448F42BF419845CA
:1018E0009B4193459241A445A4415B427F421F43E3
:1018F000360C52426442BF192243BF186246381860
:101900004302D20D039913436A020A43501E8241D7
:101910006146ED0D2A434E023243D90100D4B3E0B3
:101920000126500832400243DE0732435B08224C56
:101930005444002C62DD510709D00F2010400428C8
:1019400005D0101D9042924152429B180200D901CD
:1019500004D580241948E4000340544418488442C4
:1019600000DD27E75E075B02D2081F0B6305164305
:101970005B0DB2E6002399460133042700269B46FF
:1019800064E60323019781460C279B465EE601220D
:1019900001201743002276E6032303201F4343461A
:1019A00071E6C046FF07000001FCFFFFC4660000AF
:1019B000FFFF0F800DFCFFFFFF030000FFFFFFFE96
:1019C000FE0700000023802700933F030026434BBF
:1019D00083E6019B3200A446584670E6AC466EE6AC
:1019E000802701993F0339422DD03B422BD11F4321
:1019F0003F033F0B00951600384B6EE601252D1B6B
:101A0000382D00DD66E61F2D40DC35481C005044B3
:101A1000160082408440EE40501E824134431443FD
:101A2000EB40620709D00F222240042A05D0220091
:101A3000141D9442804140421B181A023ED50123D6
:101A40000027002649E68027019B3F031F433F03F1
:101A50003F0B0094214B40E603005A46283B9A4036
:101A6000002601926DE6584600F05CFC203057E6F7
:101A700003005246283B9A401300002293E650464A
:101A800000F050FC20307BE6CA4650E71F201E00C5
:101A90004042041BE640202D03D0124C5444A34086
:101AA0001A43501E8241324307260027164009D0B0
:101AB0000F200023104014000428B9D122005E0733
:101AC0005B021F0BD2081643002306E680273F0364
:101AD0001F433F033F0B1600004BFEE5FF070000CE
:101AE0001E0400003E040000F8B557464E46454629
:101AF000DE460C000903E0B5490A460F5F0031439A
:101B00001E03DB0F760A9B46530F3343C84E650016
:101B1000C000E40FD2006D0DA24681467F0D9C46A9
:101B20009046B74200D1B9E05B46012673409B4620
:101B3000EE1BA34500D183E0002E63DD002F00D013
:101B4000B1E06346134300D123E1731E002B00D0A4
:101B5000BAE1861A6346B04280410125C91A404263
:101B6000091A0B0200D447E149024B0A9846434642
:101B7000002B00D189E1404600F0D4FB0300083B74
:101B80001F2B00DD7CE120223000D21A4146D040DC
:101B9000994002009E400A439D4200DD6AE15D1BC0
:101BA0006B1C1F2B00DD94E1202110003500C91AA9
:101BB0008E40DA408840DD40711E8E4111000722C0
:101BC0002843002506433240002A09D00F23334022
:101BD000042B05D0331DB342B641764289191E004D
:101BE0000B0200D43DE26A1C914B55056D0D9A42E3
:101BF00000D119E18F4AF6080A40570752023743CD
:101C0000120B9BE0002E00D0C5E06E1C7605760D11
:101C1000012E00DC48E16746861ACB1BB042BF416B
:101C20007F42B8461F004346FF1A3B00B8461B02DE
:101C300000D55FE137439AD100220024002579E0E6
:101C4000002E00DCFAE0002F00D18DE0784B9D42A1
:101C500067D0802367461B041F43BC46382E00DC38
:101C600052E1634613435A1E93411E188642804137
:101C7000404209180B0200D4BEE06D4B01359D4275
:101C800000D1D2E06B4A73080A4001210E401E4386
:101C90005108D30707221E43324095E71E00164322
:101CA00000D045E740E7624B9D423AD0802367462B
:101CB0001B041F43BC46382E00DDEBE01F2E00DC6A
:101CC0003AE133006746203BDF403B00202E05D041
:101CD0004027BF1B6646BE40324390464646721EB2
:101CE00096413343DAE0002B00D114E263461343FC
:101CF00000D168E180234E07C008C9081B030643D2
:101D0000194208D06046C008184204D16346010059
:101D1000D2085E071643F3009946C900720F444D7E
:101D200011434B46DE08424B4F073743CA089D42DA
:101D300000D16EE012036D05120B6D0D0021120330
:101D4000130B0A0D12051A433B4B2D0513402B4371
:101D50005B00E4075B082343380019003CBC904655
:101D60009946A246AB46F8BD6346134311D0731E95
:101D7000002B00D007E18618864280416144404232
:101D8000091801250B0237D502257BE73E00614685
:101D900091463500C5E75C46002D00D0E1E00B0020
:101DA0000343F3D0731C00D1ACE1214B9F4200D11F
:101DB0003AE1F343382B00DD6FE11F2B00DD8CE1AE
:101DC00020250E00ED1AAE40B0460600AA46DE40C1
:101DD000454635432E005546D940A8406346451E2A
:101DE000A8415B1A9C463043161AB24292416346A0
:101DF0005242991A3D00B4E607223240002A00D030
:101E0000E4E60B4BF6084F073743CA089D4200D063
:101E100090E73B00134300D1A6E180231B031A4344
:101E20001203120B024D89E715000022002785E7F7
:101E3000FF070000FFFF7FFFFFFF0F80002E00D095
:101E4000C7E06B1C5E05760D012E00DCF0E0C84D8E
:101E5000AB4200D1B9E085180A008542894162444D
:101E6000494251180722CE076D082E4349083240D7
:101E70001D00A9E6BF49ED1A114007223240A3E632
:101E8000320028388240002686E6300000F04AFA08
:101E9000203073E6634613435A1E9341C61AB0427C
:101EA00080414042091A5CE60E006746064317432C
:101EB000002D5ED1002E00D0F3E0002F00D11EE1F6
:101EC0005C46614691462CE7A94FBE427BD01E007E
:101ED000F1E610001F3DE840202B03D04021CB1A33
:101EE0009A401643731E9E4107220643324000214A
:101EF000002583E7161A6346B2428041591A4042D0
:101F00000B1A98465C4632E61F2E00DDABE0202718
:101F1000BB1B9A4663465746BB40994613004F4643
:101F2000F3401F433B005746BA40571EBA41134384
:101F30006246F240891898E62027BB1B9A46634602
:101F40005746BB40994613004F46F3401F433B00A2
:101F50005746BA40571EBA4113436246F240891AA7
:101F60009CE7834B9F425FD080252D047342294319
:101F700020E7002E0CD1002F00D1D0E05C46614656
:101F800091467B4DCDE67A4FBE421CD01E0065E6E1
:101F9000002F18D0C0084E0706438020C908000350
:101FA000014208D06346DC08044204D12100DA462D
:101FB000D2085E071643F300994601245346C90030
:101FC000720F11431C406A4DABE61D000022002732
:101FD000B4E6002D59D10B00034300D1D6E6731CA3
:101FE00000D1B2E0624B9F421ED0F343382B6FDC2E
:101FF0001F2B00DD97E020250E00ED1AAE40B04605
:102000000600AA46DE40454635432E005546A84008
:10201000D940451EA8418C440643B61896429241C9
:10202000514261443D0025E63D006146914678E617
:102030000B000343002D00D055E6002BF5D063467E
:10204000134300D16DE686188642804161444042C8
:10205000091800220B0200D4D0E6464B0135194086
:10206000B2E5B1465DE633006746203BDF403B000A
:10207000202E05D04027BF1B6646BE403243904607
:102080004646721E96413343EFE5394B9F42CBD013
:1020900080252D0473422943A8E70843411E884147
:1020A000A2E6002F00D13CE66346861ACF1AB04262
:1020B0009B415B42FB1A98461B024ED5161A63469B
:1020C000B2429241591A5242891A5C4600227BE57B
:1020D00001430E00711E8E419FE71D000E00203D42
:1020E000EE40B046202B04D04025EB1A994008431F
:1020F000814648464346411E8841184374E6002203
:10210000002417E6161A6346B2429241591A524207
:10211000891A3D0025E561469146154D01E680226C
:102120000024120379E61D000E00203DEE40B0466B
:10213000202B04D04025EB1A9940084381464E4697
:102140004346711E8E411E4367E7861896429B41A7
:1021500061445B42C9183D008CE547463743CED009
:1021600007224146324049E600273A00E6E5C046EC
:10217000FF070000FFFF7FFF70B50C4E0D031C032F
:1021800049005B002D0B490D240B5B0DB14208D0BB
:10219000064900208B4203D114432000441EA04175
:1021A00070BD05430120002DFAD1F1E7FF070000C3
:1021B00030B5144D0A034B00120B5B0DC90F002400
:1021C000AB4211DD104CA34210DC80246403224397
:1021D0000E4CE41A1F2C0CDD0D48C31ADA40130014
:1021E0005C42002900D11C00200030BD094BCC18F6
:1021F000FAE7094DE040AC4663449A4013000343BC
:10220000EEE7C046FE0300001D040000330400009A
:1022100013040000FFFFFF7FEDFBFFFF10B5041E5E
:1022200025D000F07FF8144B1B1A5B055B0D0A28C4
:1022300012DD0B38844000222403240B00211000FF
:1022400024030A0D240B120522430C4C1B052240CB
:1022500013435B00590810BD020021001532914064
:102260000A000B21081AC4402403240BE6E70023CC
:1022700000240022E2E7C0461E040000FFFF0F809A
:102280004100090E4B1C70B5DBB24602750AC40F43
:10229000012B14DDE0239B006D07360BCB180021CA
:1022A0000A0D280012051C4D32435B052A405B08CD
:1022B00013435B00E4075B082343190070BD00294A
:1022C00014D1002D1ED0280000F02CF80A281CDCA8
:1022D0000B232A001B1ADA40030015339D400F4BD5
:1022E00012031B1A5B05160B5B0DD8E7002D06D0F9
:1022F000320B802636036D071643094BCFE7084B98
:102300000026CCE700230026C9E703002A000B3B88
:102310009A400025E3E7C046FFFF0F8089030000D5
:10232000FF0700001C2101231B04984201D3000C6D
:1023300010391B0A984201D3000A08391B09984238
:1023400001D30009043902A2105C40187047C0464E
:10235000040302020101010100000000000000006E
:102360000023C25C0133002AFBD1581E704710B510
:1023700004F05AF800F02AF810BD0000002110B552
:10238000080002F0F7FF02210D4803F079F90D4B28
:1023900001221978002800D104220A4302201A7071
:1023A00000F03EF8084C206001F008FC022000F02C
:1023B00037F8206001F0A8FC00F0FAF9F6E7C04613
:1023C00000600B40F9000020F4000020FA2110B555
:1023D0000F4B89001868FDF7A1FE0E4B013898429B
:1023E00015D80D490D4A4860C020136A00061B022B
:1023F0001B0A0343136200238B6007330B608021A9
:10240000136AC9051B021B0A0B43136210BDFEE7CA
:10241000D4000020FFFFFF0010E000E000ED00E02E
:10242000F7B5D94E04003778042F27D0012F27D0D5
:1024300004252F4222D00024D44B22000821D44866
:102440001C7003F0E1F822004021D24803F0DCF8D0
:1024500022002900CE4803F0D7F822002021CC48E2
:1024600003F0D2F88022CC4B9205DA67BFF34F8F8E
:10247000BFF36F8F200003F021FB34700020FEBDFE
:102480003A004021002003F00BF900220821C04847
:1024900003F000F900224021BE4803F0FBF83A00A7
:1024A0000821BB4803F0B0F83A004021B94803F0D6
:1024B000ABF8642000F0D8FA3A004021002003F085
:1024C000EFF83A000821B24803F0E4F80022402176
:1024D000B04803F0DFF83A000821AD4803F094F863
:1024E0003A004021AB4803F08FF8380000F0BCFA06
:1024F00000220421A64803F087F800222021A448E6
:1025000003F082F802222021032003F0C9F80921F8
:10251000A24800F053FDA24B9C4DC018802380B20E
:102520009B00984200D92F702F78002F35D10122BF
:102530002021032003F0B4F801220421944803F081
:10254000A9F83A002021924803F0A4F801220421BE
:102550008F4803F059F8012220218D4803F054F8E8
:102560003A0008218A4803F04FF83A004021894890
:1025700003F04AF802224021380003F091F80621C6
:10258000864800F01BFD864BC018802380B29B005C
:10259000984272D9FF3BFF3B2B702F78032F32D12B
:1025A00000F02CFA012201904021002003F078F87D
:1025B00001220821764803F06DF800224021754879
:1025C00003F068F801220821714803F01DF8012288
:1025D0004021704803F018F8002204216C4803F0F1
:1025E00013F8002220216A4803F00EF8022220216D
:1025F000380003F055F80921684800F0DFFC0F2887
:102600003DD804232B702F78042F00D087E00320BF
:1026100000F02AFA002C4ED101224021200003F0C4
:102620003FF8012208215A4803F034F822004021E3
:10263000584803F02FF801220821554802F0E4FF22
:1026400001224021534802F0DFFF01222021032014
:1026500003F026F8220039004D4803F01BF8002251
:1026600020214B4803F016F801223900484802F0B7
:10267000CBFF0122202146484FE003238CE700F0E6
:10268000BDF9019BC01A474B9842B4D900220821DA
:102690003F4802F0B9FF002240213E4802F0B4FF5B
:1026A000002204213A4802F0AFFF002220213848DE
:1026B00002F0AAFFA7E7012C44D122002021032029
:1026C00002F0EEFF22003900314802F0E3FF002261
:1026D00020212F4802F0DEFF220039002C4802F0B2
:1026E00093FF220020212A4802F08EFF2200402181
:1026F000002002F0D5FF22000821254802F0CAFF81
:1027000022004021234802F0C5FF22000821204872
:1027100002F07AFF220040211E4802F075FF2B785C
:10272000013B012B09D880221F4B92051A60012022
:1027300003F0C4F91D4800F019F90223327813435D
:1027400033709BE6022CEAD101224021002002F0E6
:10275000A7FF012208210E4802F09CFF0022402121
:102760000C4802F097FF01220821094802F04CFFB3
:1027700001224021074802F047FF012220210320C7
:1027800002F08EFF012266E7F9000020F800002029
:1027900000600B4000000B4004E100E0000001403D
:1027A00000FEFFFF1405000000E100E0FC00002037
:1027B000324B10B5002B06D0314800F0EDFD00285B
:1027C00001D000E000BF2F4B002B06D02E4800F0B8
:1027D000E3FD002801D000E000BF2C4B002B06D009
:1027E0002B4800F0D9FD002801D000E000BF294BA4
:1027F000002B06D0284800F0CFFD002801D000E0D3
:1028000000BF264B002B06D0254800F0C5FD002850
:1028100001D000E000BF234B002B06D0224800F07F
:10282000BBFD002801D000E000BF204B002B06D0EC
:102830001F4800F0B1FD002801D000E000BF1D4B93
:10284000002B06D01C4800F0A7FD002801D000E0B6
:1028500000BF1A4B002B06D0194800F09DFD002840
:1028600001D000E000BF174B002B06D0164800F047
:102870005AF8002801D000E000BF10BD00000000A1
:1028800078040020000000009404002000000000F4
:10289000B004002000000000CC0400200000000074
:1028A000E8040020000000000405002000000000F3
:1028B00020050020000000003C0500200000000072
:1028C0005805002000000000FC00002013B56B46F6
:1028D0000268D9710733546819000122A04716BD58
:1028E0003F20704713B56B46DC1D200000F0B2FAA4
:1028F000012801D1207816BD01204042FBE713B525
:102900006B46DC1D0121200000F086FA002801D072
:10291000207816BD01204042FBE710B500F0B6FA62
:102920000128FBD110BD10B500F0A8FA10BDF7B515
:102930004D424D4107000E00019200F0ADFAEDB29C
:102940000124002803D000F0AEFA4440E4B2002D88
:102950000AD1002C08D10199300000F013FA0028A8
:1029600001D101237B60FEBD0020FCE7044B10B5C4
:102970001A78002A03D101321A7000F0BDFA10BD96
:1029800015030020FA2370B580220025084C9B0017
:10299000A360084B65600833290052000648236095
:1029A00003F03CFE84239B00E5500433E55070BDEA
:1029B000FC000020046700000C010020024A13689C
:1029C000013313607047C0461803002010B500F0B3
:1029D00070F800280DD10221064802F051FE064B86
:1029E00001221978002800D104220A431A70FFF747
:1029F000E5FF10BD00600B40F9000020014B186896
:102A00007047C04618030020F7B5144801238446D8
:102A1000134A144996684C680568A40E1C4001933B
:102A200090684B68019F9B0E3B4067463F689C4205
:102A30000FD1BD420DD186420BD36419FA255068DF
:102A40003C210130801BFDF769FBAD006C43001990
:102A5000FEBD3D001C000600E2E7C0461803002052
:102A600010E000E000ED00E0F7B58025070000264B
:102A70000E4C6D02A368019323682B432360BE4272
:102A80000BD380256D02A368019A934204D900F00C
:102A90000FF823682B42F6D0F7BD00F009F8236841
:102AA0002B405A1E9341F618E9E7C04610E000E0BB
:102AB00070470020704700000123054A1360054A53
:102AC0001360054A13600022044B1A607047C04629
:102AD0000C0000201000002008000020240300202B
:102AE0000122014B1A607047080000207047000067
:102AF0000122014B1A6070470C0000200122014B9B
:102B00001A607047100000208388002B43D1427860
:102B1000C388212A34D0222A10D0202A3BD11E4A31
:102B2000C2611A1C082B00D9082292B2026202224A
:102B3000431DDA77194B013A1A7008E0002B06D1D1
:102B40000221421DC3610362D177144A1370827857
:102B5000134B1A70104A11689622D20091421AD172
:102B60001B78DB0717D480230E4A9B051A60BFF33E
:102B70004F8F0D4B0D4ADA60BFF34F8FC046FDE714
:102B8000054AC2611A1C082B00D90822012392B2FF
:102B900002620530C3777047000000201403002054
:102BA0001C030020F5FAAA5500ED00E00400FA0528
:102BB0008288C378022A15D1212B02D0222B0BD078
:102BC00070470F4B1B68C268D318C36109230362A7
:102BD00001230530C377F3E70A4B1B68C3610A4B37
:102BE0001B88F4E7032AEBD1212B06D0222BE7D157
:102BF000064B1B68C361064BF2E7064BE2E7C04693
:102C0000201F00202C1F0020281F00203C1F002018
:102C1000341F0020301F002010B5446802680300F4
:102C2000002094420BD09868825C01200A701A68D8
:102C3000D96801321A608A4201D100221A6010BD9F
:102C4000030010B54268DC6801320068A24214D16A
:102C50000200501E82410020D2B282420CD05A683B
:102C6000986881545A68D96801325A605A680120BC
:102C70008A4201D100225A6010BD5A680132121AEC
:102C8000E7E7F7B50E000C0001908D18A71BAC42CA
:102C900006D021000198FFF7BFFF01340028F5D1CD
:102CA0003800FEBDF7B507000D000C008B1801932E
:102CB000019B661B9C4206D021783800FFF7C0FFBD
:102CC00001340028F4D13000FEBD426803689A4206
:102CD00002D34068C01A70474268C0681018F9E70C
:102CE00070B50E4E4022310003F0B4F80C4C0D4D7F
:102CF00020602800FFF7E9FF802322685B00181A94
:102D0000904205D9226831002800FFF7CBFF70BD43
:102D10008020000102F070FFF9E7C0462803002080
:102D2000200300206803002000220C4B1A605A6028
:102D30000B4A9A6080225200DA600A4B83600A4B89
:102D400083610A4B43620A4B03630A4B43630A4B9A
:102D500083630A4BC3630A4B036470476803002014
:102D600078030020B92A0000B12B0000092B0000D5
:102D7000E12A0000ED2A0000E12C0000F12A000009
:102D8000FD2A0000F7B5070000200D00814237D072
:102D900001901C4E3368002B0AD11B4B1B4918684D
:102DA000FDF7BCF91A4C4443E408316800291FD0F0
:102DB00000232C003360402D00D94024390022002C
:102DC000012002F0D5FF019B2D1B1B183F1801931A
:102DD000002DDED1402809D10E4B1D60306801283E
:102DE000FCD100210A00316002F0C2FF019807E027
:102DF000013CDAD201200A00306002F0B9FF200065
:102E0000FEBDC04608000020D400002040420F0054
:102E10007011010024030020F8B50D4C0600636812
:102E200022680D00002793420FD02000FFF74DFFCE
:102E30000200A84200D92A0031002000FFF721FF3C
:102E400007008020000102F095FE3800F8BDC04662
:102E50006803002010B5084A5368146851680023BD
:102E6000A14206D0516893685B18013B1B78037040
:102E70000123180010BDC0466803002010B50248A9
:102E8000FFF723FF10BDC04668030020014B186800
:102E90007047C0460800002010B503F023FA431E17
:102EA0009841C0B210BD10B503F01CFA0638434279
:102EB0005841C0B210BD000010B5024803F022F81E
:102EC00010BDC046401F002007B500236A4613719D
:102ED000C022920000926A466846537102F0D2FA0C
:102EE000012002F0BBFA012002F0C2FA0028FAD059
:102EF000012002F0DBFA07BD30B585B001AC0C2231
:102F00000021200003F08AFB802304255B426371CB
:102F10006570A26881336168019802F059FBFFF780
:102F2000D3FF1E4C1E4A230088331A601D4A1378B3
:102F3000012B22D15278002A29D11B4A13731B4836
:102F400000F096FD1A48FFF7EFFE200002F0CCFFDC
:102F50008022184B92051A60C72080001A58164923
:102F60001140C02212020A431A50012002F0A6FDAD
:102F7000200003F095F905B030BD022BDFD1527867
:102F8000002ADAD0012ADAD1074B1D73D7E7022ACB
:102F9000D5D1054B01321A73D1E7C046401F00203E
:102FA000D41F00202A1F0020A8000020481F002056
:102FB0007C1F002000E100E0FF00FFFFF0B50026CD
:102FC00085B002AB03AD2E803200DE8024230400E6
:102FD00002F0F1F9394B1F78012F03D133003A0089
:102FE00031001FE0002F53D10126354B31001A006C
:102FF00078331878793212780309000799400192E2
:10300000000F022202F04CFB019B20009A002D4B86
:103010009B1859783200C908242302F0CCF93B00F0
:1030200002223900284802F0B9F90121200002F0FB
:10303000E0F90421200002F0F5F90028F9D004217C
:10304000200002F0F6F90021200002F0DCF91B4B11
:1030500028801B78012B13D00121200002F0D3F926
:1030600002ABD880DA882B889A4223D92B8802AA0F
:10307000D188180389B2C01AFDF7DAF880B2288027
:103080002000002102F0D8F9288880B205B0F0BDF8
:1030900030212000394002F0DAF9242301220F21E7
:1030A000200002F088F90121200002F0C5F9330068
:1030B000022295E7054B2B80E2E7C0461400002072
:1030C0009C6A0000506A000000000140FF0F0000F1
:1030D000007C704710B5036889B25B6A984710BDE1
:1030E00070B50400037C002083420CD089B2606973
:1030F000802502F091FC6D002900606902F091FCCE
:103100000028F9D0012070BD0300027C002082421B
:1031100013D01A7E82239B005A430B4B81219B18AC
:103120008022890092009A185B18106819688842FA
:1031300004DB12681868801AFF307047186813683B
:10314000C01A0138F9E7C046A40F0020002330B5AB
:10315000027C9A4216D08223017E802581209B002A
:103160004B430B4A8000D318AD0018185B19046854
:103170001B689C4208D082235B004B4300681B18ED
:103180005B009B5A180030BD01235B42FAE7C04642
:103190007C0500200023084A4360083202600C22AC
:1031A000FA23417651439B008360044BCA585B1855
:1031B0001B7A42610376704728670000186B000095
:1031C000F0231840203843425841800270470F23B3
:1031D00003400020012B03D08020032B01D180006D
:1031E00070474000FCE70000F0231B0118408023DB
:1031F0009B00984205D0044BC01843425841C0027E
:103200007047C0204001FBE700FDFFFF0C23F0B535
:1032100004248BB002911600427E4F4F5A434F4B0D
:1032200005009B189A791C5705925A79DB7901920F
:103230009B00DA5D1207120F0392017E4848425C40
:10324000002A37D1013242542A74029A002A34D01B
:103250000122FB5C1B099A406B460492198A039B6E
:10326000002258033F4BC01802F0D7F90121059BFB
:1032700006229B00F85C0027030900079940000F15
:1032800002F00EFA06220499039802F009FA0021CE
:10329000019802F06DF9019802F07EF90299FCF7AD
:1032A0003DFF314B0137984209D9F9B2019802F03C
:1032B0005FF9F0E72A7C002AC7D10BB0F0BD029B72
:1032C00030000693FFF783FF06AB98803000FFF7CE
:1032D00077FF06ABD8803000FFF786FF06AB18817A
:1032E000002306A96869099302F054FB01222121F9
:1032F000686902F0A6FB0321FF232140C9008B402F
:103300008022DB438A40002C19DB1F200121204052
:10331000814016480160A408A4002418C020800041
:1033200021580B401A43225068690122002102F003
:1033300091FB01226869110002F08CFBBDE70F21AF
:103340000C40083C0A49A408A4006418E1690B4039
:103350001A43E261E8E7C0469C6A0000186B00006F
:103360007405002000000B40FFFF000000E100E0BA
:1033700000ED00E0892210B55200FFF747FF10BDB5
:10338000802381229B009200C3588058181A01D5CF
:103390000130FF307047000010B50300027C0020B0
:1033A000824207D082201B7E80005843024BC01807
:1033B000FFF7E6FF10BDC0467C05002010B50300F6
:1033C000027C0020824207D082201B7E800058436E
:1033D000024BC018FFF7D4FF10BDC046A40F002059
:1033E000812380229B009200C158825810B59142DF
:1033F0000AD0C258C4585200125A611CFF2C00D186
:103400000021C150100010BD01204042FBE7000028
:1034100010B50300027C0020824207D082201B7E70
:1034200080005843024BC018FFF7DAFF10BDC046BA
:103430007C050020F8B5037C0400002B36D0EFF3A8
:1034400010831B4E002B1AD08227BF00207E7843AA
:103450003018FFF795FF002820D0207E78433018E1
:10346000FFF7BEFF85B280216069490002F0D9FAFA
:103470000028F8D02900606902F0CEFAE6E782253C
:10348000AD00207E68433018FFF77AFF0028F8D19E
:103490008021606902F0C5FA002807D180256D00FF
:1034A0002900606902F0BDFA0028F9D0F8BDC046D5
:1034B000A40F0020F8B50D002021040002F0B7FA97
:1034C00000280CD00821200002F0ABFA002806D01A
:1034D000200002F0A3FA0821200002F0AEFA012138
:1034E000200002F0A4FA002828D02021200002F0B9
:1034F00098FA002822D0200002F090FA82239B0044
:103500001A0080266A432149B6008A189219166863
:10351000721CFF2E00D1002281266B43B600CB180F
:103520009E193668964209D08026B6009B19FC3E4B
:103530006E431F681A60F619760088530221200036
:1035400002F075FA002816D08021200002F069FAF6
:10355000002810D082239B005D430D4BED182800FE
:10356000FFF70EFF061E07D02800FFF739FF81B2D4
:10357000200002F051FAF8BD2000802102F05DFA2F
:1035800032000221200002F05CFAF4E77C05002002
:10359000A40F002010B5037C002B03D0017E4069EE
:1035A000FFF788FF10BD000010B50548FFF7F2FFD8
:1035B0000448FFF7EFFF0448FFF7ECFF10BDC046DB
:1035C00078040020040500205805002010B50248AA
:1035D000FFF7E0FF10BDC046CC04002010B5024844
:1035E000FFF7D8FF10BDC046E804002010B506481C
:1035F000FFF7D0FF0548FFF7CDFF0548FFF7CAFFEB
:103600000448FFF7C7FF10BD9404002020050020E8
:103610003C050020B0040020F8B50400037C002025
:103620000E00834242D08021606902F0FAF9404DD9
:10363000002829D18227BF003B008022207E9200F3
:103640004343EB189B181A68802301325B009A42AF
:1036500000D100223B00812143438900EB18591817
:103660000968914223D10221606902F0E0F9002843
:10367000E2D08021606902F0D4F90028DCD0217EFC
:103680006069FFF717FFD7E78220237E8000584349
:103690002818FFF775FE0028CCD13100606902F0D0
:1036A000BBF96069802102F0C8F90120F8BD8022D1
:1036B00092009B181B68591CFF2B00D1002182230C
:1036C00081229B0043439200EB189A1812688A42A9
:1036D00009D0802292009B18FC3A42431F6819606F
:1036E000D2195200AE52EFF31083002B1AD082276A
:1036F000BF00207E78432818FFF742FE0028D0D074
:10370000207E78432818FFF76BFE86B2802160691F
:10371000490002F086F90028F8D03100606902F013
:103720007BF9E6E701220221606902F08AF9B8E735
:10373000A40F0020F8B50024802725007F00244E28
:103740003A00A6193000002102F068FF80239B0098
:10375000F5500433F55004331E4EE418B442EED154
:103760000024270080221C4D5200651900212800EA
:1037700002F054FF80239B00EF500433EF500433DA
:10378000E418B442EED100211448FFF703FD0121F3
:103790001348FFF7FFFC02211248FFF7FBFC03214F
:1037A0001148FFF7F7FC04211048FFF7F3FC05214F
:1037B0000F48FFF7EFFC06210E48FFF7EBFC07214F
:1037C0000D48FFF7E7FC08210C48FFF7E3FCF8BDC4
:1037D0007C050020280A0000A40F002078040020A7
:1037E00094040020B0040020CC040020E804002051
:1037F00004050020200500203C050020580500207D
:1038000000207047F7B506000D000C008B180193DF
:10381000019B671B9C4207D0336821781B683000EE
:10382000984701340028F3D13800FEBD70B504007C
:1038300008000D00FEF794FD2368020029005B6874
:103840002000984770BD10B50B1E02D0FFF7EEFFA9
:103850000300180010BD10B5FFF7F5FF10BD10B53F
:1038600003681B68984710BD10B50249FFF7DEFFDB
:1038700010BDC0466867000070B50400FFF7E3FFA5
:1038800005002000FFF7F0FF401970BDF0B58BB0C8
:103890006B461500002205330600DA770800012D7B
:1038A00000D80A2509AC2900FCF7BEFCCAB21300F7
:1038B00037330700DBB2092902D813003033DBB2FB
:1038C000013C2370002FEED121003000FFF7BBFF39
:1038D0000BB0F0BDF7B51E0008AB1B7831000193AB
:1038E0000500330010001700FEF746FC4B49002886
:1038F00014D10122740064085242494B380021005F
:10390000FEF73AFC00280FD10122454B5242380005
:103910002100FCF799FD002806D142492800FFF755
:1039200085FF04002000FEBDE0223F4B1206380058
:103930003100FCF793FD002801D03C49EEE7E0227E
:103940003B4B120638003100FCF774FD0028F4D11F
:103950000022002338003100FCF76CFD041E07D064
:103960002D212800FFF77BFF802304001B06F6189B
:10397000002300202F490093019B009A934208D016
:103980002D4B0022FDF734FA009B0133DBB200938C
:10399000F2E733003A00FCF70FFF0F000600FCF7D8
:1039A00071FD0A22019001002800FFF76FFF009BC4
:1039B0000419002BB6D00198FEF730FC02000B0072
:1039C00030003900FEF790F806000F0028002E2185
:1039D000FFF745FF2418009B013BDBB20093FF2B50
:1039E000A0D0154B002230003900FDF70BFE0F0070
:1039F0000600FCF747FD0A22010001902800FFF7AE
:103A000045FF24180198FEF709FC02000B00300066
:103A10003900FEF769F806000F00DCE75C6700007C
:103A2000FFFFEF7F60670000FFFFEF41646700006A
:103A3000FFFFEFC10000E03F0000244037B51D004C
:103A4000069BDBB200932B00FFF744FF3EBD37B56A
:103A500019000400069B2000DBB200930B00FFF767
:103A600039FF05002000FFF7FFFE40193EBD0000B2
:103A7000044B0360044B4360044B83600423C36026
:103A80007047C046A8000020280000201800002031
:103A900070B5334C2000FFF7E7FE32492000FFF7F6
:103AA000DAFE314D280000F0A5F93049002800D198
:103AB0002F492000FFF7E0FE2E492000FFF7CBFE44
:103AC000280000F088F9072809D8FCF71DFB1F1D06
:103AD0001B191517080428492000FFF7CDFE2749B8
:103AE0002000FFF7B8FE280000F06EF9032813D875
:103AF000FCF70AFB33312F0E2149EDE72149EBE7B3
:103B00002149E9E72149E7E72149E5E72149E3E7D9
:103B100021492000FFF7B0FE20492000FFF79BFE5F
:103B20001F4D20002900FFF796FE29002000FFF717
:103B300092FE2000FFF798FE1A492000FFF79CFE36
:103B400019492000FFF798FE18492000FFF794FE5E
:103B500070BD1749DDE71749DBE71749D9E7C046CC
:103B600078040020AD670000CC1900209C6700009D
:103B7000A4670000C3670000D9670000E068000088
:103B800011680000376800005B6800007F68000073
:103B9000A3680000C7680000FB6800001C69000003
:103BA000376900003B6900007A690000B9690000CC
:103BB000046900000C69000014690000E12170B57F
:103BC0000E4C49022000FFF7D5FBFA250C492000D6
:103BD000FFF752FEAD00682300220321094800F0E0
:103BE000A7F9002807D108492000FFF745FE280063
:103BF000FEF73AFFEFE7FFF74BFF70BD78040020B8
:103C0000FA690000CC1900200A6A0000F0B5384CAF
:103C100087B038492000FFF72FFE374E03A8310048
:103C200000F0B6F90398FEF72BFB022502000B000B
:103C300000952000FFF702FF304F20003900FFF70A
:103C40000AFE310003A800F0A3F90498FEF718FB60
:103C5000009502000B002000FFF7F0FE3900200065
:103C6000FFF7F9FD310003A800F092F90598FEF77F
:103C700007FB009502000B002000FFF7DFFE204F3E
:103C800020003900FFF7E7FD310003A800F0DAF962
:103C90000398FEF7F5FA009502000B002000FFF7ED
:103CA000CDFE39002000FFF7D6FD310003A800F05B
:103CB000C9F90498FEF7E4FA009502000B00200011
:103CC000FFF7BCFE0F492000FFF7C5FD310003A838
:103CD00000F0B8F90598FEF7D3FA009502000B0042
:103CE0002000FFF7B4FE0A20FEF7BEFE07B0F0BDCD
:103CF00078040020F8690000CC19002076690000E3
:103D0000746900007369000010B5FFF77FFF10BDF4
:103D1000012307B501930023D2B2009300F0BAFD4E
:103D20000EBD000070B50E000500104C016F2000A4
:103D300000F0E0FB3100200000F0ACF90121200090
:103D400000F0D2FC296F200000F0D4FB296F012283
:103D5000C9B22000FFF7DCFF200000F013FD0500D2
:103D60000121200000F0C0FCE8B270BD401A002024
:103D700070B50E000500134C016F200000F0BAFB77
:103D80003100200000F086F90121200000F0ACFC99
:103D9000296F200000F0AEFB296F0122C9B220007C
:103DA000FFF7B6FF200000F033FC0028FAD0200017
:103DB00000F0E8FC05000121200000F095FCE8B2CD
:103DC00070BDC046401A002010B51C21FFF7D0FF7F
:103DD000C006800F10BD10B56B21FFF7C9FF072388
:103DE000184010BD10B51400FFF7C2FF0123204199
:103DF000184010BD10B506226B21FFF7F3FF10BD70
:103E000070B50E001500094C016F200000F072FB28
:103E10003100200000F03EF92900200000F03AF9BE
:103E20000121200000F060FC70BDC046401A002057
:103E300070B505000C00032906D80800FCF764F9EA
:103E4000021315170B4B2B6628001B21FFF790FF61
:103E500018230200E4009A4322432800D2B21B2117
:103E6000FFF7CEFF70BD044BEDE7044BEBE7044BCF
:103E7000E9E7C0463F1EFA3B70227A3CDFBFF93CBF
:103E8000ECC0793D70B505000C00032906D8080088
:103E9000FCF73AF9021315170B4B6B6628001C212F
:103EA000FFF766FF18230200E4009A43224328002C
:103EB000D2B21C21FFF7A4FF70BD044BEDE7044B09
:103EC000EBE7044BE9E7C04640DA7F3840DAFF38D9
:103ED00040DA7F3918F5FF3970B50D006B21040009
:103EE000FFF746FFF82202402A436B212000FFF72C
:103EF00087FF70BDF8B517000D001E000400FFF726
:103F000037FF0121B94002004BB29A43D2B2002ED2
:103F100001D00343DAB229002000FFF771FFF8BD9A
:103F200010B50B0006226B21FFF7E4FF10BD000067
:103F3000F8B50400036715480F00160000F0BCFA3E
:103F40002200002300256C32E3632364636475213F
:103F50001570200023636363A363A366FFF7E2FE8B
:103F6000682810D101212000FFF7B6FF390020009A
:103F7000FFF75EFF31002000FFF784FF29002000DB
:103F8000FFF7CEFF01352800F8BDC046401A0020DB
:103F9000F0B50D002A4C85B0096F0600200000F036
:103FA000A9FA3B21200000F075F80121200000F063
:103FB0009BFB296F200000F09DFA2B6F0622D9B2DF
:103FC0002000FFF7A5FE200000F022FB0528FADD07
:103FD000200000F0D7FB0700200000F0D3FB00908A
:103FE000200000F0CFFB0190200000F0CBFB0290FE
:103FF000200000F0C7FB0390200000F0C3FB6B46DD
:10400000040018783F02384300B2FCF78BFB6A4685
:10401000019B2860107A1B02184300B2FCF782FB58
:10402000039B68601B02E0B2184300B2FCF77AFB06
:104030003300A86007CD07C3300005B0F0BDC0460F
:10404000401A00207FB50C00050001A8FFF7A0FF73
:10405000666E2168301CFCF733FA0D49FCF730FA24
:104060006168A061301CFCF72BFA0949FCF728FABB
:10407000A168E061301CFCF723FA0549FCF720FA3F
:104080002B002062183407CC07C3280004B070BD91
:104090000AE81C4113B56B460268D97107335468AE
:1040A00019000122A04716BD030010B58A331B7802
:1040B000002B10D04C2288300078084942438A18DF
:1040C000946C536C9C4206D026234343926C9B18FD
:1040D0005B00585A10BD01204042FBE7EC1D002058
:1040E000030010B58A331B780400022B05D1200091
:1040F000703000F09BFF0028F9D010BDF0B501240E
:104100000023270085B002938930039302783B4B4C
:10411000D2009B185A799B79394E9B0001939B5D85
:1041200000921D071B099F402D0F39002800220017
:1041300001F0B6FAB9B22700324B6803C01822006A
:1041400001F07CFA009A9200935D00921D071B0912
:104150009F402D0F22003900280001F0A1FA294BC1
:104160006D03ED18BFB23900280001F08FFA22006C
:104170003900280001F048FA029B092B3BDC2100A2
:10418000019B204FF05C030999400007C00B89B2E6
:10419000C01901F075FA051E2DD12100009BF05CBD
:1041A000030999400007C00B89B2C01901F070FAE9
:1041B0000395154D039BAB4204DCC046039B0133C2
:1041C0000393F7E72100009BF05C03099940000787
:1041D0000C4BC00BC01889B201F058FA00230393AE
:1041E000039BAB4203DCC046039B0133F7E7029B12
:1041F00001330293C0E705B0F0BDC0466C6A000011
:104200009C6A000000000B40CF070000FA2370B545
:10421000002604009B0083600D4B4660083303605A
:1042200018300D0000F00AFC230070331E735D7619
:104230005E732200074BED00E9585D1923008C32B4
:104240001160EA7988331A70034A2000DA6070BD81
:104250002C6A00006C6A0000A86100000300F7B53A
:104260008A3301911C78012C52D1394B2500994297
:1042700005D900242500374B8B426541EDB28C30C7
:104280000368354A0600934249D1002C41D00221EF
:10429000002001F06DF9002001F07EF90090C022AD
:1042A000376812023B68082613408022D2019342ED
:1042B00009D0802201361202934204D05A4253415F
:1042C000033E5B421E40254B1868002C3AD024491F
:1042D000FBF724FF142504000920019B5D43009B8C
:1042E00029005843FBF71AFF801B031B0B20019387
:1042F000009B29005843FBF711FF019B861B341BD1
:10430000E643D843F617C0171840344038617C6143
:10431000F7BD0121002DBBD129002800B9E70021FC
:10432000104A00919342BAD18C4205D00231080064
:1043300001F01EF90220AFE70121002D00D1290074
:104340000220F5E7002D01D00749C1E70749BFE783
:10435000C0270900804F120000800440D4000020D4
:104360000048E801009004400024F40000127A00A4
:10437000F0B507003A00893212780300454DD200AB
:10438000AD183E00042288331878434CAA5699365B
:10439000235C89B031700F3E079204966A79AD793B
:1043A000002B02D03378002B56D04B1E5E1EB3413B
:1043B000049E0133337023543B0092331970002163
:1043C0000126364C03939200013B1970135DAD003A
:1043D0001807020F059232001B099A4006920699AF
:1043E0000722059801F05CF92B5D07221D071B09C8
:1043F0009E402D0F3100280001F052F93C006A4622
:10440000059B6D035803264B118BC018ED18049BB8
:10441000B6B21B788C34012B20D1002201F0FDF8BC
:1044200000223100280001F0F8F81E4B1E491868E0
:10443000039B3E001B781D4D0393FBF76FFE183660
:104440000190009521683000039B079A00F002FB61
:1044500029003800FFF702FF09B0F0BD022201F089
:10446000DCF831002800022201F0D7F83B004C2292
:10447000380088331B7803995A4309780C4B019113
:104480000C49D318521800927030079A216800F036
:10449000C5FDE1E76C6A0000E81D00209C6A000091
:1044A00000000B40D400002000127A00A08601001A
:1044B000841E0020EC1D002010B50121FFF758FFDD
:1044C00010BD000003008A331B78002B0ED00300C0
:1044D000012291331A70013B19704C238830027805
:1044E0005A43034B9B1800225A649A647047C04693
:1044F000841E002010B5C9B2FFF7E4FF10BDF0B56F
:1045000004008BB0080003A94A60220025008B60DC
:10451000002394321268183503902800CB600B6199
:104520004A614B7600F0F2FB280000F0DDFA00282B
:10453000FAD0013805282AD8FBF7E6FD2B09072910
:104540000903022528000BB0F0BD0325FAE723007C
:1045500098331B780525002BF4D026002300012278
:104560008C36306893331A7007694369019301F000
:10457000EFF92000FFF7C2FD2300993319782000DE
:10458000FFF7F6FE3368019A1F615A61DAE70425E6
:10459000D8E70025D6E7030010B58A331B78002B37
:1045A00004D0012B03D1183000F0C2FB10BD030072
:1045B000703302694169180000F064FDF6E70000FD
:1045C00010B50648FFF7E7FF0548FFF7E4FF054889
:1045D000FFF7E1FF0448FFF7DEFF10BDDC1A002003
:1045E000781B0020141C0020B01C002010B50348CC
:1045F000FFF7D1FF0248FFF7CEFF10BD401A0020A1
:104600004C1D0020436C806C181A00D52130704777
:1046100002000300002010B58A321278824207D0CF
:1046200088331B784C305843024BC018FFF7EAFF21
:1046300010BDC046EC1D00200300F7B58A331B787F
:1046400005001600002B38D0012B31D10300913327
:104650001B78002B32D00C008B180193019B9C42DD
:104660002CD02B008833009318784C235843144FD8
:10467000C019FFF7C7FF1F2820DC4C22009B1B78C6
:104680005A43BA18526C0132212A00D100224C211F
:1046900059437918886C904208D0486C844626208B
:1046A0004343207863445B00F8524A640134D5E701
:1046B000703000F0D0FC002800D000263000FEBD95
:1046C000841E0020826C436C9A420AD0836C5B008B
:1046D0001A5A836C0133212B00D10023836410000C
:1046E000704701204042FBE7F0B504008BB0019118
:1046F0002022002102A801F091FF23008A331B78B9
:104700000420002B03D0012B03D00425E8B20BB00A
:10471000F0BD002527004C2388373878184E5843C1
:104720008019FFF76FFF00280AD04C2338785843D0
:104730008019FFF7C7FF02AB58550135202DE9D18D
:1047400022009032ABB21178200002AAFFF7D7FE08
:104750004C233A7845B253432200F6180023913295
:104760007364B3641370042DCFD0019B002B01D16F
:10477000002DCBD08C34206801F02CF8C6E7C04661
:10478000841E0020030010B58A331B78002B08D04C
:10479000883003784C205843034BC018FFF792FF32
:1047A00010BD01204042FBE7EC1D0020F0B595B0A4
:1047B000019102920600202200210CA803930024FC
:1047C00001F02CFF4C253300883300931878304FCC
:1047D0006843C019FFF716FF00280AD0009B18781D
:1047E0006843C019FFF76EFF0CABE0540134202C76
:1047F000E9D1019B05A905930CAB4B60029B3500E9
:10480000CB60039B18350B61330094331B688C60BD
:104810004B61002328004B769C420ED000F082FAB8
:10482000280000F061F90028FAD0013805282AD8BC
:10483000FBF76AFC060C0A290C2B00F06DFAEFE777
:104840000024200015B0F0BD0324FAE733009833AC
:104850001B780524002BF4D03500330001228C3561
:10486000286893331A7007694369009301F070F860
:104870003300993319783000FFF77AFD2B68009ADE
:104880001F615A61DDE70424DBE70224D9E7C04653
:10489000841E0020F0B58DB0039312AB1E7813ABCD
:1048A0001B780191029303008A331B7804000025D2
:1048B000012B6AD1171C202A00D92027FFB2002E15
:1048C00019D001992000FFF7FDFD351C032E00D9FA
:1048D0000325EDB2013DEDB2FF2D08D00399EB00A9
:1048E000D9402368C9B21B6820009847F2E700212D
:1048F0002000FFF7F9FEBBB204AA01992000FFF7E0
:1049000055FF40B200283BD00025042807D0029B69
:10491000012B04D123008C33186800F05BFFAF42F9
:1049200033D14C2300209C46194E85422DDD2300B7
:1049300088331F7863467B43F3185B6C0133212B6C
:1049400000D1002362467A43B218916C99421CD080
:10495000526C0132212A00D100226146794371183C
:104960008B6C93420AD04B6C4A64019326237B43A1
:10497000019FDB1904AFC75D5B00F7520130D4E73C
:10498000029B3D00012BCCD1C4E728000DB0F0BD47
:10499000EC1D002070B5212600241E4D32000021A0
:1049A000280001F03BFE6C643200AC6421001A4820
:1049B00001F034FE2B00943590331C602C60174DB1
:1049C00032002100280001F029FE32006C64210031
:1049D000AC64134801F022FE2B00943590331C6028
:1049E00021002C600F48FFF711FC01210E48FFF752
:1049F0000DFC02210D48FFF709FC03210C48FFF7CD
:104A000005FC04210B48FFF701FC05210A48FFF7CC
:104A1000FDFB70BDEC1D0020381E0020841E002010
:104A2000D01E0020401A0020DC1A0020781B002035
:104A3000141C0020B01C00204C1D0020030000218D
:104A400010B5040054331970542201F0E7FD200022
:104A500010BD00007FB503250160FF211540ED006A
:104A60000400A9408020C943A840002A29DB1F2652
:104A700001251640B540194E3560920892009219F2
:104A8000C026B6009559294008439051002201A93B
:104A90000B81089B0A804B60099B8A702068CB7051
:104AA00000F03EFE012220680D4900F098FE2068CB
:104AB000012100F0E5FE80212068090200F0EEFEF1
:104AC0007FBD0F252A40083A064D920892005219E0
:104AD000D56929400843D061D8E7C04600E100E02D
:104AE0000507010000ED00E070B5050055352B7895
:104AF0000400002B08D0FDF787FFA36CA36CE26CC9
:104B0000C31AD31AE364A064E36B0420012B20D002
:104B1000636C0130012B1CD0E06A43425841E36CC6
:104B2000C0B2002B0FDC2B78002B0CD00022802190
:104B3000E2628900206800F052FE8021206889002E
:104B400000F082FE0220636B012B03D100230320BF
:104B5000636370BDA36B012BFBD100230620A3630D
:104B6000F7E770B5802504002D032900206800F0C8
:104B700065FE012812D1230055331B78002B08D085
:104B8000FDF742FFA36CA36CE26CC31AD31AE36473
:104B9000A064E36C002BE8DC022070BD0020FCE781
:104BA000F7B50400006804270669456900F0D0FEE7
:104BB000094B0A491868FBF7B1FAE757084B01900F
:104BC00000933A00012321682000FFF743FF236888
:104BD0001E615D61F7BDC046D400002000127A005E
:104BE000A08601000023F7B5019303680400DE6886
:104BF000036C0D00012B0FD1FDF706FF80270190FC
:104C00003F03FDF701FF019BC01A312804D8236838
:104C1000DB68BB42F5D1F7BDC0235B031E40802398
:104C20001B039E4202D12000FFF7BAFF0023364A41
:104C3000A3601360AA682600E2606A68636122616B
:104C40002A695536A261EA68E2612A682262297EF1
:104C5000621DD1770122E2622363A3636363E3638E
:104C6000236463646B69002B08D032703278002AA9
:104C700006D0E364E36C002B02DCFEE73370F5E75B
:104C80006B7E01212365206800F09AFDFDF7BCFED4
:104C90008021A0648900206800F0D6FD80210122D7
:104CA0008900206800F09BFD2B7E013B012B27D85B
:104CB000802101228902206800F091FD0023A36277
:104CC000236AA26A99B2206800F09CFD236B002B36
:104CD000A1D1A36B012B9ED03378002BF6D0FDF72A
:104CE00093FEA36CA36CE26CC31AD31AE364A064B2
:104CF000E36C002BEADC0021206800F061FD8AE70C
:104D00008023DB00DBE7C0461C1F0020012310B519
:104D10000B76FFF767FF10BD002310B50B76FFF78A
:104D200061FF10BD022310B50B76FFF75BFF10BDCE
:104D300070B50C210400006800F075FD8021C900E9
:104D4000084205D00123E363206800F07DFD0BE0FD
:104D5000C3050AD52000FFF723FF0121206800F0DA
:104D60002FFD0123E363236470BD80210901084204
:104D700002D001236364E7E780239B00984203D1BC
:104D8000012301006363DFE7430702D501232363A7
:104D9000EAE7C8235B0398423DD033D86C4B984276
:104DA0006AD00ED880235B02984276D00F2108404B
:104DB000DAD1684A13680133632B00D9C1E013606C
:104DC000D2E7654B98425BD0644B9842EED180218C
:104DD0002068890000F038FD236D002B08D02000EA
:104DE000FFF7BFFE0228BFD00021206800F0E8FCDA
:104DF000220054321378012B00D09FE00021117063
:104E0000A363B1E7E8239B0398425ED02FD8E82341
:104E10005B039842CAD12300022254331A70A3695B
:104E20006269023B9A4203D10021206800F0E0FC55
:104E3000E369626920689D1800F0F2FC28706369DC
:104E400001336361236D002B09D02000FFF789FE39
:104E5000022800D188E70021206800F0B1FC6369D6
:104E6000A269934200D07FE70023E3627CE73C4BDA
:104E700098422AD03B4BA8E701235434237073E7B0
:104E80002300022254331A70A369012B00D86BE768
:104E90000121206800F0ACFC66E7230002225433B5
:104EA0001A70A3696269023B9A4203D1002120680B
:104EB00000F09EFCE369626920689D1800F0B0FC78
:104EC00028706369013363614EE723000322543382
:104ED0001A70E5682068002D0BD02369A268995CE0
:104EE00000F09CFCA3680133A360E368013BE3602E
:104EF0003AE780212A00890200F071FC631DDB7F04
:104F0000012B0FD1E562236D002B00D12CE720008F
:104F1000FFF727FE022800D126E72900206800F0CD
:104F20004FFC21E7022B00D01EE78022236AD2002B
:104F3000A26299B2206800F065FC15E70123636363
:104F400012E710602000FFF72BFE0123E3630BE75D
:104F5000010018001C1F00200400180000021800A7
:104F600004003A0000023A007FB5032501600C00FE
:104F7000FF211540ED0002718360A9408020C943E4
:104F8000A840002A35DB1F2601251640B5401F4EDC
:104F90003560920892009219C026B60095592940B2
:104FA0000843905101A90B8180235B0201930023E8
:104FB0002000029300F0B4FBFA21154BC9001868D9
:104FC000FBF7ACF80100200000F04EFCE0212000CF
:104FD000C90200F04FFC2000012100F037FC200046
:104FE000012100F0EDFB01220A49200000F0F7FB4F
:104FF0007FBD0F252A40083A074D920892005219AA
:10500000D56929400843D061CCE7C04600E100E003
:10501000D4000020060F060000ED00E010B503618B
:10502000029B4361039BFFF79FFF10BD10B5006912
:10503000FFF7E8FA43425841C0B210BD436C013358
:10504000212B00D10023826C9A4203D0426C520083
:1050500011524364704770B5060014000D003069AA
:10506000FFF7D0FA202808DC002C06D02978306918
:10507000FFF7E4FF013C0135F1E760426041C0B257
:1050800070BD0000F7B5066804000F0030000C2169
:10509000019200F0C8FB8021C9000500084202D03F
:1050A000300000F0D1FB802149000D4202D03000D9
:1050B00000F0CAFB802109010D4202D0300000F04F
:1050C000C3FBAB072CD5EB0324D5300000F0A8FBC5
:1050D0006269536C0133212B00D10023916C9942FA
:1050E00003D081B21000FFF7A9FF0021300000F0CB
:1050F0007FFB002F06D0237B002B03D16069FFF7D5
:1051000081FAB8470023012163733000237300F054
:105110006FFBF7BD022DE8D0374B9D42F9D1E4E794
:1051200080212B0089000B40009303D0300000F059
:105130008BFBEEE780229202EB0319D52F4B2B401D
:10514000934212D001236373300000F069FB62695F
:10515000536C0133212B00D1009B916C9942D8D024
:1051600081B21000FFF76AFFD3E76B03D1D5EBE7FD
:10517000154233D0637B002B07D0002F03D060692A
:10518000FFF740FAB84700236373237BDBB2002BA1
:1051900008D1226953649364019B002B00D0984787
:1051A000012323732069FFF72DFA002188420ED0D6
:1051B0002369986C5A6C90420DD09A6C5200D05A68
:1051C0009A6C0132212A00D10A009A64C1B23000DF
:1051D00000F024FB9DE701204042F7E76B0798D4DD
:1051E000300000F0B5FB0422A368A256216820001D
:1051F000FFF7BAFE8DE7C046060008000400020073
:10520000294885462948804729488047002103E0EE
:10521000284B5B58435004312748284B42189A4288
:10522000F6D3274A02E0002313600432254B9A424A
:10523000F9D301F0CFF9FDF7A1F8FEE722480169A3
:10524000002908D14169002905D18169002902D1CD
:10525000C169002909D01D48C1680901090D00294B
:105260000ED005290CD006290AD0BFF34F8F18485D
:105270001849016018491748C860BFF34F8FFEE70F
:10528000134801681348884200D0704713481449F6
:1052900001600F48134901607047FEE7FEE7FEE733
:1052A000FEE7FEE7FEE70000008000203D52000020
:1052B000F56200009C6B000000000020D800002078
:1052C000D80000202820002000030840800108406A
:1052D000000000200400FA0500ED00E00081084015
:1052E000010000000000000070B503250E0004005E
:1052F0002E400B00054024D0002E20D0013A511C36
:1053000000D170BD2178013A197061785970A17887
:105310009970E1780434D9700433F0E76078A578A7
:1053200000022D0426784019E57880192D069E008C
:1053300028188851013304349A42EFDCE1E7330046
:10534000FAE7002E14D19200043A131DD9D08358E5
:105350008B50F9E78C0004590131250A1C705D70EF
:10536000250C240E9D70DC7004338A42F2DCC8E701
:105370002900FAE7024B1940024B08439860704736
:1053800080FFFF1F00ED00E080230268002902D0AB
:105390001343036070479A430260FBE730B58025F2
:1053A0000468013A2C4021431202013B0A431B04CA
:1053B0001A43026030BD0CB410B5032402AB1B7855
:1053C0009A082340A3401C349C40994092008018C6
:1053D0004268A2431143416010BC08BC02B01847A8
:1053E0001F230A0099431A40026741677047016210
:1053F00070470123426F002902D01343436770476F
:105400009A434267FBE70C318900085880B2704725
:105410000430C36F002A02D01943C16770478B4321
:10542000C367FBE7883000680840411E8841C0B26E
:1054300070478C3001607047A0300123026800295A
:1054400002D01343036070479A430260FBE73022A7
:10545000A030036893431943016070470821034A51
:10546000C00053688B431843506070470080084069
:10547000034B9B681840431E9841C0B27047C0461A
:105480000080084010B5074A03791168064C5B029A
:1054900021400B431360936901681B0C1B040B43F1
:1054A000936110BD00800840FFFDFFFF034A0449DF
:1054B000136880020B40184310607047008008405A
:1054C000FFFBFFFF07228240814010B5024CA36A18
:1054D00093431943A16210BD0080084010B5012418
:1054E0000C4B1A68D9695868400A204010D09A6954
:1054F0000948120F2240D040002909DB9A69520165
:10550000120F00D110329B6950435B029B0FD840B1
:1055100010BDC0460080084000127A0070B5124EDF
:105520000400756BFFF7DAFF0300206007202840B6
:105530000138062816D8FAF7E7FD05040415150FFB
:1055400012000A4B63606268316A1300CB40042981
:1055500000D95309A36070BD80231B02F2E7FA2330
:10556000DB01EFE70023EDE70080084000127A003E
:105570004309084A9B0010B59B182E2800D1023918
:105580001F2210401C3A824081401C6894432143F2
:10559000196010BD388008401FB504001F210B4B57
:1055A000420992002E3CD21863425C4108401C39EB
:1055B0008140630014680C40C44001A8E418FFF760
:1055C000ADFF0398E04004B010BDC04638800840ED
:1055D000F0B50C4C85B001900291039207000E00CB
:1055E000606A1500E16A226B002B07D1B843B14312
:1055F000AA436062E162226305B0F0BD38433143E3
:105600002A43F6E7008008400368002A02D01943C5
:10561000016070478B430360FBE730B5CD4384687E
:10562000C3682C402B40002A04D0012A04D0846097
:10563000C36030BD0C43FAE70B43F8E74368002A28
:1056400002D01943416070478B434360FBE700235E
:10565000F0B51D001C0003270126314205D01600BD
:105660009E4034433E009E40354302334908202B80
:10567000F2D14369AB434361436923434361F0BDC6
:10568000C0690840411E8841C0B2704741627047FE
:1056900081627047002A01D0416270478162FCE755
:1056A000F7B51E4BC000C018CBB20192002B10D032
:1056B000002301221D001C0094460E006246E640B5
:1056C000164223D10134082CF7D10468AC4323439C
:1056D0000360FF231B02194217D000230F271D0070
:1056E0001C000E008022E6405200164206D03A000E
:1056F000A600B2401543019AB24013430134082C6E
:10570000EFD14268AA4313434360F7BD0F27A600B9
:10571000B7403D43019FB7403B43D3E720200240C1
:10572000F7B50E000B78497802680B43B178040096
:105730000B4385218A4313430360338983601E4BE7
:1057400000209C4204D01D4B00279C4203D1022024
:10575000FFF722FF0700C0222368120213408022B5
:105760000825D201934209D08022013512029342CA
:1057700004D05A425341033D5B421D40142309208B
:10578000726878435A4311000092FAF7C7FCF67822
:10579000401B831B0B20009978430193FAF7BEFC52
:1057A000019B451BAE1BD843F543C017ED172E4098
:1057B000184020616661F7BD0080044000900440FD
:1057C00008230268002902D01343036070479A43FC
:1057D0000260FBE7022302681343036070474368DB
:1057E000002A02D01943416070478B434360FBE7B6
:1057F00001230268002902D01343036070479A43D3
:105800000260FBE7022310B504681C42FCD1002AA9
:1058100002D08023DB001943C16110BD8161704754
:105820008069C0B27047002382B001930190019B50
:10583000C9180191019B186802B07047C068084000
:10584000411E8841C0B27047C1607047002905D031
:10585000802302685B011343036070470368014AB9
:105860001340F9E7FFEFFFFF836A1B0C1B0419438A
:1058700081627047836A9BB219438162704700005E
:10588000002905D0802302689B0113430360704701
:105890000368014A1340F9E7FFDFFFFF70B5C02539
:1058A0000369426904682D022C408025ED01AC4259
:1058B0001AD080263602B44224D0002C05D1A94249
:1058C0000BD1012B01D9023B023A0361426103680B
:1058D0009B049B0C1943016070BDB142F5D1012BB3
:1058E000F3D9033B033AF0E7002902D10233023235
:1058F000EBE780242402A142E7D1002BE5D0013B55
:10590000013AE2E7002902D103330332DDE7A9427D
:10591000DBD101330132D8E7F0B50C4C85B00190F2
:105920000291039207000E0060681500A168E2680A
:10593000002B07D1B843B143AA436060A160E26085
:1059400005B0F0BD384331432A43F6E700810840F3
:1059500030B585B001AC05000C220021200000F01C
:105960005DFE0A4B9D420BD1012322791343237123
:10597000012301986168A268FFF7CEFF05B030BD32
:10598000034B9D42F4D122790223EFE700800440CB
:105990000090044070B50D0004000B89C96842688E
:1059A0000B43A888E98801430B4315490A40134378
:1059B0006360144B9C421FD009D88023DB059C42B6
:1059C00010D0114B1C209C420DD000200DE00F4B3D
:1059D0009C420FD00E4B9C4210D00E4B9C42F4D1F7
:1059E0001A2000E01820FFF7D7FD2968FAF796FB88
:1059F000606270BD1E20F6E70820F4E70A20F2E797
:105A0000FCE0FFFF002000400010004000100440B8
:105A1000002004400000044001607047006880B22C
:105A2000704700690840411E8841C0B27047C06895
:105A30000840411E8841C0B27047036919400161A6
:105A40007047C368002A02D01943C16070478B4376
:105A5000C360FBE710238B40002A03D04268134346
:105A60004360704742689A434260FAE70B4B0C4A26
:105A700003600C4B426143600B4B0C4A83600C4B40
:105A8000C261C3601223036183610362094B0A4A46
:105A900043621023C2628362036370471D3F0000AC
:105AA000C82000920800018012020000D00001838B
:105AB000880001911001019450210095064B0128A6
:105AC00005D180221968D2000A431A6070471A680B
:105AD00002490A40F9E7C04600800A40FFFBFFFF89
