:020000040000FA
:10000000D8050020C10000002B010000BB05000046
:10001000FFFFFFFFFFFFFFFFFFFFFFFFFFFFFFFFF0
:10002000FFFFFFFFFFFFFFFFFFFFFFFF2F010000AC
:10003000FFFFFFFFFFFFFFFF310100005D0A00002F
:1000400035010000350100003501000035010000D8
:1000500035010000350100003501000035010000C8
:1000600035010000350100003501000035010000B8
:1000700035010000350100003501000035010000A8
:100080003501000035010000350100003501000098
:10009000350100003501000035010000710E00003F
:1000A0003501000035010000350100003501000078
:1000B0003501000035010000350100003501000068
:1000C0001D4880471D4880471D4800471D4801695D
:1000D000002908D14169002905D18169002902D18F
:1000E000C169002909D01848C1680901090D002912
:1000F0000ED005290CD006290AD0BFF34F8F134824
:100100001349016013491248C860BFF34F8FFEE7DF
:100110000E4801680E48884200D070470E480F49CB
:1001200001600A480E4901607047FEE7FEE7FEE7FE
:10013000FEE7FEE7FEE70000CD000000150B000023
:100140006501000000030840800108400000002015
:100150000400FA0500ED00E0008108400100000005
:10016000000000000448854600F022F800480047DF
:1001700065130000C046C046D805002001688D46C2
:100180004168084730B50B46014600202022012473
:1001900009E00D46D5409D4205D31D469540491BBB
:1001A0002546954040191546521E002DF1DC30BD04
:1001B000064C0125064E05E0E36807CC2B430C3CBA
:1001C00098471034B442F7D3FFF7D0FFA0130000D4
:1001D000C0130000F7B50B46009DED00154EAA199F
:1001E000002000240027002120E000240027FF2514
:1001F0008D401D40002D17D000200FE01D46C5404A
:1002000001268E403540002D07D086000F25B540D1
:100210002C438600029DB5402F43401C0828EDD397
:100220001568A5433D431560121D08310829DCDD22
:10023000FEBD0000202002400021416001607047A7
:1002400001460A684B68934201D3981A7047C86800
:10025000801AC018FAE70023036043608160C2601F
:100260007047F7B50E461746002408E0311900988C
:1002700000F00AF80546002D00D102E0641CBC42E3
:10028000F4D300BF2046FEBD10B5024600205368DF
:100290001468A3420DD0146893681B5D0B7013683B
:1002A0005B1C1360D4681368A34201D10023136060
:1002B000012010BDF7B50E461746002400BF08E028
:1002C000315D009800F00AF80546002D00D102E0EB
:1002D000641CBC42F4D300BF2046FEBD30B50246CC
:1002E00000205468641CD568AC4206D11468002C08
:1002F00001D1012409E0002407E05468641C15685A
:10030000AC4201D1012400E00024002C0CD1536840
:100310009568E9545468641C54605468D568AC42CC
:1003200001D100245460012030BD014648680A68AC
:10033000904201D1012070470020FCE770B50446CF
:100340001748406B4607760F00F02EF82060330008
:1003500000F0B0FF081605080B16160E12162068DE
:10036000606010E00F4860600DE00E4860600AE0D9
:100370000120C003606006E07D200002606002E0B2
:100380000020606000BF00BF0548056A052D02D34C
:100390006068400901E06068E840A06070BD00004E
:1003A0000080084000127A00F0B51B480068FF2763
:1003B00001373840040A1848C069C50F164840681C
:1003C0007F003840460A002E01D10020F0BD002CED
:1003D00001D1124800E0114802460F4FBF69FF00EB
:1003E000F80F1746C7403A46012D01D11046EDE7F8
:1003F000094880690F27FF053840C10D002900D149
:1004000010210548806903277F053840430D1046B9
:100410004843D840DAE700000080084000127A0024
:100420007EB50446002560118000094946182E2C2F
:1004300000D10225E406E40E0321A1403068084003
:10044000E04045196846FFF779FF0298E8407EBD15
:10045000388008403FB50E4C606AE16A226B044662
:10046000009DAC4320460C46019DAC4321461446FA
:10047000029DAC432246002B05D0009C2043019CEA
:100480002143029C2243024C6062E16222633FBD31
:1004900000800840F8B504460E46174600250AE0DD
:1004A0002012715D48400090009800F03FFF21024B
:1004B000484084B26D1CBD42F2D32046F8BD000016
:1004C00010B504460348046008200249C86000F0E3
:1004D00011F810BD0000084030B504460D46044830
:1004E0000460456004200249C86000F003F830BD94
:1004F00000000840174A1848406902231843164B69
:1005000058611420186106E0134800690C23184054
:100510000C2800D103E01046521E0028F4D100BF81
:100520000D4881698069022398430B4B9861012033
:1005300040040840002801D00220704702200840F3
:10054000002801D00120F8E7002A01D10320F4E7B8
:100550000020F2E7FFFF0F0000000840002A03D050
:1005600003680B43036002E003688B43036070473A
:1005700030B514468268C36815468D432A461D4629
:100580008D432B46002C04D0012C06D0022C09D11F
:1005900007E015460D432A4605E01D460D432B4650
:1005A00001E000E000BF00BF8260C36030BD002AF0
:1005B00001D0416200E08162704700F099FE0000C6
:1005C0000EB500200090019002900121890400984E
:1005D0008843401800900911019888434018019001
:1005E0000123684607C8FFF735FF0122D102022028
:1005F000FFF7F0FD0122D1020448FFF7D8FF0122E6
:10060000D1020248FFF7AAFF0EBD000000400B40D8
:1006100010B5012040070068214988420BD1002015
:100620000121490708600B20800200F02DF900200D
:10063000C0431C49086001204007006818498842EF
:1006400028D0012000F09EF901281DD1032000F0E0
:1006500099F9002818D101204007406812498842C2
:1006600009D10020012149074860401E0D4908605A
:100670000E49086003E00C4801214907486008481A
:10068000401D012149070860032000F073F9012093
:1006900000F070F9002001214907086010BD00003A
:1006A000F0FAAA5514000020F0FBAA551000002013
:1006B00070B5002000F0E8FA0446002C09D0184874
:1006C0000078002805D1012015490870C820154977
:1006D000086014480068002808D100F0CBFA002018
:1006E0000F490870401E0F49086070BD402C00D2B1
:1006F000FBE740220C49002000F06EFB0A4800F0A6
:1007000051F805462A460849002000F073FB0020F6
:1007100003490870401E0349086000BFE5E7000078
:10072000200000201C000020400000201020124962
:10073000086004E010480068002800DC00E0F9E7E9
:1007400000BF1720002809DBC206D20E012191400C
:100750000A4A1160BFF34F8FBFF36F8F00BF00BF16
:10076000BFF34F8F06480749C860BFF34F8F00BFE4
:1007700000BF00BFFDE700001C00002080E100E09A
:100780000400FA0500ED00E070B504460D4600BF18
:10079000002000F083FA0028FAD12A46214600F012
:1007A00029FB70BDF0B585B00446234804600020E5
:1007B00022490870A078E1780902084301900020DE
:1007C000E070A07040222146FFF764FE0090207880
:1007D000502802DB20784A3820702078082801DB76
:1007E00046251DE000990198884201D0462517E072
:1007F0000020C0431249086012490860002001210E
:10080000490748606078029060680390A06804908F
:100810002678B6000C4FBB5902A807C89847054672
:1008200006490978655405480078401C034908705A
:100830000846007805B0F0BD2C00002030000020F4
:100840001000002014000020801300000B480C4909
:1008500008600C48806800040B2189024018084990
:1008600048603D20800488600520C002C8600548BB
:10087000C068000100090861704700000000011114
:10088000A00000208001084010B5044600F02EF8BA
:10089000012806D100F053F8012802D12046FFF7C5
:1008A0006DFC10BD38B50446002C0ED100F01EF8CA
:1008B000002803D000F043F8002801D1462038BDBD
:1008C000094801214907086004E00748401D01214B
:1008D000490708604F20009001216846FFF754FF48
:1008E000FFF724FF4F20EAE7F0FAAA550B20800219
:1008F000026801204007824202D30848824201D99F
:10090000002070470B2080024168814202D30448D6
:10091000814201D90020F4E70120F2E700800020A5
:10092000FFFB030001460520C002814205D30B20D6
:100930008002814201D2012070470020FCE710B5FF
:100940000523DB021A68501C002800D110BDFF20CF
:100950000130824201D90020F8E71B1D002105E08B
:100960005C58601C002800D1F0E7091D9142F7D3C4
:100970000120EBE701218140014A1160704700002E
:100980000081084001460648006801238B4018405A
:100990000246002A01D0012070470020FCE7000039
:1009A00000810840042806D1064909690422114340
:1009B000044A116105E00349096904229143014A8F
:1009C0001161704700E000E0002803D10021094ACE
:1009D00091610EE0012806D10649096901221143FF
:1009E000044A116105E00349096949084900014ABF
:1009F0001161704700E000E0002806D0064909694F
:100A000002221143044A116105E0034909690222E7
:100A10009143014A1161704700E000E001494861DB
:100A20007047000000E000E010B50420FFF7BAFFB7
:100A3000094908687D21C900FFF7A4FB0446FFF7B8
:100A4000EDFF0120FFF7D8FF0020FFF7BDFF0120D9
:100A5000FFF7BAFF10BD00003C00002010B527488A
:100A60000068002811DD25480068401E2349086001
:100A700008460068002808D121480121490708607C
:100A8000172000F025FC00F033FC1E480068002809
:100A900013DD1C480068401E1A49086008460068BB
:100AA00000280AD116480121490708600020486043
:100AB000172000F00DFC00F01BFC13480068002814
:100AC00004DD11480068401E0F4908600F480068A7
:100AD000002812DD0D480068401E0C4908600846D9
:100AE0000068002809D1FF20F53008600848006A36
:100AF0000121C90248400649086210BD10000020CB
:100B0000F0FAAA55140000201C0000201800002054
:100B100000400B4010205349C8605348006B4021EF
:100B200008435149086300BF504880682728FBD11B
:100B30004D48406A0321890288434B494862084670
:100B400040680121C90208434749486000BF464840
:100B500080680007C00F0028F9D043484068C008EB
:100B6000C000C01C4049486000BF3F48406B400780
:100B7000400F0328F9D13E480068C008C000401C5F
:100B80003B4908600020384908620846406849151A
:100B9000884335494860084600688915084332494A
:100BA000086008464068082188432F494860084685
:100BB0000068491508432C49086008464068091533
:100BC00008432949486000BF274880684007C00F94
:100BD0000028F9D02448006B40218843224908634B
:100BE0000F20C005886108468069490308431E49F3
:100BF000886108460068891588431B4908600846D3
:100C00004068491508431849486000BF1648806885
:100C10008007C00F0028F9D015480068C008C00040
:100C2000C01C1349086000200F490862084640684C
:100C3000C008C000401C486000BF0B48406B400724
:100C4000400F0128F9D10A480068102108430849DB
:100C50000860084600680121090308430449086048
:100C600070470000008108400080084000A1064055
:100C70000002084010B504462101024A8818FFF717
:100C8000DBFA10BDC400002010B504462101024A61
:100C90008818FFF7D5FA10BDC400002010B504462F
:100CA0002101024A8818FFF7CBFA10BDB4000020DA
:100CB000FEB504460E4615460020009001900290B5
:100CC00001218903019888434018019008043B4999
:100CD0000860002C55D1E201394BD1182201394B63
:100CE000D0188022FFF7B7FAE201374BD118220162
:100CF000364BD0188022FFF7AEFAFF210131019860
:100D000088434018019009020098884340180090D9
:100D10000123684607C8FFF79DFB002201218902D5
:100D20002B48FFF725FC0622FF2101310020FFF7A9
:100D300051FA0622012189020020FFF74BFA172001
:100D4000002809DB00BF00BFC206D20E012191407E
:100D5000204A116000BF00BF00BF30220121880778
:100D600000F016F929460120800700F009F9012258
:100D70001102880500F0FAF80120E1000F4A8918F5
:100D80000871E1000D4A5058314600F09BF8E1002F
:100D90000A4A50580122002100F006F9E100074AF2
:100DA00050580122114600F0FFF8E100034A505864
:100DB0000122092100F0DAF8FEBD00003400002015
:100DC000D4000020B400002054010020C400002002
:100DD00000000B4000E100E070B504460D461646E9
:100DE0002101034A881832462946FFF73AFA70BDB6
:100DF000C4000020F7B5044616462101114A8818A0
:100E0000FFF71EFA21010F4A8918C9680F1ABE425E
:100E100001D90020FEBD21010A4A881832460199F5
:100E2000FFF748FA0546002D0AD00020E100064AE7
:100E300089184871E10050580122062100F096F807
:100E40002846E7E7B4000020340000200EB5E1207A
:100E500000030090FF210131684681800021C1809C
:100E600001814181282269460020FFF721FF0EBD44
:100E700010B5002000F07EF910BD02690A40026141
:100E800070470246012905D190680F231B041840C2
:100E9000000C704790680F231B061840000EF8E7FF
:100EA000024610690840002801D001207047002048
:100EB000FCE70246D0680840002801D001207047B6
:100EC0000020FCE7F8B504460D460027264660687A
:100ED00023490840E9880843A98808432989084329
:100EE0006989084360601F49701A8E4217D00ADC76
:100EF0001D48301800280DD001210903401A13D0D5
:100F0000401A25D11AE001210903401A11D0401AD4
:100F10001ED118E01820FFF783FA074618E01A20C0
:100F2000FFF77EFA074613E01C20FFF779FA074621
:100F30000EE01E20FFF774FA074609E00820FFF7CD
:100F40006FFA074604E00A20FFF76AFA074600BF77
:100F500000BF38462968FFF715F96062F8BD000048
:100F6000FCE0FFFF00000440000000C0002A03D0A6
:100F7000C3680B43C36002E0C3688B43C360704720
:100F80004269D209D2010A4380231A434261704761
:100F900030B583684D003024AC40A3434D00144667
:100FA000AC402343836030BD10B5002A05D04368B0
:100FB00010248C402343436004E0436810248C4099
:100FC000A343436010BD0000F8B504460D46164625
:100FD0004F27AD08AD00102E01D9304600E010209B
:100FE0000646A0B232462946FFF754FA044607489F
:100FF0000078801C05490870054909680C70200AB2
:101000000349096848703846F8BD000030000020E8
:101010002C000020F8B506460D4617460A2E03D0D0
:101020000520C002854201D24620F8BD2C4605E0CD
:101030002046FFF745FA012080022418BC42F7D968
:101040004F20F2E770470000F0B593B005460C461C
:1010500016464148006807460C37012D01D0002D87
:1010600002D12046FFF75EFC012D17D112E0206867
:10107000401C002802D0462013B0F0BD204639683D
:10108000FFF72AFA20683968884201D04620F3E742
:10109000241D3F1DB442EAD94F20EDE7022D3CD17B
:1010A0000020119035E0002012900520C0028442FB
:1010B00002D10068129017E02848844203D1001F33
:1010C0004068129010E02548001D844204D105209C
:1010D000C0028068129007E020480830844203D1A3
:1010E0000520C002C06812901199890001AA1298C7
:1010F00050501198401C11901198102802D0201DBA
:10110000B04205D900201190402101A8FFF73CFB17
:10111000241DB442C7D94F20AEE7002D0CD107E003
:1011200020683968884201D04620A5E7241D3F1D6C
:10113000B442F5D94F209FE7032D0BD106E020687C
:10114000401C002801D0462096E7241DB442F6D961
:101150004F2091E74F208FE72C000020042800004B
:1011600010B540210248FFF70FFB4F2010BD0000D3
:10117000A0000020F8B50546E8004B4944180221BC
:101180002068FFF78DFE002801D000BFFEE7802118
:101190002068FFF785FE002831D02901434A8818CE
:1011A000FFF7C3F8002805D0002202212068FFF7CE
:1011B000DDFE24E02079012817D1062612E029015E
:1011C0003A4A88186946FFF75FF868460078216850
:1011D00008602901354A8818FFF7A7F8002800D0D1
:1011E00002E0761E002EEAD109E029012F4A881874
:1011F0006946FFF749F86846007821680860207959
:1012000000280ED120212068FFF74AFE002836D0A2
:1012100022681268D1B22A01254BD018FFF75EF878
:101220002DE040212068FFF73BFE002812D040212E
:101230002068FFF722FE07E022681268D1B22A0177
:101240001B4BD018FFF74AF802212068FFF719FE60
:101250000028F1D120212068FFF722FE00280ED0BF
:1012600007E022681268D1B22A01114BD018FFF7AB
:1012700035F802212068FFF704FE0028F1D104218F
:101280002068FFF716FE00280DD0FF2101312068ED
:10129000FFF706FE002806D0002204212068FFF791
:1012A00065FE01206071F8BD34000020B40000200C
:1012B000C400002030B47446641E2578641CAB4220
:1012C00004D3635D5B00E31830BC18471D46F8E7A4
:1012D000002809DBC206D20E01219140034A1160A9
:1012E000BFF34F8FBFF36F8F7047000080E100E0C6
:1012F000BFF34F8F03480449C860BFF34F8F00BF4F
:1013000000BFFDE70400FA0500ED00E002E008C8B8
:10131000121F08C1002AFAD170477047002001E06F
:1013200001C1121F002AFBD17047000010B5014611
:101330000902002208230EE0084650400124E4037D
:101340002040002803D05000054C604000E05000D1
:1013500002465B1E4900002BEED190B210BD00008A
:1013600021100000FFF754F9FFF75EFBFFF76EFA5C
:10137000FFF726F9FFF76AFD01E0FFF799F9FCE7AF
:101380001510000049100000C90F00006111000095
:10139000A50800004510000000000000000000004B
:1013A000C013000010000020300000000C130000EB
:1013B000F013000040000020980500001C130000FE
:1013C000DC050000F4010000F4010000FFFFFFFF56
:1013D000000000000000000000000000000000000D
:1013E00000000000000000000000000000879303E0
:00000001FF
