:1000000000800020ED7100008772000089720000FE
:10001000FFFFFFFFFFFFFFFFFFFFFFFFFFFFFFFFF0
:10002000FFFFFFFFFFFFFFFFFFFFFFFF8B720000DF
:10003000FFFFFFFFFFFFFFFF8D720000453700004D
:1000400091720000917200009172000091720000A4
:1000500009880000158800002188000091720000C6
:100060009172000091720000917200009172000084
:100070009172000091720000917200009172000074
:10008000917200009172000091720000AD65000055
:10009000D96500009172000091720000CD4400000B
:1000A000F14400000145000011450000917200007C
:1000B00091720000313C00009172000091720000CA
:1000C00010B5064C2378002B07D1054B002B02D02E
:1000D000044800E000BF0123237010BD440100204C
:1000E00000000000488F0000044B10B5002B03D027
:1000F0000349044800E000BF10BDC04600000000F6
:1001000048010020488F000002B4714649084900A8
:10011000095C49008E4402BC7047C0460022430877
:100120008B4274D303098B425FD3030A8B4244D3BF
:10013000030B8B4228D3030C8B420DD3FF22090201
:1001400012BA030C8B4202D31212090265D0030BC0
:100150008B4219D300E0090AC30B8B4201D3CB03B6
:10016000C01A5241830B8B4201D38B03C01A5241F8
:10017000430B8B4201D34B03C01A5241030B8B42FA
:1001800001D30B03C01A5241C30A8B4201D3CB02E5
:10019000C01A5241830A8B4201D38B02C01A5241CA
:1001A000430A8B4201D34B02C01A5241030A8B42CD
:1001B00001D30B02C01A5241CDD2C3098B4201D3E5
:1001C000CB01C01A524183098B4201D38B01C01A63
:1001D000524143098B4201D34B01C01A52410309DA
:1001E0008B4201D30B01C01A5241C3088B4201D389
:1001F000CB00C01A524183088B4201D38B00C01A36
:10020000524143088B4201D34B00C01A5241411A5C
:1002100000D20146524110467047FFE701B5002069
:1002200000F0F0F802BDC0460029F7D076E770472D
:1002300003460B437FD4002243088B4274D3030947
:100240008B425FD3030A8B4244D3030B8B4228D3E8
:10025000030C8B420DD3FF22090212BA030C8B420E
:1002600002D31212090265D0030B8B4219D300E0AE
:10027000090AC30B8B4201D3CB03C01A5241830B33
:100280008B4201D38B03C01A5241430B8B4201D3E3
:100290004B03C01A5241030B8B4201D30B03C01A0C
:1002A0005241C30A8B4201D3CB02C01A5241830A86
:1002B0008B4201D38B02C01A5241430A8B4201D3B5
:1002C0004B02C01A5241030A8B4201D30B02C01ADF
:1002D0005241CDD2C3098B4201D3CB01C01A524146
:1002E00083098B4201D38B01C01A524143098B42CF
:1002F00001D34B01C01A524103098B4201D30B01B8
:10030000C01A5241C3088B4201D3CB00C01A5241DC
:1003100083088B4201D38B00C01A524143088B42A1
:1003200001D34B00C01A5241411A00D2014652413A
:10033000104670475DE0CA0F00D04942031000D359
:100340004042534000229C4603098B422DD3030AAE
:100350008B4212D3FC22890112BA030A8B420CD3BE
:10036000890192118B4208D3890192118B4204D3E7
:1003700089013AD0921100E08909C3098B4201D367
:10038000CB01C01A524183098B4201D38B01C01AA1
:10039000524143098B4201D34B01C01A5241030918
:1003A0008B4201D30B01C01A5241C3088B4201D3C7
:1003B000CB00C01A524183088B4201D38B00C01A74
:1003C0005241D9D243088B4201D34B00C01A52414B
:1003D000411A00D20146634652415B10104601D3D8
:1003E0004042002B00D54942704763465B1000D362
:1003F000404201B5002000F005F802BD0029F8D008
:1004000016E770477047C0468446101C62468C460B
:10041000191C634600E0C0461FB501F089FE0028A4
:1004200001D40021C8421FBD10B501F0E1FD4042DA
:10043000013010BD10B501F07BFE002801DB00206B
:1004400010BD012010BDC04610B501F071FE00289E
:1004500001DD002010BD012010BDC04610B501F027
:1004600003FE002801DC002010BD012010BDC046A5
:1004700010B501F0F9FD002801DA002010BD0120BF
:1004800010BDC0468446081C6146FFE71FB500F05A
:100490008BFB002801D40021C8421FBD10B500F01D
:1004A0000DFB4042013010BD10B500F07DFB00286F
:1004B00001DB002010BD012010BDC04610B500F0CA
:1004C00073FB002801DD002010BD012010BDC046D7
:1004D00010B500F01BFB002801DC002010BD01203E
:1004E00010BDC04610B500F011FB002801DA002055
:1004F00010BD012010BDC0469E2110B5C905041CC9
:10050000FFF7F0FF002803D1201C00F0A9FE10BD6A
:100510009E21201CC90500F0C9FC00F0A1FE80232B
:100520001B069C466044F2E770B500220C4B0400A9
:100530000D00FFF79DFF002804D12000290002F0E4
:1005400035FC70BD064B00222000290002F0CAF8DD
:1005500002F02CFC80231B069C466044F1E7C04659
:100560000000E041F8B54746CE4643025B0A44002E
:10057000C20F9C464800DD004B02240E5B0A000EB1
:1005800080B5984626009146C90FDB00271A8A429B
:1005900029D0002F15DD00284AD1002B00D095E08E
:1005A000ED08FF2C00D188E06B025B0AE6B25B022B
:1005B000F605580A3043D20710430CBC90469946C2
:1005C000F8BD002F00D087E0601CC0B2012800DC1D
:1005D000B6E0EE1A720100D5C5E0002E3DD1002232
:1005E00000260023E3E7002F00DC96E000285DD022
:1005F000FF2C60D08022D20413431B2F00DDECE0DF
:100600002022D21B18009340F8405A1E9341034306
:10061000ED186B017BD50134FF2C00D1B7E001222E
:1006200007262A406B089A4D1D4015432E4029E0AD
:10063000FF2CB5D08022D20413431B2F00DDB2E083
:100640002022D21B19009340F9405A1E93410B43BC
:10065000ED1A6B015BD5AD01AE09300002F01EFD55
:1006600005388640844265DC041B330020200134B9
:10067000E340041BA640751EAE41334307261D0010
:1006800000241E4001224B461A40002E04D00F23A6
:100690002B40042B00D004356B0100D480E70134DB
:1006A000E6B2FF2C2FD1FF26002380E7002B52D18A
:1006B000FF2C00D074E70A00ED08002DF3D0802352
:1006C000DB032B435B025B0AFF2670E7013F002F31
:1006D000BED0FF2CB1D163E7002C47D0FF2869D0F2
:1006E0008024E4047A4225431B2A00DDC5E02C0067
:1006F0002026D440B21A95406A1E954125435D1BC1
:1007000004008946A5E7AB015B0A50E700240122FB
:100710004B461A406B07BAD142E7002F3BD1013458
:10072000E0B201284ADDFF2CBDD00726ED186D0888
:100730002E40A7E70723574D241A35401E40A1E756
:10074000002C1BD1002D6ED1002B00D19AE00A00A5
:100750001D003C0024E7013F002F00D158E7FF2C8B
:1007600000D04AE7A7E75E1B894676E7002D1CD13B
:100770000A00FF281FD004001D0011E7002D5DD1E5
:10078000002B17D180230022DB03FF260FE70A008E
:10079000FF2600230BE7002C21D1002D66D1FF2876
:1007A000E9D11D0087E7012352E77A1CA7D0FA435D
:1007B000FF2899D10A001D00FF24F1E6002E21D167
:1007C000002D4FD0002B4CD0ED186B019ED5314B36
:1007D00007362E4001241D4054E7012318E7FF2867
:1007E000DFD08024E4047F4225431B2F4DDC2026EC
:1007F000F61B2C00B540FC406A1E95412543ED18C0
:10080000040006E7002DCCD0002B00D153E7802157
:100810006046C903084203D04046084200D11D008B
:100820000121114047E7002B00D1B9E6EA1A500137
:1008300025D507265D1B2E40894623E7FF24002B84
:1008400000D1ADE680226046D203104204D040467B
:10085000104201D11D00894601224B46FF241A4057
:100860009EE62B00DD080A0000249DE67A1CC6D017
:10087000FF43FF28B9D11D001DE701253FE7151EE5
:1008800000D044E70022002391E60125B7E7C046E7
:10089000FFFFFF7DFFFFFFFBF8B557464E4645467D
:1008A000DE464402E0B546008846640A360EC70FAD
:1008B000002E63D0FF2E24D08023E400DB041C43F1
:1008C000002399469B467F3E434642465D02D20F37
:1008D0005B006D0A1B0E9046924665D0FF2B55D0EB
:1008E00080220021ED00D2047F3B1543F61A4346D7
:1008F0004A467B400F2A00D98DE06D48920082580D
:100900009746002C54D108239946063BFF269B4668
:10091000DAE70025534602291BD0032900D1BFE0A6
:10092000012928D030007F30002820DD6A0704D05C
:100930000F222A40042A00D004352A0103D53000B2
:100940005C4A80301540FE2803DCAC01640AC2B268
:1009500001E0FF2200246402D205600ADB07104395
:1009600018433CBC90469946A246AB46F8BD0122CE
:10097000101A1B287CDD00220024ECE7002C1DD17E
:1009800004239946033B00269B469DE7FF3E002D2E
:1009900020D1022143464A467B400A430F2AD8D839
:1009A0004548920082589746002D19D10121F1E760
:1009B0000C239946093BFF269B4685E7200002F061
:1009C0006DFB7626431F9C4000237642361A9946DB
:1009D0009B4679E74A4603231A439146032186E75B
:1009E000280002F05BFB431F36189D40763600213D
:1009F0007DE780240023E403FF22ACE70025802369
:100A0000DB031C4228D01D4226D12B435C02640A22
:100A10004346FF229FE762016C01A24224D21B21C0
:100A20000025013E012710006D005200002801DB67
:100A3000944201D8121B3D4301390029F3D114001F
:100A4000621E944125436DE7BA4659462500534638
:100A5000022900D061E77CE78023DB031C436402AA
:100A6000640A3B00FF2276E7121B1A210125D9E711
:100A70009E362A00B5402C00C240651EAC4114438E
:100A8000620704D00F222240042A00D004346201FD
:100A900003D4A401640A00225DE7012200245AE77E
:100AA0008024E4032C436402640AFF2253E7C04617
:100AB000608F0000FFFFFFF7A08F000070B54200BD
:100AC0004E024C0045026D0A120EC30F760A240E28
:100AD000C90FFF2A0FD0FF2C11D00120A24200D055
:100AE00070BDB542FCD18B420DD0002AF8D1280050
:100AF000451EA841F4E70120002DF1D1EBE70120CC
:100B0000002EEDD1E9E70020EAE7C04670B54A00C3
:100B10004E02450244006D0A240EC30F760A120EDF
:100B2000C90FFF2C15D0FF2A0ED0002C15D1002A9A
:100B300001D1002E1CD0002D14D08B4227D00220D2
:100B4000013B1840013870BD002EEED0022040421B
:100B5000F9E7002DFAD1FF2A0ED0002A0ED1002E7F
:100B6000EDD00BE001230139994308000130EAE799
:100B70000020002DE7D0E2E7002EE7D18B42DED146
:100B8000944205DD0221581E08400138DBE70024AD
:100B9000A24204DCB542D2D80020B542D3D2581EBE
:100BA000012398430130CEE730B5420044024D02A4
:100BB000C30F4800640A120E6D0A000EC90FFF2A07
:100BC00012D0FF280CD0002A12D1002819D1002DF4
:100BD00017D1002C2BD00220013B1840013826E011
:100BE000002DF0D0022022E0002CFBD1FF281FD0E6
:100BF00000281FD1002D1DD10220013B18400138D3
:100C000015E0002C0ED08B42E5D10022904204DC8E
:100C1000AC42E0D80020AC4209D2581E01239843D0
:100C2000013004E00123013999430800013030BD4F
:100C3000002DD7D18B42CED18242E7DD0221581E52
:100C400008400138F3E7C046F0B54E4657464546E2
:100C5000DE46E0B543025B0A450083B00F1C9946AF
:100C60002D0EC60F002D57D0FF2D24D08020DB0085
:100C7000C0041843002381469A469B467F3D7C0270
:100C80007A00FB0F640A120E984623D0FF2A4BD03D
:100C9000E30080240020E4047F3A1C43AD186B1C61
:100CA00047460193534677403A000F2B48D87D4979
:100CB0009B00CB589F46002B00D085E008339A4616
:100CC000063B9B467C027A00FB0FFF25640A120E4E
:100CD0009846DBD1002C00D090E0524601231A4305
:100CE00092460120DBE74C4658461700022824D0E4
:100CF000032800D1CFE00022002301284DD1580263
:100D0000D205400AFF071043384303B03CBC90466D
:100D10009946A246AB46F0BD002B5BD104239A4610
:100D2000033B00259B46AAE7FF35002C60D15246C5
:100D300002231A4392460220B1E7FF220023DEE796
:100D40004B461B0C9C464B462604360C1804614649
:100D50003300220C6446000C43434E43504354433B
:100D600080191A0C1218964203D9802149028C4628
:100D700064441B041B0C1004C01883015E1EB341A5
:100D8000800E1843130C1B199B0103431C00230105
:100D900079D5012362081C401443019A7F32002A4E
:100DA0004DDD630704D00F232340042B00D004340F
:100DB000230103D53C4B019A1C408032FE2ABCDC47
:100DC000A3015B0AD2B29AE70C239A46093BFF259E
:100DD0009B4654E7180002F061F94A46431F762506
:100DE0009A4000236D4291462D1A9A469B4646E74B
:100DF000524603231A439246032050E7200002F094
:100E00004DF9431F2D1A9C40763D002047E7802373
:100E10000027DB03FF2272E7424666E74C463200BA
:100E2000584662E780234A46DB031A4222D01C421E
:100E300020D123435B025B0A4746FF225FE7012381
:100E40009A1A1B2A21DC23000199D3409E318C4041
:100E50001A0023005C1EA34113435A0704D00F223B
:100E60001A40042A00D004335A0111D49B015B0AB2
:100E7000002244E780234A46DB0313435B025B0AFC
:100E80003700FF223BE7019587E70022002336E782
:100E90000122002333E78023DB0323435B025B0A49
:100EA000FF222CE7E08F0000FFFFFFF7F8B5474671
:100EB000CE464400C20F80B547024802400A84462D
:100EC000664648007F0A240EF60025009046FB0087
:100ED000000EC90FB146FF2800D185E00126714000
:100EE000261A914257D0002E43DD002800D07FE023
:100EF0004946002900D1AAE0013E002E00D0F7E0CB
:100F00005B1A5A0100D48BE09B019C09200002F07F
:100F1000C5F805388440854200DDD3E0451B230039
:100F200020200135EB40451BAC40621E9441234319
:100F3000072400251C40012241460A40002C04D011
:100F40000F211940042900D00433590100D480E056
:100F50000135ECB2FF2D00D0A3E0FF2400235B029B
:100F6000E405580AD207204310430CBC904699462A
:100F7000F8BD002E74D1601CC0B2012800DCA7E0CF
:100F80004A469C1A620100D5B6E0002CBED1002270
:100F900000240023E3E7002E00DC85E0002846D093
:100FA000FF2C49D080224846D204104381460122BA
:100FB0001B2E09DC20204C46801B84404A46200022
:100FC000F240441EA04102439B185A0128D5013526
:100FD000FF2D00D1A8E00122072494491A405B08A4
:100FE0000B4013431C40A6E7002E00D078E775E7BE
:100FF000FF2C54D080224946D20411438946012255
:101000001B2E09DC20214846891B88404A460100E6
:10101000F240481E81410A439B1A5A0100D573E7EA
:10102000012241460A40590700D089E711E04846AD
:10103000002858D1FF2C0CD1DB08002B00D18CE705
:101040008020C00303435B025B0AFF2487E7FF2C79
:1010500025D0DB08FF2DF0D05B025B0AECB27EE707
:10106000002C4DD0FF2818D08024E4047242234382
:101070001B2A00DDC4E01C002025D440AA1A93409E
:101080005A1E934123434A460500D31A884638E73F
:10109000721CF8D0F243FF28EAD10A004B46FF2524
:1010A000D7E79B015B0A5AE7002E41D1651CE9B2E4
:1010B000012945DDFF2D00D14FE707244B445B0894
:1010C0001C4038E707225A4B2D1A2340144032E7C0
:1010D000002C1DD1002B7AD14B46002B00D191E082
:1010E0000A000025B5E7013E002E19D14B446CE7FC
:1010F000FF2C84D1FF25ACE74A468846D41A05E781
:10110000002BC5D10A00FF28C8D005004B46A0E738
:10111000002B49D14B46002B77D00A00FF2598E7DA
:10112000FF2C00D043E787E70A00FF24002316E7DF
:10113000002C15D1002B57D1FF28E6D14B467BE779
:10114000002C20D1002B57D04946002953D04B44C6
:101150005A0168D50724364A1C4001251340EAE6A7
:10116000FF28EBD08022D204764213431B2E53DC9F
:101170002025AD1B1A00AB40F2405C1EA341134377
:101180004B44050021E7002BD8D04946002900D167
:1011900052E78021C9030F4200D14DE76046084263
:1011A00000D049E74B4647E74846FF25002800D1D5
:1011B0004FE78022D203174204D06046104201D18B
:1011C0004B46884601224146FF250A4041E74846F2
:1011D00000281FD01A1A500120D54A460724D31AD6
:1011E0001C4088460025A6E6741CC9D0F643FF289B
:1011F000BCD14B4620E799464B460025DB082BE740
:10120000012340E700220023A9E680230022DB031C
:10121000FF24A4E600251CE70123B1E7002AF1D052
:1012200013000025FCE60025FAE6C046FFFFFF7D1F
:10123000FFFFFFFB42024B0240004900520A5B0ADB
:10124000090E000EFF2806D00020FF2902D1180049
:10125000431E98417047FE38002AFBD1F4E7C04690
:1012600041024200C30F490A120E00207E2A0DD906
:101270009D2A0CD8802000040143952A0ADC962080
:10128000821AD1404842002B00D108007047034A1F
:101290009818FBE7963A9140F4E7C046FFFFFF7FBE
:1012A00070B500283DD0C317C5185D40C40F280095
:1012B00001F0F4FE9E22121A962A07DCD2B2082808
:1012C00033DD083885406802400A23E0992A0BDDA7
:1012D000052329001B1AD94003001B339D402B0016
:1012E0005D1EAB4119430D00052801DD431F9D40E4
:1012F0002B000F490B406E0709D00F263540042DF7
:1013000005D004335D0102D59F220B40121A9B01C8
:10131000580AD2B24002D205400AE40710432043E3
:1013200070BD002400220020F4E76802400AF1E7C3
:10133000FFFFFFFB70B5041E34D001F0AFFE9E220C
:10134000121A962A07DCD2B208282EDD083884400B
:101350006002400A21E0992A09DD030021001B33C5
:1013600099404B1E994105231B1ADC400C4305286C
:1013700001DD431F9C4023000D490B40650709D048
:101380000F252C40042C05D004335C0102D59F228C
:101390000B40121A9B01580AD2B24002D205400AF1
:1013A000104370BD00220020F7E76002400AF4E716
:1013B000FFFFFFFBF0B54F464646D6460C0009033B
:1013C000C0B5490A470F5E0039431F03DB0F9C4637
:1013D00065007B0A570F1F436D0DE40F760DA14684
:1013E000C000B846D200AB1B64457BD0002B5FDD4C
:1013F000002E00D0A4E03E00164300D112E15E1E94
:10140000002E00D09EE1871A4346B8428041012554
:10141000C91A4042091A0B0200D431E149024E0AAE
:10142000002E00D16EE1300001F038FE0300083BD1
:101430001F2B00DD61E120223900D21A9E40D140ED
:101440009F400E439D4200DD51E15D1B6B1C1F2B35
:1014500000DD7CE12021C91A3D0030008F4088402A
:10146000DD40791E8F41310007222843D9400025F5
:1014700007433A40002A09D00F233B40042B05D0F4
:101480003B1DBB42BF417F42C9191F000B0200D464
:1014900026E26A1CC64B55056D0D9A4200D106E145
:1014A000C44AFF080A40530752023B43120B8EE026
:1014B000002B00D0B8E06B1C5B055B0D012B00DC42
:1014C00030E1871A4346B842B641CB1A76429E1B9A
:1014D000330200D54CE13B003343A1D1002200246C
:1014E000002570E0002B00DCE5E0002E00D183E059
:1014F000AF4EB54260D0802636043743B846382B0D
:1015000000DC3EE1434613431F007A1E97413F181B
:1015100087428041404209180B0200D4B0E0A44B3E
:1015200001359D4200D1C3E0A24A7B080A40012157
:101530000F401F435108D30707221F433A4099E742
:101540009B4EB54238D0802636043743B846382BF8
:1015500000DDDCE01F2B00DC30E11E004746203EB2
:10156000F740BC46202B04D04026F31A46469E4046
:101570003243170063467A1E97411F43CCE0002B8D
:1015800000D104E24346134300D159E14B07C008A0
:1015900018438023C9081B03194208D04546ED08AB
:1015A0001D4204D14346D008590708432900420F81
:1015B000C9007F4D1143C0004B07CA087C49C008D1
:1015C00003438D4268D012036D05120B6D0D00218F
:1015D00012031800130B0A0D12051A43764B2D0542
:1015E00013402B435B00E4075B08234319001CBC3A
:1015F00090469946A246F0BD3E00164312D05E1EAC
:10160000002E00D000E187188742804141444042CB
:10161000091801250B0233D5022585E764463300FE
:10162000414610001D00C7E7002D00D0DAE00C0095
:101630000443F3D05C1C00D19FE15D4CA64200D175
:101640002FE1DB43382B00DD66E11F2B00DD83E15A
:1016500020240500E41A0F00DD40D940A040434695
:10166000A7405B1A441EA04198462F433843171ADF
:10167000BA42924143465242991A64463500CAE63C
:1016800007223A40002A00D0F6E64B07CA0848492C
:10169000FF083B438D4296D11900114300D19EE1D2
:1016A000802109030A431203120B414D8FE71500F5
:1016B000002200238BE7002B00D0C7E06B1C5F05E6
:1016C0007F0D012F00DCF1E0394DAB4200D1B9E0D4
:1016D00085180A008542894142444942511807222F
:1016E000CF076D082F4349083A401D00C2E6072284
:1016F0003049ED1A31403A40BCE63E002838864079
:1017000000279FE6380001F0C9FC20308EE64346F2
:1017100013431F007A1E9741C71BB84280414042C5
:10172000091A78E60E003B0006431343002D61D1F1
:10173000002E00D0F4E0002B00D11BE164463900FC
:10174000100039E71A4FBB427AD03300FFE6300071
:101750001F3DE840202B03D04021CB1A9E40374349
:101760007B1E9F41072207433A400021002589E75D
:10177000171A4346BA42B641591A76428E1B64463E
:101780004EE61F2B00DDADE020264746F61AB74097
:10179000B9461700B246DF404E463E433700564634
:1017A000B240561EB24117434246DA408918AEE6AF
:1017B000FF070000FFFF7FFFFFFF0F802026474647
:1017C000F61AB740B9461700B246DF404E463E43D0
:1017D00037005646B240561EB24117434246DA40E1
:1017E000891A99E77F4CA6425BD0802424045B428F
:1017F000214327E7002E0CD1002B00D1CBE064461B
:1018000039001000774DD7E6764FBB4218D0330031
:1018100075E6002B14D04B07C00818438023C90875
:101820001B03194207D0FC081C4204D17907D008D9
:101830000843E14621004C46420FC9001143C00055
:10184000684DB9E61D0000220023C0E6002D5BD1E3
:101850000D00054300D1E2E65D1C00D1B0E0614D12
:10186000AE421FD0DB43382B71DC1F2B00DD96E02E
:1018700020250F00ED1AAF40B9460700AA46DF4009
:101880004D463D432F005546A840D940451EA8412E
:1018900088440743BF189742924151424144350062
:1018A0003AE6644635004146100085E60B000343E6
:1018B000002D00D063E6002BF5D04346134300D142
:1018C0007AE687188742804107224144404209183E
:1018D0003A400B0200D4D5E6434B01351940C9E527
:1018E000380069E61E004746203EF740BC46202BE4
:1018F00004D04026F31A46469E4032431700634602
:101900007A1E97411F4302E6364DAE42CAD080256B
:101910002D045B422943A6E70843411E8841A6E601
:10192000002B00D148E6871A4346B842B641CB1A8D
:1019300076429E1B33024BD5171A4346BA42924158
:10194000591A5242891A072264463A4092E50143E5
:101950000F00791E8F419DE71C000F00203CE740DF
:10196000202B03D04024E31A99400843411E8841AC
:1019700038437CE60022002425E6171A4346BA4283
:101980009241591A5242891A6446350043E541464C
:101990001000144D10E680220024120380E61D0082
:1019A0000F00203DEF40BC46202B03D04025EB1A12
:1019B0009940084307006346781E87411F4369E743
:1019C000871897429B4141445B42C9183500A3E503
:1019D0003B003343CED0072231003A4052E6002389
:1019E0001A00F4E5FF070000FFFF7FFFF0B5574640
:1019F000DE464E464546E0B5834607000E034800E6
:101A000085B092461C00360B400DCD0F002800D14A
:101A10009DE0954B984239D08023F6001B041E436D
:101A2000924A7B0F334399469446030063440093E4
:101A300000230026FF00029323031B0B984663003C
:101A4000E40F52465B0D019400D1B3E086498B420E
:101A500000D19EE04246D100802212040A43514642
:101A6000490F11438B46814952468C460099634485
:101A7000CB1A0021D20000932B0063409A460F2E10
:101A800000D905E17A4BB6009B599F465B4633432C
:101A9000994600D0B8E00223082600270090029360
:101AA000CAE7CB463A0002990195019B9A46022962
:101AB00027D0032900D180E2012944D06D49009B41
:101AC0008C4663441C00002C38DD530700D013E221
:101AD000D2085B46DB0109D55946674B19408B4656
:101AE0008021C9008C46009B63441C00634B9C42D0
:101AF00007DC5B4664055F075B0217431B0B620D47
:101B000002E000230027584A00211B031C0B0B0D89
:101B10001B05234314055A4A380013401C435346FF
:101B20006400DB0764081C43210005B03CBC904600
:101B30009946A246AB46F0BD0122524201231B1B2F
:101B4000382B00DCADE1002200230027DCE75B46F8
:101B5000334399465ED0002E00D18AE1300001F077
:101B60009DFA03000B3B1C2B00DD7BE11D22D31AE9
:101B70005A460100DA4008398E4013005F4633436D
:101B800099468F403F4B00261B1A00930023029377
:101B900052E7414653460B433B499B468C46009BCC
:101BA000634400935B46002B3BD1022300221E437B
:101BB000022161E7434613439B4637D04346002B3F
:101BC00000D162E1404601F069FA03000B3B1C2B97
:101BD00000DD53E102004146083A914088461D214C
:101BE000CB1A5146D9400B0041460B439B46534606
:101BF00093401A00009B25499C46604403008C4694
:101C000063440093002137E70323B14600900C267C
:101C1000029311E700230093013304260027029367
:101C20000AE70323C3461E43032125E701331E436E
:101C30000022012120E700239A46802300271B036E
:101C4000094A61E7802349461B03194200D1E2E0BB
:101C50005946194200D0DEE00B431B0317001B0B53
:101C6000A246014A50E7C046FF07000001FCFFFF03
:101C700020900000FF030000FFFFFFFEFE070000B2
:101C8000FFFF0F800DFCFFFF01F8FFFFF3030000D3
:101C9000D94500D9CBE000D1C6E03C00484600273A
:101CA000009B013B00935B46160E1B021E43130272
:101CB000984633041B0C9946310C0191FEF7B4FA97
:101CC0004A4642430B04210C050019438A4207D9B6
:101CD0008919013D8E4203D88A4201D9851E89198E
:101CE000881A0199FEF7A0FA09048C464A46210495
:101CF00064464243090C030021438A4204D98919EE
:101D0000013B8E4200D8F1E02D041D43AB46434613
:101D1000891A4246280C12041D0C5B46140C220042
:101D20001B041B0C5A4303946B43444302956843C2
:101D30001B19150CEB189C4203D980246402A4469D
:101D400060441C0C15041B042D0C20185D198142E5
:101D500077D373D00C1AA24A7D1BAF42BF41944681
:101D6000009B7F426344E01B1C00864200D1DBE005
:101D70000199FEF759FA4A4642430B04290C070021
:101D800019438A4207D98919013F8E4203D88A42F2
:101D900001D9871E8919881A0199FEF745FA0904A5
:101DA0004A46894629044D464243090C030029430B
:101DB0008A4207D98919013B8E4203D88A4201D948
:101DC000831E89193F04891A3A00039F1A43380079
:101DD00013041B0C584381460298150C6F43434370
:101DE00045434846000C8446DB1963449F4203D9AF
:101DF000802040028446654448461F0C00041B04B2
:101E0000000C7D191818A94200D284E000D17FE0AF
:101E100001231A4357E680234A461B0313431B033F
:101E20001B0BAA466F4A6FE6BA4200D935E74B460C
:101E3000DC0758087B081C43FF0734E70024AF4247
:101E400089D247444745A4415B466442A4196418BB
:101E5000013BA6421ED2A0426DD800D1B6E0241AA2
:101E60009B4678E703005A46283B9A400027914654
:101E700088E6584601F012F9203072E60300524617
:101E8000283B9A4093460022B4E6504601F006F9FA
:101E900020309AE6A642E2D1B845DCD9341A9B46F6
:101EA00059E71F2B65DC504C0099A4465C46614401
:101EB00008008C4011008240D940501E82410C43E2
:101EC00014435A46DA401300620709D00F22224019
:101ED000042A05D02200141D9442894149425B180E
:101EE0001A0262D50122002300270DE68A4200D89B
:101EF0000AE7831E891907E70F231340042B00D13B
:101F0000E6E5171D9742924153429B44FA08E0E5EB
:101F1000002800D1D7E57118531EB14227D3A9423A
:101F200015D358D01A0073E7002B00DC04E6012318
:101F300000229B44CDE502234744474589415B424B
:101F40009C46494289190C19E344241A03E7434685
:101F50005F0047459B41B8465B429E19023A89198A
:101F6000A94200D054E7404500D051E7ABE51A0044
:101F7000F6E71F215F4649420C1BE740202B07D0A4
:101F80001A49009B8C46634418005B4683401A4301
:101F9000501E82413A4307270023174009D00F21E2
:101FA000002311401400042995D122005F075B0231
:101FB0001B0BD20817430022A6E5802359461B03BA
:101FC0000B431B0317001B0B064A9DE5BD42B2D80D
:101FD0009B460024BFE68045B9D31A00C3E7C0463C
:101FE000FF030000FF0700001E0400003E04000085
:101FF000F0B54F464646D6468446C0B58046194E93
:1020000018030F034D00000B5C0082463F0B6D0D63
:10201000C90F9146640DDB0F0120B5420AD0B442CE
:1020200003D0A54201D157450CD01CBC904699461F
:10203000A246F0BD66463E43F7D1AC42F5D15446C8
:102040001443F2D10120C845EFD1994207D0002DA9
:10205000EBD163461F433800471EB841E5E7002037
:10206000E3E7C046FF070000F0B54F464646D646B8
:102070004D00C0B50E03C90F8A462C491F035C00F2
:102080008046360B6D0D91463F0B640DDB0F8D4284
:102090001ED08C4216D0002D1ED130438446002C19
:1020A00001D13A4323D06246002A1AD09A4529D05A
:1020B000514602200139084001381CBC904699461F
:1020C000A246F0BD39001143E5D002204042F4E7BA
:1020D0003043FAD1AC420FD0002C0FD13A43E7D0B5
:1020E0000CE00122013B934318000130E5E7634611
:1020F0000020002BE1D0DBE73A43E6D19A45D7D167
:10210000A542D5DCA54205DBBE42D1D808D00020CF
:10211000BE42D2D250460123013898430130CCE769
:10212000C845C5D80020C845F4D3C6E7FF0700005E
:10213000F0B54F464646D6464D00C0B50E03C90F12
:102140008A462E491F035C008046360B6D0D914672
:102150003F0B640DDB0F8D4218D08C4211D0002D47
:1021600018D130438446002C1ED13A431CD163461B
:102170000020002B30D051460220013908400138A0
:102180002AE039001143EAD0022025E03043FBD198
:10219000AC4226D0002C26D13A4324D1514602200D
:1021A00001390840013817E06246002A0FD09A45ED
:1021B000E1D1A54205DBBE42DDD819D00020BE42E8
:1021C0000AD25046012301389843013004E001222D
:1021D000013B9343180001301CBC90469946A2462F
:1021E000F0BD3A43D0D19A45C5D1A542C3DCE0E762
:1021F000C845C0D80020C845E3D3EDE7FF0700007D
:10220000F0B55746DE464E464546E0B583460600E5
:102210000F03480087B092461D003F0B400DCC0FC6
:10222000002800D16FE0DE4B984238D08023FF00B9
:102230001B041F43730F3B430193DA4B002799465E
:1022400000239B46F60081442B0369001B0B52467A
:102250009846490DED0F002900D185E0D04B9942F9
:1022600000D173E04346DA0080231B041343524637
:10227000CC48520F84461343524600206144D2009A
:1022800089442100694000918C46012149448A46D5
:102290000F2F00D990E0C449BF00CF59BF465B461D
:1022A0003B43019300D06AE10223082700268146C0
:1022B0009B46C9E732005846019B614600910228BF
:1022C00000D175E0032800D1FEE1012800D02CE107
:1022D00000230027002600253F032A0D3F0BB348AB
:1022E00012053A4302401B051343009A5B00D107D5
:1022F0005B080B433000190007B03CBC9046994680
:10230000A246AB46F0BD5B463B43019300D12FE1B3
:10231000002F00D1A5E1380000F0C0FE03000B3B08
:102320001C2B00DD96E11D22D31A5A460100DA402B
:102330005E4608398F4013008E403B4301939C4B0F
:1023400000271B1A994600239B467DE741465346CA
:102350000B4393498C46E144002B00D01AE1022242
:102360000220174300228CE7134300D10DE14346BE
:10237000002B00D181E1404600F090FE02000B3AB4
:102380001C2A00DD72E10100434608398B40984663
:102390001D239A1A5346D3401A004346134352460C
:1023A0008A404946081A824989468144002068E7E4
:1023B0007B4B002700268EE7140C1204120C110030
:1023C000370C3604350C794328008C462E006043C8
:1023D0006044834656432100300C8046584679437A
:1023E00040440291844506D98846802149028C46A2
:1023F000E044414602913604010C360C00048B4641
:1024000081191E0C1B041B0C0391190079438C4687
:10241000280075436544A8465843050C4544774356
:10242000A94203D9802149028C466744290C8C4675
:1024300039000004000C2D042D186144AB440591B3
:102440005946049101990F043F0C080C390051437F
:102450004243904602008C46090C8B4662437C4303
:1024600044445C44A04503D9802149028846424443
:10247000210C884661460904090C8C4639005943F1
:10248000434370437E430F0CF6182404BE19644482
:1024900042448C46B34203D980235B0298464044B1
:1024A000029B61469846049B370443449B46AB45D8
:1024B000AD416B420D0405992D0C8C467F19674484
:1024C000FD18A8465D462D19A542A44193466442D5
:1024D000A446C344DC448F42BF4198459B41934589
:1024E0009241A445A4415B427F421F43360C5242B5
:1024F0006442BF192243BF18624638184302D20D06
:10250000039913436A020A43501E82416146ED0D4E
:102510002A434E023243D90100D4B3E001265008C9
:1025200032400243DE0732435B08224C5444002C05
:1025300062DD510709D00F201040042805D0101D7E
:102540009042924152429B180200D90104D5802446
:102550001948E400034054441848844200DD27E74A
:102560005E075B02D2081F0B630516435B0DB2E6E4
:10257000002399460133042700269B4664E6032383
:10258000019781460C279B465EE6012201201743F6
:10259000002276E6032303201F43434671E6C0462C
:1025A000FF07000001FCFFFF60900000FFFF0F80AD
:1025B0000DFCFFFFFF030000FFFFFFFEFE07000012
:1025C0000023802700933F030026434B83E6019BB3
:1025D0003200A446584670E6AC466EE68027019964
:1025E0003F0339422DD03B422BD11F433F033F0BCA
:1025F00000951600384B6EE601252D1B382D00DDA9
:1026000066E61F2D40DC35481C0050441600824011
:102610008440EE40501E824134431443EB40620735
:1026200009D00F222240042A05D02200141D944212
:10263000804140421B181A023ED501230027002684
:1026400049E68027019B3F031F433F033F0B009454
:10265000214B40E603005A46283B9A40002601924F
:102660006DE6584600F01AFD203057E6030052464A
:10267000283B9A401300002293E6504600F00EFDDE
:1026800020307BE6CA4650E71F201E004042041B54
:10269000E640202D03D0124C5444A3401A43501E50
:1026A0008241324307260027164009D00F2000231D
:1026B000104014000428B9D122005E075B021F0BF2
:1026C000D2081643002306E680273F031F433F033B
:1026D0003F0B1600004BFEE5FF0700001E04000044
:1026E0003E040000F8B557464E464546DE460C000F
:1026F0000903E0B5490A460F5F0031431E03DB0FB3
:10270000760A9B46530F3343C84E6500C000E40F62
:10271000D2006D0DA24681467F0D9C469046B74281
:1027200000D1B9E05B46012673409B46EE1BA345F2
:1027300000D183E0002E63DD002F00D0B1E06346BE
:10274000134300D123E1731E002B00D0BAE1861A97
:102750006346B04280410125C91A4042091A0B0262
:1027600000D447E149024B0A98464346002B00D16A
:1027700089E1404600F092FC0300083B1F2B00DD7E
:102780007CE120223000D21A4146D040994002001C
:102790009E400A439D4200DD6AE15D1B6B1C1F2BBE
:1027A00000DD94E1202110003500C91A8E40DA4086
:1027B0008840DD40711E8E4111000722284300250C
:1027C00006433240002A09D00F233340042B05D0A2
:1027D000331DB342B641764289191E000B0200D464
:1027E0003DE26A1C914B55056D0D9A4200D119E1ED
:1027F0008F4AF6080A40570752023743120B9BE0F4
:10280000002E00D0C5E06E1C7605760D012E00DC92
:1028100048E16746861ACB1BB042BF417F42B846AB
:102820001F004346FF1A3B00B8461B0200D55FE17C
:1028300037439AD100220024002579E0002E00DCE5
:10284000FAE0002F00D18DE0784B9D4267D08023C5
:1028500067461B041F43BC46382E00DC52E163462A
:1028600013435A1E93411E18864280414042091864
:102870000B0200D4BEE06D4B01359D4200D1D2E089
:102880006B4A73080A4001210E401E435108D307CA
:1028900007221E43324095E71E00164300D045E74D
:1028A00040E7624B9D423AD0802367461B041F439A
:1028B000BC46382E00DDEBE01F2E00DC3AE1330091
:1028C0006746203BDF403B00202E05D04027BF1B42
:1028D0006646BE40324390464646721E964133439A
:1028E000DAE0002B00D114E26346134300D168E123
:1028F00080234E07C008C9081B030643194208D0AD
:102900006046C008184204D163460100D2085E0741
:102910001643F3009946C900720F444D11434B46CC
:10292000DE08424B4F073743CA089D4200D16EE094
:1029300012036D05120B6D0D00211203130B0A0D0E
:1029400012051A433B4B2D0513402B435B00E40754
:102950005B082343380019003CBC90469946A246C8
:10296000AB46F8BD6346134311D0731E002B00D055
:1029700007E18618864280416144404209180125DA
:102980000B0237D502257BE73E00614691463500B4
:10299000C5E75C46002D00D0E1E00B000343F3D017
:1029A000731C00D1ACE1214B9F4200D13AE1F343CB
:1029B000382B00DD6FE11F2B00DD8CE120250E00A0
:1029C000ED1AAE40B0460600AA46DE404546354305
:1029D0002E005546D940A8406346451EA8415B1AC3
:1029E0009C463043161AB242924163465242991AAB
:1029F0003D00B4E607223240002A00D0E4E60B4B4B
:102A0000F6084F073743CA089D4200D090E73B00C5
:102A1000134300D1A6E180231B031A431203120BB8
:102A2000024D89E715000022002785E7FF07000017
:102A3000FFFF7FFFFFFF0F80002E00D0C7E06B1C61
:102A40005E05760D012E00DCF0E0C84DAB4200D1F2
:102A5000B9E085180A00854289416244494251180B
:102A60000722CE076D082E43490832401D00A9E613
:102A7000BF49ED1A114007223240A3E63200283840
:102A80008240002686E6300000F008FB203073E626
:102A9000634613435A1E9341C61AB04280414042D6
:102AA000091A5CE60E00674606431743002D5ED107
:102AB000002E00D0F3E0002F00D11EE15C466146FD
:102AC00091462CE7A94FBE427BD01E00F1E61000D4
:102AD0001F3DE840202B03D04021CB1A9A401643DB
:102AE000731E9E410722064332400021002583E7E2
:102AF000161A6346B2428041591A40420B1A984650
:102B00005C4632E61F2E00DDABE02027BB1B9A4659
:102B100063465746BB40994613004F46F3401F4358
:102B20003B005746BA40571EBA4113436246F24033
:102B3000891898E62027BB1B9A4663465746BB4038
:102B4000994613004F46F3401F433B005746BA4097
:102B5000571EBA4113436246F240891A9CE7834BE1
:102B60009F425FD080252D047342294320E7002E29
:102B70000CD1002F00D1D0E05C46614691467B4DE0
:102B8000CDE67A4FBE421CD01E0065E6002F18D05D
:102B9000C0084E0706438020C9080003014208D040
:102BA0006346DC08044204D12100DA46D2085E07FD
:102BB0001643F300994601245346C900720F11438E
:102BC0001C406A4DABE61D0000220027B4E6002D34
:102BD00059D10B00034300D1D6E6731C00D1B2E0FB
:102BE000624B9F421ED0F343382B6FDC1F2B00DD5E
:102BF00097E020250E00ED1AAE40B0460600AA462A
:102C0000DE40454635432E005546A840D940451E76
:102C1000A8418C440643B618964292415142614401
:102C20003D0025E63D006146914678E60B000343F2
:102C3000002D00D055E6002BF5D06346134300D19C
:102C40006DE68618864280416144404209180022A0
:102C50000B0200D4D0E6464B01351940B2E5B1462F
:102C60005DE633006746203BDF403B00202E05D069
:102C70004027BF1B6646BE40324390464646721E02
:102C800096413343EFE5394B9F42CBD080252D044D
:102C900073422943A8E70843411E8841A2E6002F5A
:102CA00000D13CE66346861ACF1AB0429B415B4294
:102CB000FB1A98461B024ED5161A6346B242924141
:102CC000591A5242891A5C4600227BE501430E00E4
:102CD000711E8E419FE71D000E00203DEE40B04664
:102CE000202B04D04025EB1A9940084381464846E2
:102CF0004346411E8841184374E60022002417E62B
:102D0000161A6346B2429241591A5242891A3D003C
:102D100025E561469146154D01E680220024120307
:102D200079E61D000E00203DEE40B046202B04D079
:102D30004025EB1A9940084381464E464346711E92
:102D40008E411E4367E7861896429B4161445B4271
:102D5000C9183D008CE547463743CED0072241468F
:102D6000324049E600273A00E6E5C046FF0700008A
:102D7000FFFF7FFF70B50C4E0D031C0349005B0085
:102D80002D0B490D240B5B0DB14208D006490020E4
:102D90008B4203D114432000441EA04170BD054363
:102DA0000120002DFAD1F1E7FF07000030B5144DE6
:102DB0000A034B00120B5B0DC90F0024AB4211DD5F
:102DC000104CA34210DC8024640322430E4CE41A0E
:102DD0001F2C0CDD0D48C31ADA4013005C42002999
:102DE00000D11C00200030BD094BCC18FAE7094D7A
:102DF000E040AC4663449A4013000343EEE7C0460C
:102E0000FE0300001D040000330400001304000052
:102E1000FFFFFF7FEDFBFFFF70B500282DD0C3172C
:102E2000C5185D40C40F280000F038F9154B1B1A77
:102E30005B055B0D0A2815DD0B38854000222D034C
:102E40002D0B002110002D030A0D2D0B12052A4316
:102E50000D4D1B052A4013435B00E4075B08234329
:102E6000190070BD02002900153291400A000B21A3
:102E7000081AC5402D032D0BE3E70024002300258D
:102E80000022DEE71E040000FFFF0F8010B5041EC5
:102E900025D000F003F9144B1B1A5B055B0D0A28C3
:102EA00012DD0B38844000222403240B0021100083
:102EB00024030A0D240B120522430C4C1B0522404F
:102EC00013435B00590810BD0200210015329140E8
:102ED0000A000B21081AC4402403240BE6E7002350
:102EE00000240022E2E7C0461E040000FFFF0F801E
:102EF0004100090E4B1C70B5DBB24602750AC40FC7
:102F0000012B14DDE0239B006D07360BCB1800214D
:102F10000A0D280012051C4D32435B052A405B0850
:102F200013435B00E4075B082343190070BD0029CD
:102F300014D1002D1ED0280000F0B0F80A281CDCA7
:102F40000B232A001B1ADA40030015339D400F4B58
:102F500012031B1A5B05160B5B0DD8E7002D06D07C
:102F6000320B802636036D071643094BCFE7084B1B
:102F70000026CCE700230026C9E703002A000B3B0C
:102F80009A400025E3E7C046FFFF0F808903000059
:102F9000FF070000F0B54C00640D0B03621C5B0AD8
:102FA000460F5205C90F1E43C500520D012A29DDE7
:102FB000374BE718FE2F1CDC002F3BDD8001431E42
:102FC00098410722F3006D0F03432B431A40002A58
:102FD00004D00F221A40042A00D004338022D204E5
:102FE0001A4024D00137FAB2FF2F02D09B01580AB1
:102FF00001E0FF2200204002D205400AC907104329
:103000000843F0BD3543002C04D1002D0AD1002225
:103010000020F0E7002DECD08020C0033043FF22D9
:10302000E9E7002400235B02580AE2B2E3E7DB0889
:103030003C00F8E73B001733F3DB80231B043343EA
:103040001E26F61B1F2E14DD02225242D71B1A0029
:10305000FA401700202E04D00E4A94466444A34040
:103060001D432B005D1EAB4107223B431A40002746
:10307000ADE7094A2800A218954093406C1EA5416F
:10308000F04007222B4303431A4000279FE7C04626
:1030900080FCFFFFA2FCFFFF82FCFFFF1C2101233D
:1030A0001B04984201D3000C10391B0A984201D32B
:1030B000000A08391B09984201D30009043902A209
:1030C000105C40187047C046040302020101010170
:1030D00000000000000000000023C25C0133002A51
:1030E000FBD1581E704710B505F0D2F900F02AF850
:1030F00010BD0000002110B5080004F031F90221D4
:103100000D4804F0DDFA0D4B01221978002800D19A
:1031100004220A4302201A7000F03EF8084C206096
:1031200001F044FD022000F037F8206001F08AFC35
:1031300000F0FAF9F6E7C04600600B406501002098
:1031400060010020FA2110B50F4B89001868FCF7C8
:10315000E5FF0E4B0138984215D80D490D4A4860DD
:10316000C020136A00061B021B0A034313620023DC
:103170008B6007330B608021136AC9051B021B0A91
:103180000B43136210BDFEE7D8000020FFFFFF00D5
:1031900010E000E000ED00E0F7B5D94E040037780C
:1031A000042F27D0012F27D004252F4222D000241E
:1031B000D44B22000821D4481C7004F045FA2200A8
:1031C0004021D24804F040FA22002900CE4804F001
:1031D0003BFA22002021CC4804F036FA8022CC4B66
:1031E0009205DA67BFF34F8FBFF36F8F200004F0B3
:1031F00099FC34700020FEBD3A004021002004F00C
:103200006FFA00220821C04804F064FA002240212D
:10321000BE4804F05FFA3A000821BB4804F014FAF3
:103220003A004021B94804F00FFA642000F0D8FABF
:103230003A004021002004F053FA3A000821B24835
:1032400004F048FA00224021B04804F043FA3A0062
:103250000821AD4804F0F8F93A004021AB4804F0E9
:10326000F3F9380000F0BCFA00220421A64804F06B
:10327000EBF900222021A44804F0E6F902222021E3
:10328000032004F02DFA0921A24800F053FDA24BBF
:103290009C4DC018802380B29B00984200D92F70AB
:1032A0002F78002F35D101222021032004F018FAB5
:1032B00001220421944804F00DFA3A00202192489A
:1032C00004F008FA012204218F4804F0BDF901221C
:1032D00020218D4804F0B8F93A0008218A4804F00A
:1032E000B3F93A004021894804F0AEF902224021A6
:1032F000380004F0F5F90621864800F01BFD864BE6
:10330000C018802380B29B00984272D9FF3BFF3BDC
:103310002B702F78032F32D100F02CFA012201906C
:103320004021002004F0DCF901220821764804F055
:10333000D1F900224021754804F0CCF9012208217E
:10334000714804F081F901224021704804F07CF9B1
:10335000002204216C4804F077F9002220216A48F9
:1033600004F072F902222021380004F0B9F9092191
:10337000684800F0DFFC0F283DD804232B702F781D
:10338000042F00D087E0032000F02AFA002C4ED151
:1033900001224021200004F0A3F9012208215A480B
:1033A00004F098F922004021584804F093F90122D2
:1033B0000821554804F048F901224021534804F0FF
:1033C00043F901222021032004F08AF92200390068
:1033D0004D4804F07FF9002220214B4804F07AF98F
:1033E00001223900484804F02FF9012220214648E3
:1033F0004FE003238CE700F0BDF9019BC01A474B57
:103400009842B4D9002208213F4804F01DF9002257
:1034100040213E4804F018F9002204213A4804F003
:1034200013F900222021384804F00EF9A7E7012CF7
:1034300044D122002021032004F052F92200390057
:10344000314804F047F9002220212F4804F042F9C6
:10345000220039002C4804F0F7F8220020212A48E5
:1034600004F0F2F822004021002004F039F9220093
:103470000821254804F02EF922004021234804F0B9
:1034800029F922000821204804F0DEF8220040211A
:103490001E4804F0D9F82B78013B012B09D8802273
:1034A0001F4B92051A60012004F03CFB1D4800F000
:1034B00019F902233278134333709BE6022CEAD1C8
:1034C00001224021002004F00BF9012208210E48BE
:1034D00004F000F9002240210C4804F0FBF801221E
:1034E0000821094804F0B0F801224021074804F0FF
:1034F000ABF801222021032004F0F2F8012266E754
:10350000650100206401002000600B4000000B40BA
:1035100004E100E00000014000FEFFFF1405000090
:1035200000E100E068010020324B10B5002B06D00E
:10353000314800F0C3FE002801D000E000BF2F4B4F
:10354000002B06D02E4800F0B9FE002801D000E084
:1035500000BF2C4B002B06D02B4800F0AFFE0028FC
:1035600001D000E000BF294B002B06D0284800F016
:10357000A5FE002801D000E000BF264B002B06D09E
:10358000254800F09BFE002801D000E000BF234B3F
:10359000002B06D0224800F091FE002801D000E068
:1035A00000BF204B002B06D01F4800F087FE0028EC
:1035B00001D000E000BF1D4B002B06D01C4800F0DE
:1035C0007DFE002801D000E000BF1A4B002B06D082
:1035D000194800F073FE002801D000E000BF174B2F
:1035E000002B06D0164800F05AF8002801D000E061
:1035F00000BF10BD00000000E40400200000000037
:1036000000050020000000001C0500200000000054
:1036100038050020000000005405002000000000D4
:1036200070050020000000008C0500200000000054
:10363000A805002000000000C405002000000000D4
:103640006801002013B56B460268D97107335468CE
:1036500019000122A04716BD3F20704713B56B46E5
:10366000DC1D200000F0B2FA012801D1207816BD3F
:1036700001204042FBE713B56B46DC1D0121200011
:1036800000F086FA002801D0207816BD01204042C3
:10369000FBE710B500F0B6FA0128FBD110BD10B55C
:1036A00000F0A8FA10BDF7B54D424D4107000E00DD
:1036B000019200F0ADFAEDB20124002803D000F031
:1036C000AEFA4440E4B2002D0AD1002C08D1019991
:1036D000300000F013FA002801D101237B60FEBD09
:1036E0000020FCE7044B10B51A78002A03D1013200
:1036F0001A7000F0BDFA10BD81030020FA2370B5E6
:1037000080220025084C9B00A360084B65600833AD
:10371000290052000648236005F043FB84239B00E8
:10372000E5500433E55070BD68010020A090000012
:1037300078010020024A1368013313607047C046C5
:103740008403002010B500F070F800280DD102218C
:10375000064803F0B5FF064B01221978002800D176
:1037600004220A431A70FFF7E5FF10BD00600B400A
:1037700065010020014B18687047C0468403002093
:10378000F7B5144801238446134A144996684C68D7
:103790000568A40E1C40019390684B68019F9B0E26
:1037A0003B4067463F689C420FD1BD420DD18642E7
:1037B0000BD36419FA2550683C210130801BFCF7BB
:1037C000ADFCAD006C430019FEBD3D001C000600C1
:1037D000E2E7C0468403002010E000E000ED00E0D6
:1037E000F7B58025070000260E4C6D02A3680193F3
:1037F00023682B432360BE420BD380256D02A36850
:10380000019A934204D900F00FF823682B42F6D0B6
:10381000F7BD00F009F823682B405A1E9341F618B3
:10382000E9E7C04610E000E0704700207047000064
:103830000123054A1360054A1360054A13600022FC
:10384000044B1A607047C0460C0000201000002096
:1038500008000020900300200122014B1A607047ED
:1038600008000020704700000122014B1A607047D9
:103870000C0000200122014B1A607047100000204C
:103880008388002B43D14278C388212A34D0222A4E
:1038900010D0202A3BD11E4AC2611A1C082B00D925
:1038A000082292B202620222431DDA77194B013AD2
:1038B0001A7008E0002B06D10221421DC361036289
:1038C000D177144A13708278134B1A70104A11681A
:1038D0009622D20091421AD11B78DB0717D480239D
:1038E0000E4A9B051A60BFF34F8F0D4B0D4ADA60ED
:1038F000BFF34F8FC046FDE7054AC2611A1C082B73
:1039000000D90822012392B202620530C3777047C2
:10391000000000208003002088030020F5FAAA554B
:1039200000ED00E00400FA058288C378022A15D170
:10393000212B02D0222B0BD070470F4B1B68C26883
:10394000D318C3610923036201230530C377F3E76A
:103950000A4B1B68C3610A4B1B88F4E7032AEBD1AF
:10396000212B06D0222BE7D1064B1B68C361064BE7
:10397000F2E7064BE2E7C046AC200020B82000206A
:10398000B4200020C8200020C0200020BC2000203F
:1039900010B5446802680300002094420BD0986878
:1039A000825C01200A701A68D96801321A608A4262
:1039B00001D100221A6010BD030010B54268DC6816
:1039C00001320068A24214D10200501E8241002040
:1039D000D2B282420CD05A68986881545A68D96829
:1039E00001325A605A6801208A4201D100225A608D
:1039F00010BD5A680132121AE7E7F7B50E000C0045
:103A000001908D18A71BAC4206D021000198FFF74A
:103A1000BFFF01340028F5D13800FEBDF7B507001F
:103A20000D000C008B180193019B661B9C4206D075
:103A300021783800FFF7C0FF01340028F4D13000AE
:103A4000FEBD426803689A4202D34068C01A7047BC
:103A50004268C0681018F9E770B50E4E4022310078
:103A600004F02CFA0C4C0D4D20602800FFF7E9FF04
:103A7000802322685B00181A904205D92268310021
:103A80002800FFF7CBFF70BD8020000104F0E8F8AC
:103A9000F9E7C046940300208C030020D4030020E3
:103AA00000220C4B1A605A600B4A9A608022520026
:103AB000DA600A4B83600A4B83610A4B43620A4B0C
:103AC00003630A4B43630A4B83630A4BC3630A4B8A
:103AD00003647047D4030020E40300203138000061
:103AE000293900008138000059380000653800008D
:103AF000593A00006938000075380000F7B5070032
:103B000000200D00814237D001901C4E3368002BFD
:103B10000AD11B4B1B491868FCF700FB1A4C4443A5
:103B2000E408316800291FD000232C003360402DA9
:103B300000D9402439002200012004F04DF9019BF6
:103B40002D1B1B183F180193002DDED1402809D1F1
:103B50000E4B1D6030680128FCD100210A00316045
:103B600004F03AF9019807E0013CDAD201200A009A
:103B7000306004F031F92000FEBDC046080000208E
:103B8000D800002040420F00701101009003002077
:103B9000F8B50D4C0600636822680D0000279342BB
:103BA0000FD02000FFF74DFF0200A84200D92A00E5
:103BB00031002000FFF721FF07008020000104F002
:103BC0000DF83800F8BDC046D403002010B5084AEF
:103BD0005368146851680023A14206D05168936865
:103BE0005B18013B1B7803700123180010BDC04611
:103BF000D403002010B50248FFF723FF10BDC046D4
:103C0000D4030020014B18687047C046080000200C
:103C100010B504F09BFB431E9841C0B210BD10B517
:103C200004F094FB063843425841C0B210BD000076
:103C300010B5024804F09AF910BDC046CC2000200F
:103C400007B500236A461371C022920000926A46AB
:103C50006846537103F00CFC012003F0F5FB0120D2
:103C600003F0FCFB0028FAD0012003F015FC07BD8F
:103C700030B585B001AC0C220021200005F091F890
:103C8000802304255B4263716570A268813361689B
:103C9000019803F093FCFFF7D3FF1E4C1E4A23004C
:103CA00088331A601D4A1378012B22D15278002ADA
:103CB00029D11B4A13731B4800F0AEFE1A48FFF7C8
:103CC000EFFE200004F044F98022184B92051A60A0
:103CD000C72080001A5816491140C02212020A4318
:103CE0001A50012003F01EFF200004F00DFB05B068
:103CF00030BD022BDFD15278002ADAD0012ADAD186
:103D0000074B1D73D7E7022AD5D1054B01321A7331
:103D1000D1E7C046CC20002060210020B620002042
:103D2000A8000020D42000200821002000E100E0AD
:103D3000FF00FFFFF0B5002685B002AB03AD2E807B
:103D40003200DE802423040003F02BFB394B1F7864
:103D5000012F03D133003A0031001FE0002F53D16F
:103D60000126354B31001A007833187879321278F1
:103D70000309000799400192000F022203F0B0FCF2
:103D8000019B20009A002D4B9B1859783200C908DE
:103D9000242303F006FB3B0002223900284803F0ED
:103DA000F3FA0121200003F01AFB0421200003F0A4
:103DB0002FFB0028F9D00421200003F030FB002164
:103DC000200003F016FB1B4B28801B78012B13D01F
:103DD0000121200003F00DFB02ABD880DA882B888C
:103DE0009A4223D92B8802AAD188180389B2C01A13
:103DF000FCF71EFA80B228802000002103F012FB9D
:103E0000288880B205B0F0BD30212000394003F091
:103E100014FB242301220F21200003F0C2FA012108
:103E2000200003F0FFFA3300022295E7054B2B80B8
:103E3000E2E7C04614000020249B0000509A0000D6
:103E400000000140FF0F0000F7B5C7B20D001E2FA4
:103E50006FD8464BB900CA5C1607340F00940F2C7C
:103E600067D0032D65D8424E6403A41901261209B8
:103E700096405B18DA780196D207D20F9B78002A19
:103E800058D00105090FC9183A4E890071580F26FC
:103E9000090A314006291DD1002A50D0010A3140BB
:103EA000C918344E890071588C460F2166460E4061
:103EB0008E420FD0002A47D0000A0840C0182D4B70
:103EC00080001B5C1807000F012211001B0999409C
:103ED00003F006FC254BBF00DF197B78FF2B0CD0CD
:103EE000254A9B009B5C1807000F0F2805D0012274
:103EF00011001B09994003F0F3FB0122019900987E
:103F000003F0EEFB6B469E88022D25D0032D27D0B3
:103F1000022231002000012D24D003F09EFB01225B
:103F20003100200003F0AAFB00223100200003F042
:103F30008BFBF7BD99008C4610496646A6E79900B1
:103F40008C460E496646AEE79A0013000B49885C22
:103F5000CB5C0007000FB7E7002231002000DCE750
:103F60000122FAE703F079FB2A00DEE7249B000038
:103F700000000B40949A0000509A00006C9A0000D8
:103F8000C0B270B51E281CD8184B8000C35C1C073B
:103F9000240F0F2C15D0022913D801251B099D4091
:103FA000134A6403A41822682A4016D1002909D1B3
:103FB000A9B20232200003F050FBA9B2200003F0A6
:103FC00087FB70BD01290AD1A9B2200003F045FB8F
:103FD000A9B2200003F07AFBF3E70129F8D0022907
:103FE000EBD1216A4D402562EBE7C046249B0000DF
:103FF00000000B40007C704710B5036889B25B6A13
:10400000984710BD70B50400037C002083420CD09B
:1040100089B26069802503F033FD6D002900606975
:1040200003F033FD0028F9D0012070BD0300027CAD
:104030000020824213D01A7E82239B005A430B4BEE
:1040400081219B188022890092009A185B181068C1
:104050001968884204DB12681868801AFF307047BC
:1040600018681368C01A0138F9E7C046101000201C
:10407000002330B5027C9A4216D08223017E80252F
:1040800081209B004B430B4A8000D318AD001818C9
:104090005B1904681B689C4208D082235B004B4379
:1040A00000681B185B009B5A180030BD01235B425F
:1040B000FAE7C046E80500200023084A43600832BA
:1040C00002600C22FA23417651439B008360044B2B
:1040D000CA585B181B7A426103767047C49000008F
:1040E000A09B0000F0231840203843425841800232
:1040F00070470F2303400020012B03D08020032BA7
:1041000001D1800070474000FCE70000F0231B0154
:10411000184080239B00984205D0044BC0184342AE
:104120005841C0027047C0204001FBE700FDFFFF7F
:104130000C23F0B504248BB002911600427E4F4F41
:104140005A434F4B05009B189A791C5705925A7990
:10415000DB7901929B00DA5D1207120F0392017E58
:104160004848425C002A37D1013242542A74029AEC
:10417000002A34D00122FB5C1B099A406B46049252
:10418000198A039B002258033F4BC01803F065FABD
:104190000121059B06229B00F85C0027030900070C
:1041A0009940000F03F09CFA06220499039803F04B
:1041B00097FA0021019803F0D1F9019803F0E2F990
:1041C0000299FBF7ABFF314B0137984209D9F9B29D
:1041D000019803F0C3F9F0E72A7C002AC7D10BB09D
:1041E000F0BD029B30000693FFF783FF06AB98807B
:1041F0003000FFF777FF06ABD8803000FFF786FF6F
:1042000006AB1881002306A96869099303F0F6FB41
:1042100001222121686903F048FC0321FF2321408A
:10422000C9008B408022DB438A40002C19DB1F2011
:1042300001212040814016480160A408A4002418F0
:10424000C020800021580B401A4322506869012287
:10425000002103F033FC01226869110003F02EFCF9
:10426000BDE70F210C40083C0A49A408A4006418CB
:10427000E1690B401A43E261E8E7C046249B000075
:10428000A09B0000E005002000000B40FFFF0000A5
:1042900000E100E000ED00E0892210B55200FFF7D8
:1042A00047FF10BD802381229B009200C358805895
:1042B000181A01D50130FF307047000010B5030017
:1042C000027C0020824207D082201B7E800058435F
:1042D000024BC018FFF7E6FF10BDC046E8050020FE
:1042E00010B50300027C0020824207D082201B7E92
:1042F00080005843024BC018FFF7D4FF10BDC046E2
:1043000010100020812380229B009200C158825807
:1043100010B591420AD0C258C4585200125A611CBA
:10432000FF2C00D10021C150100010BD01204042DF
:10433000FBE7000010B50300027C0020824207D09A
:1043400082201B7E80005843024BC018FFF7DAFF23
:1043500010BDC046E8050020F8B5037C0400002B22
:1043600036D0EFF310831B4E002B1AD08227BF00EC
:10437000207E78433018FFF795FF002820D0207E5C
:1043800078433018FFF7BEFF85B28021606949008D
:1043900003F07BFB0028F8D02900606903F070FB74
:1043A000E6E78225AD00207E68433018FFF77AFFEC
:1043B0000028F8D18021606903F067FB002807D14D
:1043C00080256D002900606903F05FFB0028F9D0AB
:1043D000F8BDC04610100020F8B50D0020210400E3
:1043E00003F059FB00280CD00821200003F04DFBFE
:1043F000002806D0200003F045FB0821200003F030
:1044000050FB0121200003F046FB002828D020218A
:10441000200003F03AFB002822D0200003F032FBFA
:1044200082239B001A0080266A432149B6008A181D
:1044300092191668721CFF2E00D1002281266B4350
:10444000B600CB189E193668964209D08026B60071
:104450009B19FC3E6E431F681A60F619760088535C
:104460000221200003F017FB002816D08021200035
:1044700003F00BFB002810D082239B005D430D4B03
:10448000ED182800FFF70EFF061E07D02800FFF7E3
:1044900039FF81B2200003F0F3FAF8BD200080213B
:1044A00003F0FFFA32000221200003F0FEFAF4E7E5
:1044B000E80500201010002010B5037C002B03D06D
:1044C000017E4069FFF788FF10BD000010B5054868
:1044D000FFF7F2FF0448FFF7EFFF0448FFF7ECFF98
:1044E00010BDC046E404002070050020C405002073
:1044F00010B50248FFF7E0FF10BDC04638050020A8
:1045000010B50248FFF7D8FF10BDC0465405002083
:1045100010B50648FFF7D0FF0548FFF7CDFF054867
:10452000FFF7CAFF0448FFF7C7FF10BD00050020D2
:104530008C050020A80500201C050020F8B504000B
:10454000037C00200E00834242D08021606903F08A
:104550009CFA404D002829D18227BF003B008022D1
:10456000207E92004343EB189B181A688023013287
:104570005B009A4200D100223B0081214343890025
:10458000EB1859180968914223D10221606903F0A0
:1045900082FA0028E2D08021606903F076FA0028D0
:1045A000DCD0217E6069FFF717FFD7E78220237EEA
:1045B000800058432818FFF775FE0028CCD1310041
:1045C000606903F05DFA6069802103F06AFA0120F6
:1045D000F8BD802292009B181B68591CFF2B00D14C
:1045E0000021822381229B0043439200EB189A18FA
:1045F00012688A4209D0802292009B18FC3A4243FA
:104600001F681960D2195200AE52EFF31083002BCD
:104610001AD08227BF00207E78432818FFF742FE79
:104620000028D0D0207E78432818FFF76BFE86B292
:1046300080216069490003F028FA0028F8D0310091
:10464000606903F01DFAE6E701220221606903F0C8
:104650002CFAB8E710100020F8B5002480272500B8
:104660007F00244E3A00A6193000002104F099FB87
:1046700080239B00F5500433F55004331E4EE4189C
:10468000B442EED10024270080221C4D520065194F
:104690000021280004F085FB80239B00EF500433A9
:1046A000EF500433E418B442EED100211448FFF770
:1046B00003FD01211348FFF7FFFC02211248FFF719
:1046C000FBFC03211148FFF7F7FC04211048FFF71A
:1046D000F3FC05210F48FFF7EFFC06210E48FFF71A
:1046E000EBFC07210D48FFF7E7FC08210C48FFF71A
:1046F000E3FCF8BDE8050020280A000010100020A7
:10470000E4040020000500201C05002038050020DE
:1047100054050020700500208C050020A80500200D
:10472000C405002000207047F7B506000D000C00FE
:104730008B180193019B671B9C4207D0336821783B
:104740001B683000984701340028F3D13800FEBDC3
:1047500070B5040008000D00FEF7BEFC23680200DF
:1047600029005B682000984770BD10B50B1E02D071
:10477000FFF7EEFF0300180010BD10B5FFF7F5FFBF
:1047800010BD10B5FFF7F1FF10BD10B503681B6831
:10479000984710BD10B50249FFF7DAFF10BDC046BB
:1047A0000491000070B50400FFF7DFFF0500200052
:1047B000FFF7F0FF401970BD70B50400FFF7D5FF9B
:1047C00005002000FFF7E6FF401970BDF0B58BB083
:1047D0006B461500002205330600DA770800012D2C
:1047E00000D80A2509AC2900FBF71EFDCAB2130048
:1047F00037330700DBB2092902D813003033DBB2AC
:10480000013C2370002FEED121003000FFF7ADFFF7
:104810000BB0F0BDF8B506000C00151E04D10368FE
:10482000C9B21B689847F8BD0A2A0CD100290BDAD7
:104830002D21FFF7AAFF614207002A003000FFF791
:10484000C5FF3818EFE7D2B221003000FFF7BEFFF6
:10485000E9E710B5FFF7DEFF10BD10B5002A04D15F
:104860000368C9B21B68984710BDD2B2FFF7AEFF0C
:10487000FAE710B5FFF7F1FF10BD0000F7B51E0015
:1048800008AB1B78310001930500330010001700BE
:10489000FEF770FA4B49002814D101227400640815
:1048A0005242494B38002100FEF764FA00280FD12C
:1048B0000122454B524238002100FBF7C5FD00287C
:1048C00006D142492800FFF743FF04002000FEBD47
:1048D000E0223F4B120638003100FBF7BFFD0028F5
:1048E00001D03C49EEE7E0223B4B12063800310094
:1048F000FBF7A0FD0028F4D100220023380031008E
:10490000FBF798FD041E07D02D212800FFF73DFF7F
:10491000802304001B06F618002300202F49009373
:10492000019B009A934208D02D4B0022FDF75EF8C0
:10493000009B0133DBB20093F2E733003A00FCF74F
:1049400039FD0F000600FBF7EFFD0A220190010080
:104950002800FFF73BFF009B0419002BB6D00198FD
:10496000FEF794FA02000B0030003900FDF7BAFEA2
:1049700006000F0028002E21FFF707FF2418009BD8
:10498000013BDBB20093FF2BA0D0154B002230007F
:104990003900FDF735FC0F000600FBF7C5FD0A22C4
:1049A000010001902800FFF711FF24180198FEF77D
:1049B0006DFA02000B0030003900FDF793FE06008F
:1049C0000F00DCE7F8900000FFFFEF7FFC90000095
:1049D000FFFFEF4100910000FFFFEFC10000E03F4B
:1049E0000000244037B51D00069BDBB200932B006E
:1049F000FFF744FF3EBD37B519000400069B2000B9
:104A0000DBB200930B00FFF739FF05002000FFF732
:104A1000C1FE40193EBD0000044B0360044B4360DF
:104A2000044B83600423C3607047C046A800002085
:104A300028000020180000200122014B1A70704746
:104A40007A1A0020334BF7B51B78002B61D0324D1A
:104A5000324C2900200001F011FB002859D0304EC3
:104A60002A003100200001F012FA2E4F32003900E6
:104A7000200001F03DFA2C4D3B00320029002000BF
:104A800001F082FA294C2A492000FFF77AFE2868B3
:104A90002849FCF7D9F8FEF72BFA274A274BFCF7F1
:104AA000A5FF022602000B0000962000FFF79AFFE8
:104AB000234F20003900FFF764FE68681D49FCF7AA
:104AC000C3F8FEF715FA1C4A1C4BFCF78FFF009643
:104AD00002000B002000FFF785FF39002000FFF7E0
:104AE00050FEA8681349FCF7AFF8FEF701FA124A26
:104AF000124BFCF77BFF009602000B002000FFF733
:104B00007AFF01210F4B0D201A7851401970FFF7E1
:104B100037FAF7BD381A0020391A0020A41A0020ED
:104B2000E01A0020901A0020F01A0020E40400206F
:104B30003891000000003443182D4454FB210940F3
:104B40009E9200008E1A002010B5002268211048A5
:104B500000F0DAFAFE220F4B92051A6000225A602A
:104B60009A60DA6000230C490B804B808B800B49E4
:104B70000B804B808B800A490B804B808B800949CE
:104B80000B804B808B80084B1A605A609A6010BD76
:104B9000A41A0020E01A00207C1A00209C1A002091
:104BA000821A0020881A0020901A0020F8B55F4C65
:104BB000200001F07DFC20005D4901F04BFBE1216C
:104BC0005C4C49022000FFF767FB237C002B00D1DF
:104BD000FEE759492000FFF7E5FD584D280000F099
:104BE00085FB00210220FFF72FF955492000FFF730
:104BF000D9FD280000F020FC002804D151492000F4
:104C0000FFF7DAFDFEE750492000FFF7D5FD4F49D9
:104C10002000FFF7C7FD2000FFF750FB002804D05D
:104C20002000FFF787FB0028F5D12000FFF746FBA7
:104C30000028FAD02000FFF741FB002804D0200014
:104C4000FFF778FB0028F5D141492000FFF7AAFDC6
:104C5000280001F06BF83F4E00213070280000F072
:104C60002FFC0021280000F034FC0021280000F077
:104C700039FC0021280000F0F6FB0021280000F09C
:104C800001FC0021280000F00CFC3778002F3ED1F9
:104C90000621280001F01CF80621280000F0DCFFA6
:104CA0002D492000FFF788FD280000F063FD2B4907
:104CB0002000FFF777FD0121280000F01CFC2849A7
:104CC0002000FFF75AFD0A2239002000FFF7C1FD3E
:104CD00024492000FFF766FD04222349380003F031
:104CE000FFFC280000F0A4FA204B21491870200096
:104CF000FFF758FD01221F4B28001A7001F0BCF984
:104D00001D4B188001210D20FFF79EF8F8BD1B49AF
:104D10002000FFF732FD31780A222000FFF7A9FDBD
:104D200017492000FFF73EFDECE7C046FC1A0020C3
:104D3000801A0600E40400203D910000A41A00201F
:104D4000599100007791000091910000AF9100000F
:104D5000CE9100008F1A0020E29100000192000025
:104D6000119200004B920000394A0000791A00208D
:104D700050920000381A0020DC1A00207A920000BD
:104D80009B920000F0B589B007930EAB1B8805908D
:104D90000691160003930F9CFEF7ECFC0490002C88
:104DA00000D1274C00273D00BE4239DD0599200087
:104DB00001F084FB236806991B68200098470121B5
:104DC000200001F087FCF21B202A00DD20220123B5
:104DD00001930023D2B200930599200001F050FD09
:104DE000236820001B699847002812D0039B002BE2
:104DF00008D1236820005B699847079B5855013507
:104E0000EDB2EDE7FEF7B6FC049BC01A039B984297
:104E1000EFD3331C202E00D92023DBB2FF18C3E7C9
:104E2000039B002B09D0FEF7A5FC049BC01A039B33
:104E3000984202D3B54200D2FF2568B209B0F0BD56
:104E4000FC1A002013B5049C009301941300012266
:104E5000FFF798FF16BDF0B50F2485B01E000AAB12
:104E600020CB17000C9A6C441B8800922200FFF79D
:104E7000E9FF002809D00123B340BF1B0137013BE4
:104E8000BB40227813403B412B7005B0F0BD0000C1
:104E9000F0B58DB00B9312AB1B8807900A91059269
:104EA0000393139CFEF766FC0690002C00D1354C52
:104EB000059B5B0002936B461B7A0893029B202B99
:104EC00000DD2023DBB2099300231D000493049B23
:104ED000029A934245DA0799200001F0EFFA23681D
:104EE0000A991B68200098470121200001F0F2FB7D
:104EF0000126002301960093089A0799200001F0EB
:104F0000BFFC236820001B69984700281BD0059B25
:104F10009D4218D2039B002B0ED10B9B6F00DF1913
:104F200023685B69002E15D1200098473B88013526
:104F300018433880EDB211E0FEF71CFC069BC01A46
:104F4000039B9842E9D3099A049B94466344DBB2DD
:104F50000493BCE7200098470002388001235E409C
:104F6000CFE7039B002B0AD0FEF704FC069BC01A78
:104F7000039B984203D3059B9D4200D2FF2568B254
:104F80000DB0F0BDFC1A0020F8B5069C0F0016000D
:104F90001D00002C00D10E4C0100200001F08EFA03
:104FA000236839001B6820009847AE19B54206D027
:104FB000236829781B68200098470135F6E701210E
:104FC000200001F087FB43425841C0B2F8BDC04603
:104FD000FC1A00201FB51C000F236B441A700094AC
:104FE0000122FFF7D1FF04B010BD0000F0B50F247F
:104FF00087B0170002AAA41803930C9A0D4B0E0059
:105000001B88009222000500FFF71CFF0123217876
:10501000BB400A0003985BB29A43002801D00B43BF
:10502000DAB20C9B310028002270FFF7D3FF07B0E3
:10503000F0BDC046D0000020F0B50F2487B01F009F
:105040000CAB1B78029202AA0393A418114B0D9A81
:105050001B880092220005000E00FFF7F3FE0300FC
:105060000020834213D0029B039AD91B0123BB402B
:1050700001318A40013B8B40D1B2227828009A430B
:105080000B401A4331000D9B2270FFF7A3FF07B0BE
:10509000F0BDC046D0000020F8B5069C0F001600F9
:1050A0001D00002C00D1114C0100200001F006FA77
:1050B000236839001B68200098477600AE19B54276
:1050C0000CD029882368090A1B68200098472368A8
:1050D00029781B68200098470235F0E7012120005D
:1050E00001F0F8FA43425841C0B2F8BDFC1A002062
:1050F0001FB51C000E236B441A8000940122FFF799
:10510000CBFF04B010BD0000024B01704260836110
:105110007047C046F82A0000030010B50A00007866
:105120005B681921FFF756FF10BD030007B55B68E8
:10513000007805220193009103231A21FFF77CFFD9
:1051400007BD030007B55B68007802220193009158
:1051500003231A21FFF770FF07BD030007B55B6843
:10516000007804220193009102231B21FFF764FFC2
:1051700007BD00001FB50400636800780293074B69
:1051800004221B881C21019323000833009302236F
:10519000FFF761FE207A04B010BDC046D0000020A9
:1051A000030007B55B680078042201930091022395
:1051B0001C21FFF741FF07BD030010B50A0000786E
:1051C0005B681F21FFF706FF10BD030010B50A0042
:1051D00000785B682021FFF7FDFE10BD030010B5CD
:1051E0000A0000785B682121FFF7F4FE10BD030080
:1051F00010B50A0000785B682221FFF7EBFE10BDB6
:10520000030010B50800032907D8032141432531C5
:105210001878C9B25B68FFF7DDFE10BD030010B55A
:105220000A0000785B683821FFF7D4FE10BD00004B
:1052300013B5040002006168044B08321B88007833
:1052400000913A21FFF7FEFD207A16BDD000002024
:1052500007B5020052680B0000786A21009206220E
:10526000FFF7C4FE07BD07B5020052680B000078C7
:105270006A2100920522FFF7B9FE07BD030007B5BA
:105280005B680078022200936A210123FFF7AEFEDB
:1052900007BD030007B55B680078009301236A210E
:1052A0001A00FFF7A3FE07BD030007B55B6800788F
:1052B000072200936B210123FFF798FE07BD07B576
:1052C000020052680B0000786B2100920622FFF763
:1052D0008DFE07BD030007B55B68007802220193CD
:1052E000009103236B21FFF7A7FE07BD10B5040053
:1052F0000121FFF7EFFF20000021FFF72EFF074BF2
:10530000200023620021FFF74BFFE4239B05E361AC
:1053100000212000FFF7D3FF10BDC04600007A3CFB
:1053200013B504000300626800780192064A08334E
:105330001288722100920222FFF724FD237A607AFC
:105340001B02184316BDC046D000002013B50B0049
:10535000002A0AD041680478019105492000098893
:1053600000917421FFF70EFD13BD0A70FCE7C046E3
:10537000D0000020F0B58BB0050001911600FEF7BB
:10538000FFF900902800FFF7CBFF03B2B3422ADDFC
:10539000C82B12DD2800FFF771FF2800FFF7C0FFC0
:1053A00003B2002B21D1FEF7EBF9009BC01AAB69C9
:1053B0009842F2D900200BB0F0BD2800FFF7B0FFF3
:1053C00003B29E420FDA801B04B2002CF5D0271CDA
:1053D000202C00DD2027FAB202A92800E41BFFF7E9
:1053E000B5FF24B2F1E7002BE4D09E4207D0FEF7D0
:1053F000C7F9009BC01AAB699842C3D9DAE7280005
:1054000032000199FFF7A2FF0120D4E71FB5040085
:10541000636800780293074B75211B880193230072
:105420000833009306231A00FFF715FD207A04B015
:1054300010BDC046D000002010B5FFF7E7FF0123E4
:10544000342803D00C3843425841C3B2180010BD71
:1054500007B5020052680078009200220B0011008C
:10546000FFF7C4FD07BD70B50C000500FFF7CEFFC8
:105470000621372800D9713128786B68A2B2FFF76E
:1054800037FE70BD70B50C000500FFF7BFFF0821A7
:10549000372800D9723128786B68A2B2FFF728FE4E
:1054A00070BD70B50C000500FFF7B0FF0A2137286A
:1054B00000D9733128786B68A2B2FFF719FE70BD6E
:1054C000030010B58AB200785B681321FFF710FE65
:1054D00010BD030010B58AB200785B681521FFF794
:1054E00007FE10BD030010B58AB200785B68172173
:1054F000FFF7FEFD10BD07B5020052680B000078F3
:105500006A2100920722FFF771FD07BD030007B56E
:105510005B680078032200936A210123FFF766FD90
:1055200007BD10B51F242140002B01D020231943B3
:10553000002A01D040231943047843680A00200060
:105540006D21FFF747FD10BD030010B50A0000787C
:105550005B686E21FFF73EFD10BD0000F0B58BB01B
:10556000069310AB1E7811AB1B780500089312ABA5
:105570001B78099104930023079206991A00FFF7FC
:10558000D0FF31002800FFF7DFFF00230593089BC1
:10559000002B03D0102003F0E1FB059000230393C0
:1055A000049B002B03D0102003F0D8FB03900027AE
:1055B000079B9F426CD21024079A3B19934201DD4E
:1055C000D41BE4B280235B009B1B9C4201DD744230
:1055D000E4B2049B002B0AD00023099AD119DAB255
:1055E000944207D9CA5C0398C2540133F7E7099B78
:1055F000DB1903936B68287800932200039B6F21CB
:10560000FFF7C2FC089B002B2AD0059B002B27D05C
:10561000002306991A002800FFF783FF31002800B5
:10562000FFF792FF6B6822000193224B6F211B88CA
:1056300028780093059BFFF7A5FB220005990398A6
:1056400003F0A0FB00280BD0059803F091FB049B0E
:10565000002B29D0039803F08BFB0023049323E055
:105660003F19079B3619BFB2F6B2BB42A0D9002E34
:1056700003D1069B0133DBB2069300230699280071
:105680001A00FFF74EFF31002800FFF75DFF8FE79C
:10569000089B002B02D0059803F06AFB049B002BAB
:1056A00005D0039803F064FB04980BB0F0BD012310
:1056B000D4E7C046D00000207FB5012608AC09AD74
:1056C00024782D78029601950094FFF747FF04B0E7
:1056D00070BD030010B50A0000785B687021FFF709
:1056E00079FC10BD030010B50A0000785B687121D9
:1056F000FFF770FC10BD000073B504002600FFF733
:1057000085FE63681A4D01932B88243602000093AE
:1057100020783300372A11D803220621FFF7B8FB7F
:10572000230062682A330192114A207812881321DB
:1057300000920322FFF7ACFB300076BD01227721F7
:10574000FFF7A6FB6368012201932B887A2100935F
:10575000230020782633FFF79BFB636820780193B2
:105760002B880122009323007D212833D6E7C046F1
:10577000D0000020F7B50500FFF7BEFF2423E85E48
:10578000FBF78EFDFDF7B4FB05262E4C0B00020047
:1057900000962000FFF726F92B4F20003900FEF776
:1057A000F0FF2623E85EFBF77BFDFDF7A1FB0096EB
:1057B0000B0002002000FFF715F939002000FEF76A
:1057C000E0FF2823E85EFBF76BFDFDF791FB0096F9
:1057D0000B0002002000FFF705F939002000FEF75A
:1057E000D0FF2A23E85EFBF75BFDFDF781FB009607
:1057F0000B0002002000FFF7F5F839002000FEF74B
:10580000C0FF2C23E85EFBF74BFDFDF771FB009614
:105810000B0002002000FFF7E5F839002000FEF73A
:10582000B0FF2E23E85EFBF73BFDFDF761FB009622
:1058300002000B002000FFF7D5F804492000FEF716
:10584000A0FFF7BDE40400209D920000A09200009C
:10585000F0B59BB00D9320AB1B78070008910C921C
:1058600013933B2910D1FFF7D1FD372800D8EFE182
:1058700077230393743B38000793FFF77BFC802367
:10588000DB0103419BB205E013230393113B079314
:1058900080239B0100243E21E0481293FEF74EFE38
:1058A000039D0A2612ABF6187B6838780193DC4B0F
:1058B00001221B88290000933300FFF7E9FA002337
:1058C000F65E3000FBF7ECFC039B132B00D14EE19E
:1058D000012282211640630015AA9E52A600C90526
:1058E000FBF7B2F917ABF050079B0134ED18EDB29E
:1058F000032CD6D1089B3B2B00D03BE1C94BCA4CB3
:105900001093119400230A930A9A139B934200DC8C
:1059100096E1002305930993039B0B9300230493C3
:1059200006930A2412ABE418049B38785900089BAC
:10593000012259187B68C9B20193B94B1B880093A7
:105940002300FFF7A5FA0023E05EFBF7A9FC089B04
:10595000041C3B2B0AD1049B022B07D11298FBF7A6
:105960009FFC011C201CFBF7A1FA041C8023069855
:105970001B06E618FBF7DEFC0021051C201CFAF7CD
:10598000A7FD002800D1341C211C281CFAF7EAFDD1
:10599000FAF7B2FD0690301CFDF7AAFAA34AA44B11
:1059A000FCF72EFC04000D980D00FDF7A1FA020093
:1059B0000B0020002900FCF723FC049B17AD9C0082
:1059C0000E900F916059FDF793FA0B0002000E98AC
:1059D0000F99FBF7EFFCFDF7DDFA311C0E906051DB
:1059E0000C98FBF731F90E99FAF7BCFD039B132BCA
:1059F00000D1C7E0F8218905FBF726F9061CFDF761
:105A000077FA04000D00301C0021FAF76BFD00222C
:105A1000884B002800D1B0E020002900FBF7CAFC29
:105A2000FDF7C4F90122049B00B290435B0015AA64
:105A30009B5A18430A2312AA9B1818807B6838784F
:105A400000930A2312AA9B180B990122FFF724FB4B
:105A5000079A049B9446013304930B9B6344DBB287
:105A60000B93049B032B00D05BE7059B632B0AD1B0
:105A7000FA23069A9B009A4205D92A216748FEF725
:105A80005DFD002305930698FDF700FA109A119B1F
:105A9000FCF7B6FB0022684BFAF7CCFC002803D0D9
:105AA000099B01331BB20993069B632B00D987E046
:105AB000059B0A2B00DC83E0099B092B00DC7FE0BF
:105AC0002E215648FEF73AFDFD210C988905FBF77B
:105AD000BBF8FD210C9089050D98FBF7B5F8039BE9
