:100000000C94BD040C9470120C9449120C94E504E9
:100010000C94E5040C94E5040C94E5040C94E504BC
:100020000C94E5040C94E5040C94E5040C94E504AC
:100030000C94E5040C94E5040C94E5040C94E5049C
:100040000C94FF110C94E5040C94BD120C949712BF
:100050000C94E5040C94E5040C94E5040C94E5047C
:100060000C94EF120C94E504084AD73B3BCE016E8A
:1000700084BCBFFDC12F3D6C74319ABD56833DDAFF
:100080003D00C77F11BED9E4BB4C3E916BAAAABE0E
:10009000000000803F0000000000240027002A002C
:1000A000FB00003E000B00360001000200030000D0
:1000B00000650054FFEF0000FA80000B128200017F
:1000C000000200000000000000000000000000002E
:1000D00000280000FFFF4581FFFFFA7200000000CA
:1000E000000003E80000000100017FFFFFFE800127
:1000F000001B0000000000000000000000000000E5
:10010000004000004000000002CB47A22000000099
:10011000200000000000000040000000600000001F
:1001200041FF000000000B2A00001655000021824C
:10013000FD872650FD800000001F000000058000A4
:1001400000000000000100000002000000030000A9
:10015000400000000000046F0002653200005EC035
:10016000400000000000000000000000000000004F
:10017000FB8C6F5DFD5D08D9007C733B006C12CC7D
:100180003200139D3200D0D632000800400001F446
:10019000FFE68079020000000000D0D600002710A2
:1001A000FB00000040000000000000000000000014
:1001B000000000010000000000000100010000003C
:1001C0000000FA36FFBC308E0005FBF0FFD95BC89B
:1001D000FFD09ABE000010A9FFF41EB200CEBBF7FC
:1001E0000000000100000004000200020200000CF8
:1001F000FFC280000001800000CF800040000000AE
:1002000000000000000000000000060000000014D4
:1002100000000000000000000000000000000000DE
:1002200000000000000000000000000000000000CE
:100230000923A135000000000000000000000000BC
:1002400000000000033F68B6793528BCC67ED16C3B
:100250008000FFFF400000000000B26A00000000C4
:10026000000000000000000000003FF0000000302F
:10027000000000000000000000000000000000007E
:10028000000000000000000000000000000040002E
:100290000000254D002F706D000005AE000C02D04F
:1002A0000000000000650054FFEF000000000000A7
:1002B000000001000044000100058BC100000100A6
:1002C000000000000065000000540000FFEF000087
:1002D000000000000000000000000000000000001E
:1002E000000000000000000000000000000000000E
:1002F00000000000000000000000000000000000FE
:1003000000000001000000020000000000000000EA
:1003100000000000000000000000000000000000DD
:1003200000000000000000000000000000000000CD
:10033000001B0000000000000000000000000000A2
:1003400000000000000000000000000000000000AD
:10035000000000000000000000000000000000009D
:10036000001B000000000000000000000000000072
:10037000000000000000000000000000000000007D
:10038000000000000000000000000000000000006D
:10039000000000000000000000000000000000005D
:1003A000D8DCBAA2F1DEB2B8B4A88191F74A907F46
:1003B000916AF3F9DBA8F9B0BAA080F2CE81F3C25A
:1003C000F1C1F2C3F3CCA2B280F1C6D880BAA7DFE4
:1003D000DFDFF2A7C3CBC5B6F087A2942448703CF8
:1003E00095406834589B78A2F183922D557DD8B101
:1003F000B4B8A1D09180F270F370F27C80A8F101C2
:10040000B09887D943D886C988BAA1F20EB8978028
:10041000F1A9DFDFDFAADFDFDFF2AA4CCD6CA90C88
:10042000C92C97979797F1A989264666B0B4BA80E8
:10043000ACDEF2CAF1B28C02A9B69800890E161E83
:10044000B8A9B4992C547CB08AA896365676F1B9DE
:10045000AFB4B083C0B8A89711B18F98B9AFF024EA
:100460000844106418F1A329557DAF83B593AFF00C
:10047000002850F1A3869F61A6DADEDFD9FAA386B1
:1004800096DB31A6D9F8DFBAA68FC2C5C7B28CC138
:10049000B8A2DFDFDFA3DFDFDFD8D8F1B8A8B286EC
:1004A000B4980D355DB8AA98B0872D353DB2B6BA6F
:1004B000AF8C96198F9FA70E161EB49AB8AA872CD8
:1004C000547CB9A3DEDFDFA3B180F2C4CDC9F1B89B
:1004D000A9B499830D355D89B9A32D557DB593A335
:1004E0000E161EA92C547CB8B4B0F19783A81184C1
:1004F000A50998A383F0DA240844106418D8F1A55C
:1005000029557DA58595021A2E3A565A4048F9F389
:10051000A3D9F8F098832408441064189782A8F1AE
:1005200011F098A2240844106418DAF3DED883A5E9
:100530009401D9A302F1A2C3C5C7D8F18492A24DF8
:10054000DA2AD84869D92AD86855DA32D85071D908
:1005500032D8705DDA3AD85879D93AD87893A34D21
:10056000DA2AD84869D92AD86855DA32D85071D9E8
:1005700032D8705DDA3AD85879D93AD878A88A9AB8
:10058000F02850789EF38818F19F1D98A8D908D8B4
:10059000C89F129EF315A8DA1210D8F1AFC897873A
:1005A00034B5B994A421F3D922D8F22DF3D92AD89D
:1005B000F235F3D932D881A4606061D961D86C6812
:1005C00069D969D8747071D971D8B1A384193D5DA6
:1005D000A3831A3E5E931030811011B8B0AF8F9490
:1005E000F2DA3ED8B49AA88729DAF8D8879A35DAA9
:1005F000F8D8879A3DDAF8D8B1B9A49885022E5672
:10060000A581000C14A397B08AF12DD928D84DD913
:1006100048D86DD968D8B1840DDA0ED8A32983DA09
:100620002C0ED8A3844983DA2C4C0ED8B8B0A88AF3
:100630009AF520AADADFD8A840AAD0DADED8A860D6
:10064000AADAD0DFD8F19786A8319B069907AB9735
:1006500028889BF00C201440B8B0B4A88C9CF004FF
:100660002851791D301438B282ABD0982C50507874
:10067000789BF11AB0F08A9CA82951798B2951797D
:100680008A2470598B2058718A4469388B394068A4
:100690008A6448318B304960A588200971584468C4
:1006A000113964493019F1AC002C547CF08CA80449
:1006B000285078F1889726A85998AC8C022646666F
:1006C000F0899CA8295179247059446938644831CB
:1006D000A98809205970AB11384069A819314860C0
:1006E0008CA83C415C207C00F187981986A86E7626
:1006F0007EA999882D557D9EB9A38A228A6E8A5635
:100700008A5E9FB183062646660E2E4E6E9DB8AD5C
:10071000002C547CF2B18CB499B9A32D557D8191F4
:10072000AC38AD3AB58391AC2DD928D84DD948D83D
:100730006DD968D88C9DAE29D904AED851D904AEF4
:10074000D879D904D881F39DAD008DAE1981ADD98A
:1007500001D8F2AEDA26D88E912983A7D9ADADADF6
:10076000ADF32AD8D8F1B0AC89913E5E76F3AC2EC9
:100770002EF1B18C5A9CAC2C2828289CAC3018A89F
:10078000988128343C9724A728343C9C24F2B089D3
:10079000AC912C4C6C8A9B2DD9D8D851D9D8D8790A
:1007A000D9D8D8F19E88A331DAD8D8912DD928D8B4
:1007B0004DD948D86DD968D8B18393353D8025DAB5
:1007C000D8D88569DAD8D8B49381A328343CF3AB60
:1007D0008BF8A391B609B4D9ABDEFAB0879CB9A364
:1007E000DDF1202830389AF12830389DF1A3A3A3F9
:1007F000A3F2A3B49080F2A3A3A3A3A3A3A3A3A350
:10080000A3B2A3A3A3A3A3A3B087B599F1283038BB
:1008100098F1A3A3A3A397A3A3A3A3F39BA330DC63
:10082000B9A7F1262626FED8FF2900444D502049BD
:100830006E697469616C697A6174696F6E20666152
:10084000696C65642028636F64652000444D502006
:100850007265616479212057616974696E672066E9
:100860006F7220666972737420696E746572727536
:1008700070742E2E2E00292E2E2E00456E61626C75
:10088000696E6720696E7465727275707420646534
:1008900074656374696F6E202841726475696E6F48
:1008A0002065787465726E616C20696E7465727211
:1008B0007570742000456E61626C696E6720444DEE
:1008C000502E2E2E00496E697469616C697A696ECA
:1008D0006720444D502E2E2E000A53656E64206111
:1008E0006E792063686172616374657220746F2031
:1008F000626567696E3A200054657374696E67209B
:100900004D50553630353020636F6E6E65637469B7
:100910006F6E2E2E2E00496E697469616C697A695A
:100920006E672049324320646576696365732E2EB5
:100930002E0000000000250028002B000404040401
:100940000404040402020202020203030303030379
:100950000102040810204080010204081020010256
:100960000408102000000008000201000003040732
:1009700000000000000000000E1411241FBECFEF85
:10098000D8E0DEBFCDBF11E0A0E0B1E0E0E7FFE3DB
:1009900002C005900D92A03AB107D9F723E0A0EA72
:1009A000B1E001C01D92A93AB207E1F714E0CDEB26
:1009B000D4E004C02197FE010E947E1ECC3BD107EB
:1009C000C9F70E9479140C94B61F0C94000090E0B3
:1009D000FC01EC59F64F2491FC01E05BF64F349199
:1009E000FC01E45CF64FE491EE23C9F0222339F0D8
:1009F000233001F1A8F4213019F1223029F1F0E07F
:100A0000EE0FFF1FEE5CF64FA591B4918FB7F894EF
:100A1000EC91611126C030953E233C938FBF089521
:100A20002730A9F02830C9F0243049F780918000A0
:100A30008F7D03C0809180008F7780938000DFCF0F
:100A400084B58F7784BDDBCF84B58F7DFBCF80915C
:100A5000B0008F778093B000D2CF8091B0008F7DAF
:100A6000F9CF3E2BDACF3FB7F89480913F029091B7
:100A70004002A0914102B091420226B5A89B05C058
:100A80002F3F19F00196A11DB11D3FBFBA2FA92F0D
:100A9000982F8827BC01CD01620F711D811D911D0A
:100AA00042E0660F771F881F991F4A95D1F7089576
:100AB0008F929F92AF92BF92CF92DF92EF92FF926E
:100AC0004B015C010E9433056B017C010E943305E0
:100AD0006C197D098E099F09683E73408105910557
:100AE000A8F321E0821A9108A108B10888EEC80E87
:100AF00083E0D81EE11CF11C81149104A104B1040F
:100B000029F7FF90EF90DF90CF90BF90AF909F902C
:100B10008F9008952FB7F89460913B0270913C023A
:100B200080913D0290913E022FBF089581E0809315
:100B3000A0010895089508950895AF92BF92CF92AD
:100B4000DF92EF92FF920F931F93CF93DF936C018D
:100B50007B018B01040F151FEB015E01AE18BF086E
:100B6000C017D10759F06991D601ED91FC91019020
:100B7000F081E02DC6010995892B79F7C501DF9138
:100B8000CF911F910F91FF90EF90DF90CF90BF908A
:100B9000AF900895FC01538D448D252F30E0842FB4
:100BA00090E0821B930B541710F0CF960895019795
:100BB0000895FC01918D828D981761F0A28DAE0F82
:100BC000BF2FB11D5D968C91928D9F5F9F73928F09
:100BD00090E008958FEF9FEF0895FC01918D828D35
:100BE000981731F0828DE80FF11D858D90E0089502
:100BF0008FEF9FEF0895FC01918D228D892F90E05A
:100C0000805C9F4F821B91098F739927089583EB16
:100C100092E00E94FB0521E0892B09F420E0822F5D
:100C2000089580E090E0892B29F00E940706811149
:100C30000C9400000895FC01A48DA80FB92FB11DDC
:100C4000A35ABF4F2C91848D90E001968F73992702
:100C5000848FA689B7892C93A089B1898C918370E0
:100C600080648C93938D848D981306C00288F389D9
:100C7000E02D80818F7D80830895EF92FF920F9306
:100C80001F93CF93DF93EC0181E0888F9B8D8C8D38
:100C900098131AC0E889F989808185FF15C09FB72C
:100CA000F894EE89FF896083E889F98980818370EF
:100CB000806480839FBF81E090E0DF91CF911F919E
:100CC0000F91FF90EF900895F62E0B8D10E00F5FBF
:100CD0001F4F0F731127E02E8C8D8E110CC00FB695
:100CE00007FCFACFE889F989808185FFF5CFCE012D
:100CF0000E941B06F1CFEB8DEC0FFD2FF11DE35A87
:100D0000FF4FF0829FB7F8940B8FEA89FB898081AF
:100D10008062CFCF0F931F93CF93DF938C01D0E0EE
:100D2000C0E0F801EC0FFD1F6491662341F083EBF6
:100D300092E00E943D06892B11F02196F2CFCE0160
:100D4000DF91CF911F910F910895CF93DF93EC0125
:100D5000888D8823B9F0AA89BB89E889F9898C91A3
:100D600085FD03C0808186FD0DC00FB607FCF7CF5F
:100D70008C9185FFF2CF808185FFEDCFCE010E945F
:100D80001B06E9CFDF91CF9108952091C201260F74
:100D90003327331F21323105ECF42091AD02FC01E1
:100DA00090E080E0243069F082E00895A091C201D3
:100DB0002191AC014E555E4FA40FB52FB11D2C9360
:100DC0000196861798F38091C201680F6093C20163
:100DD00080E0089581E008951092AD0281E0809353
:100DE0008C021092870261E082E10E94E70461E0D8
:100DF00083E10E94E704E9EBF0E080818E7F80834D
:100E000080818D7F808388E48093B80085E480931F
:100E1000BC000895CF93DF9391E09093A1018823C4
:100E2000B9F0C091B800D091BA008091BC008A7B23
:100E30008093BC0060E082E10E94E70460E083E10F
:100E40000E94E7040E94EC06D093BA00C093B80059
:100E5000DF91CF910895CF92DF92EF92FF920F939F
:100E60001F93CF93DF93D82FC62F613208F098C01D
:100E70000E9433056B017C018091AD0281116BC032
:100E800081E08093AD0280938C029FEF90938B0260
:100E900010928A029C0F909389028093880280911D
:100EA0008802DD0FD82BD093880280918702813091
:100EB00009F078C0109287020E9433056B017C0113
:100EC000809188028093BB008091AF029091B00224
:100ED000A091B102B091B202892B8A2B8B2BA1F089
:100EE0000E9433050091AF021091B0022091B1022F
:100EF0003091B2026C197D098E099F0906171707F8
:100F00002807390708F448C08091BC0083FDD8CF7A
:100F100085EC8093BC000E9433056B017C018091BD
:100F2000AD02813009F440C080918A028C1710F420
:100F3000C0918A02E7E6F2E0ADE8B2E080E08C130F
:100F400055C08C2FDF91CF911F910F91FF90EF90A3
:100F5000DF90CF9008958091AF029091B002A09160
:100F6000B102B091B202892B8A2B8B2B09F484CF6A
:100F70000E9433050091AF021091B0022091B1029E
:100F80003091B2026C197D098E099F090617170767
:100F90002807390708F070CF8091AE020E940A0737
:100FA000C0E0CFCF85EEB5CF8091AF029091B00277
:100FB000A091B102B091B202892B8A2B8B2B09F43C
:100FC000AECF0E9433050091AF021091B002209184
:100FD000B1023091B2026C197D098E099F09061782
:100FE00017072807390708F09ACFD6CF91919D931C
:100FF0008F5FA5CF8F929F92AF92BF92CF92DF92D9
:10100000EF92FF920F931F93CF93DF93D0916602DD
:10101000D13208F0D7C0182FC09165020E94330565
:101020006B017C018091AD0281116BC082E08093E5
:10103000AD0210938C028FEF80938B0210928A0284
:10104000D0938902A5E4B2E0E7E6F2E080E0D813AD
:1010500091C01092880280918802CC0FC82BC09357
:10106000880280918702813009F088C0109287023F
:101070000E9433056B017C01809188028093BB0044
:101080008091AF029091B002A091B102B091B202F2
:10109000892B8A2B8B2BA1F00E9433050091AF0284
:1010A0001091B0022091B1023091B2026C197D0909
:1010B0008E099F09061717072807390708F442C049
:1010C0008091BC0083FDD8CF85EC8093BC000E944A
:1010D00033056B017C018091AD02823009F450C070
:1010E00080918B028F3F09F46FC080918B02803218
:1010F00009F46CC080918B02803309F469C084E0EC
:1011000026C08091AF029091B002A091B102B0913F
:10111000B202892B8A2B8B2B09F484CF0E943305D2
:101120008090AF029090B002A090B102B090B20255
:101130006C197D098E099F0986169706A806B906BF
:1011400008F070CF8091AE020E940A0785E01092ED
:1011500044021092660210924302DF91CF911F91D8
:101160000F91FF90EF90DF90CF90BF90AF909F9046
:101170008F9008959D9191938F5F69CF85EEA5CF54
:101180008091AF029091B002A091B102B091B202F1
:10119000892B8A2B8B2B09F49ECF0E94330500915B
:1011A000AF021091B0022091B1023091B2026C19DD
:1011B0007D098E099F09061717072807390708F0C8
:1011C0008ACFC0CF81E0C3CF80E0C1CF82E0BFCF64
:1011D00083E0BDCF0F931F93CF93DF938A01E90183
:1011E000209711F4C0E5D3E091E0909343028093FF
:1011F00065021092440210926602E881F981019022
:10120000F081E02DCE010995D80111966C91E8810D
:10121000F9810190F081E02DCE010995E881F981F5
:101220000190F081E02DD8016C91CE01099581E00B
:101230000E94FA0791E0811190E0892FDF91CF9110
:101240001F910F9108950895E091EA018091E901BD
:10125000E81730F4F0E0E357FD4F808190E0089507
:101260008FEF9FEF08959091EA018091E9012FEFB0
:101270003FEF981748F4E92FF0E0E357FD4F208146
:1012800030E09F5F9093EA01C90108958091E901E0
:101290009091EA01891B990B0895CF92DF92EF920A
:1012A000FF920F931F93CF93DF937C01CB018A01B1
:1012B00020914302222389F0EB016B01C40ED51E5D
:1012C000CC15DD0569F06991D701ED91FC91019094
:1012D000F081E02DC7010995F3CF642F0E94C50668
:1012E000C801DF91CF911F910F91FF90EF90DF9098
:1012F000CF900895CF93DF931F92CDB7DEB7698368
:10130000209143022223F9F020916602203258F006
:1013100021E030E0FC013383228390E080E00F90F5
:10132000DF91CF91089580914402E82FF0E0EB5BCC
:10133000FD4F998190838F5F809344028093660272
:1013400081E090E0ECCF61E0CE0101960E94C506FD
:10135000F7CF90E080E00895DF92EF92FF920F9335
:101360001F93CF93DF93E42ED22EF32EE801209724
:1013700011F4C0E5D3E091E09093430280936502BD
:101380001092440210926602E881F9810190F08186
:10139000E02DCE0109950D2D1F2DE00EF12EF11C33
:1013A0000E151F0559F0F80161918F01E881F9814F
:1013B0000190F081E02DCE010995F2CF81E00E94ED
:1013C000FA0791E0811190E0892FDF91CF911F9171
:1013D0000F91FF90EF90DF900895CF93DF9300D0AF
:1013E000CDB7DEB75A834983AE014F5F5F4F0E948E
:1013F000EA080F900F90DF91CF9108950F931F93FC
:10140000CF93DF931F92CDB7DEB7498389019E0149
:101410002F5F3F4F41E00E94AC090F90DF91CF91C9
:101420001F910F910895E8E7F3E021813281482F61
:101430006EE680810C94FE09FC0101900020E9F722
:101440003197AF01481B590BBC0183EB92E00C9420
:101450009D058F929F92AF92BF920F931F93CF9350
:10146000DF93CDB7DEB7A1970FB6F894DEBF0FBEFE
:10147000CDBF19A2423008F44AE08E010F5D1F4F24
:10148000842E912CB12CA12CA50194010E94191B32
:10149000E62FB901CA01EA30F4F4E05DD801EE9319
:1014A0008D01232B242B252B79F790E080E01097DA
:1014B00019F0CD010E941C0AA1960FB6F894DEBF68
:1014C0000FBECDBFDF91CF911F910F91BF90AF9015
:1014D0009F908F900895E95CE1CFCF93DF930E94B6
:1014E0008A06EC018EE291E00E941C0A8C0F9D1F7F
:1014F000DF91CF910895CF93DF930E941C0AEC01F6
:101500008EE291E00E941C0A8C0F9D1FDF91CF910B
:1015100008954F925F926F927F928F929F92AF92B7
:10152000BF92CF92DF92EF92FF920F931F93CF93D0
:101530006B017C01742EAC019B010E94641E882308
:1015400099F081E391E0CF911F910F91FF90EF907F
:10155000DF90CF90BF90AF909F908F907F906F90D3
:101560005F904F900C941C0A46015701E894B7F81D
:101570002FEF3FEF4FE75FE7C501B4010E94641E04
:1015800081110DC02FEF3FEF4FE75FE7C501B401B9
:101590000E941A1C18161CF485E391E0D4CF2FEF9B
:1015A0003FEF4FE75FE4C701B6010E94A01D181688
:1015B0001CF489E391E0C7CF2FEF3FEF4FE75FECDB
:1015C000C701B6010E941A1C87FDF3CF20E030E06E
:1015D000A901C701B6010E941A1C10E000E087FFB4
:1015E0000AC06DE283EB92E00E943D068C01F7FA9F
:1015F000F094F7F8F094C0E060E070E080E09FE3E2
:101600007C1641F020E030E040E251E40E941F1CD3
:10161000CF5FF6CFA70196010E943C1B2B013C0136
:101620000E94981C4B015C014AE00E94290A7C013F
:10163000E00EF11ECC23C1F1C501B4010E94C71C0C
:101640009B01AC01C301B2010E943B1B4B015C0139
:101650006EE283EB92E00E943D06E80EF91EC15057
:1016600018F120E030E040E251E4C501B4010E94ED
:10167000AD1D2B013C010E94981C4B01B12CA12CEB
:101680004AE0C501B4010E94290AE80EF91EC5010D
:10169000B4010E94C71C9B01AC01C301B2010E94AE
:1016A0003B1B4B015C01DBCFC701CF911F910F9119
:1016B000FF90EF90DF90CF90BF90AF909F908F9072
:1016C0007F906F905F904F9008952F923F924F922E
:1016D0005F926F927F928F929F92AF92BF92CF92C2
:1016E000DF92EF92FF920F931F93CF93DF93CDB7CB
:1016F000DEB72B970FB6F894DEBF0FBECDBFA82E76
:101700006B83B42E3D832C836801FB86EA860E949E
:101710008A052B013C01EA84FB84EF2821F420E5B3
:1017200033E03B872A878B2C912C880C991C3B2D0E
:10173000330F39838A82F12C10E0EE24E394C60142
:10174000B0E0A0E08E839F83A887B987F8141904BE
:101750000CF068C0E0924302A0926502109244022D
:1017600010926602AA85BB85ED91FC9111970190BC
:10177000F081E02D6B81CD01099581E00E94FA078F
:1017800069818A2D0E942B071092EA018093E9015A
:1017900001E0AA85BB85ED91FC9111970084F1854C
:1017A000E02DCD010995892B89F11B1578F5C11420
:1017B000D104E9F4212E312C220C331CEC81FD8163
:1017C0002E0E3F1EAA85BB85ED91FC910284F38508
:1017D000E02D01111EC08A859B850995F1012081AC
:1017E0003181822B932B918380831F5F19C00E94CC
:1017F0008A0564197509860997092E813F814885F4
:1018000059856217730784079507A0F23A81F30E92
:101810009DCF8A859B850995D1011C9211968C9349
:101820000E25B7CFC114D10481F00E948A05641936
:10183000750986099709F12CE12C6C157D058E053B
:101840009F0518F01B1508F41FEF812F2B960FB67C
:10185000F894DEBF0FBECDBFDF91CF911F910F91E6
:10186000FF90EF90DF90CF90BF90AF909F908F90C0
:101870007F906F905F904F903F902F9008952F92A0
:101880003F924F925F926F927F928F929F92AF9210
:10189000BF92CF92DF92EF92FF920F931F93CF935D
:1018A000DF9300D000D000D0CDB7DEB789836A8344
:1018B000D42E3C832B83FE82ED820E948A054B014D
:1018C0005C01ED80FE80EF2821F480E593E09E83AB
:1018D0008D83F12CE12CC12C2D2C312C2801712C65
:1018E000612CE214F3040CF05DC091E0909343028C
:1018F000A981A09365021092440210926602AD8104
:10190000BE81ED91FC9111970190F081E02D6A81EB
:10191000CD01099581E00E94FA07B1016E197F0996
:101920006132710514F060E270E0613208F060E24B
:1019300089810E942B071092EA018093E901AD8111
:10194000BE81ED91FC9111970084F185E02DCD01D0
:101950000995892BF9F00115110589F4AD81BE8136
:10196000ED91FC9111970284F385E02DCD0109954D
:10197000EB81FC81EC0DF11D8083C394E0CF0E94CC
:101980008A05681979098A099B0964157505860510
:10199000970520F38D2DB0E2BD1508F480E2E80E26
:1019A000F11C9FCF0115110589F00E948A05681965
:1019B00079098A099B0930E020E0601771078207E6
:1019C000930720F0CD1410F4CC24CA948C2D2696C5
:1019D0000FB6F894DEBF0FBECDBFDF91CF911F9140
:1019E0000F91FF90EF90DF90CF90BF90AF909F90BE
:1019F0008F907F906F905F904F903F902F900895C1
:101A0000EF92FF920F931F93CF93DF93C8E7D3E03A
:101A1000E980FA8008EE13E02BE733E042E062E76A
:101A200088810E943F0C8B819C8198278927982769
:101A3000DF91CF911F910F91FF90EF900895EF925A
:101A4000FF920F931F93CF93DF93EC01E980FA800D
:101A50009C012D5F3F4F08EE13E041E06AE388816F
:101A60000E943F0C8B81DF91CF911F910F91FF90CE
:101A7000EF900895EF92FF920F931F93CF93DF9310
:101A80001F92CDB7DEB7E0907903F0907A0308EEAD
:101A900013E09E012F5F3F4F41E065E7809178039F
:101AA0000E943F0C882339F089818E7790E09595CC
:101AB000879580937B0380917B030F90DF91CF917B
:101AC0001F910F91FF90EF9008957F928F929F92B8
:101AD000AF92BF92CF92DF92EF92FF920F931F933C
:101AE000CF93DF931F92CDB7DEB7A82E962E742E1C
:101AF000822EB02E08EE13E09E012F5F3F4F41E093
:101B00000E943F0C882399F1872D8819990BAC010D
:101B10004F5F5F4F81E090E002C0880F991F8A9469
:101B2000E2F70197042E01C0880F0A94EAF72B2DE3
:101B300001C0220F4A95EAF7482F4095B9804B2102
:101B40008223482B49839701692D8A2D0E94FE0923
:101B50000F90DF91CF911F910F91FF90EF90DF9049
:101B6000CF90BF90AF909F908F907F90089580E02E
:101B7000EFCF8F929F92AF92BF92CF92DF92EF9270
:101B8000FF920F931F93CF93DF931F92CDB7DEB7D2
:101B9000B82EA62E842E922E6801780108EE13E04E
:101BA0009E012F5F3F4F41E00E943F0C81E090E09B
:101BB00001C0880F8A94EAF749819920A9F0482B3F
:101BC000498396016A2D8B2D0E94FE090F90DF91AB
:101BD000CF911F910F91FF90EF90DF90CF90BF902A
:101BE000AF909F908F90089580954823E9CF0F93F1
:101BF0001F93FC010181128121E042E06AE68081AD
:101C00000E94B90D1F910F9108952F923F924F920C
:101C10005F926F927F928F929F92AF92BF92CF927C
:101C2000DF92EF92FF920F931F93CF93DF93CDB785
:101C3000DEB7E7970FB6F894DEBF0FBECDBF8F8F2C
:101C400048A759A76AA77BA70CA71DA72EA73FA740
:101C50008B3309F042C20E943A0D883308F4AFC2B8
:101C600097E79F8BA3E0AA8FE0907903F0907A0327
:101C700008EE13E09E012F5F3F4F41E06CE1809141
:101C800078030E943F0C882351F08981887190E08D
:101C900023E0959587952A95E1F780937B038091C2
:101CA0007B0320E030E4690102C0D594C7948A9593
:101CB000E2F76EE383EB92E00E943D06CE010D96C3
:101CC0009E8B8D8BDE011196B98FA88F5C019F884A
:101CD000E0907903F0907A0308EE13E09E012D5E08
:101CE0003F4F41E0692D809178030E94650BEB889E
:101CF000FC88B7010F2C000C880B990B0E94C91CA3
:101D0000FF89F33109F4F1C121E0E222FF24D5017A
:101D1000ED92FC9220E030E040E051E40E94AD1DE5
:101D2000E88DF98D6083718382839383BA8D9B0ED6
:101D3000E2E0AE0EB11C288D398D2C5F3F4F398FFC
:101D4000288F8D899E892817390711F69F8D9B331F
:101D500009F0D9C18DEC9CECACE4BDE388AB99AB48
:101D6000AAABBBABA6E0B0E0BFA3AEA3C601B0E098
:101D7000A0E08CAB9DABAEABBFAB19A218A2312CCF
:101D8000212CDE011196BE8FAD8FFE013D96FBA387
:101D9000EAA3FF89FCA32F8D2DA3812C912C540144
:101DA0001C8E1B8EE0907903F0907A0308EE13E00E
:101DB0009E012D5E3F4F41E06DA1809178030E940E
:101DC000650B6B897C89072E000C880B990B0E9490
:101DD000C91C6B017C013F8D3B3391F48B8D9C8D35
:101DE000029771F46CA97DA98EA99FA90E94C71CB6
:101DF0009B01AC01C701B6010E943B1B6B017C013A
:101E00002601370177FA709477F87094C501B40110
:101E10000E94C71C4B015C0120E030E0A901C70112
:101E2000B6010E94A01D181614F073016201A701EB
:101E30009601C501B4010E943C1B0E94981C4B01F5
:101E40005C012FE632E143E85AE3C301B2010E948C
:101E5000AD1D2CA53DA54EA55FA50E94AD1DAD8D68
:101E6000BE8D2D913D914D915C910E943C1B6B016B
:101E70007C01ED8DFE8DC082D182E282F38228A5A5
:101E800039A54AA55BA5C301B2010E94AD1DA701FA
:101E900096010E943C1BFF89F33109F43EC120E00A
:101EA00030E040E05EE30E94AD1D6B017C0120E06C
:101EB00030E0A9010E94A01D20E030E040E05FE397
:101EC00087FD26C1C701B6010E943C1B0E94911CE0
:101ED0006E7FAAA1BBA18D919C91682B792B7C8BE5
:101EE0006B8B2091790330917A03AE014D5E5F4F89
:101EF0006CA1809178030E94EA08EB8DFC8D3196ED
:101F0000FC8FEB8FFDA1FE5FFDA32CA13A8D230F6B
:101F10002CA38AA19BA102969BA38AA3AD8DBE8D03
:101F20001496BE8FAD8FEB8DFC8D339709F03ACFB1
:101F3000F3E62F16310471F429EE821623E092069F
:101F4000A104B10438F06AE283EB92E00E943D06FE
:101F5000312C212CC501B4010E94C71C28A939A924
:101F60004AA95BA90E94AD1D20E030E040EA50E4A0
:101F70000E941A1C87FF05C088A199A1019699A308
:101F800088A394E689169104A104B10408F0E4C082
:101F9000ABE02A1631040CF4DFC0E8A1F9A13A97AE
:101FA0000CF4DAC06EE283EB92E00E943D0620E082
:101FB00030E040E45FE368A579A58AA59BA50E946F
:101FC000AD1D68A779A78AA79BA720E030E040E471
:101FD0005FE36CA57DA58EA59FA50E94AD1D6CA796
:101FE0007DA78EA79FA79E01235F3F4F6901FF88B2
:101FF000CE0101963C01F301619171918191919122
:102000003F01FF89F33109F4BBC020E030E040E03C
:102010005EE30E94AD1D4B015C0120E030E0A901B0
:102020000E94A01D20E030E040E05FE387FDA3C0F8
:10203000C501B4010E943C1B0E94911C6E7FD60119
:102040008D919C91682B792B7C8B6B8B20917903E4
:1020500030917A03AE014D5E5F4F6F2D8091780312
:102060000E94EA08BA8DFB0EE2E0CE0ED11C288D4C
:10207000398D2615370509F0BECF8EA19FA1019796
:102080009FA38EA3892B09F078CE88E793E00E9466
:10209000F70D0091790310917A0321E043E06AE69D
:1020A000809178030E94B90DE7960FB6F894DEBFD1
:1020B0000FBECDBFDF91CF911F910F91FF90EF9099
:1020C000DF90CF90BF90AF909F908F907F906F9058
:1020D0005F904F903F902F90089523E12F8B32E037
:1020E0003A8FC12C80E2D82EE4CD20E030E040E8E9
:1020F00050E40E94AD1DA88DB98D6D937D938D9395
:102100009C93139713CE80E090E0A0E8BFE326CE27
:10211000C701B6010E943B1BD9CE20E030E040E869
:102120005EE30E94AD1D6B017C0120E030E0A9015F
:102130000E94A01D20E030E040E05FE387FD07C083
:10214000C701B6010E943C1B0E94911CC8CEC7016A
:10215000B6010E943B1BF8CF61E070E080E090E0A8
:102160000E9458059FEF291A390AA4E62A1631045D
:1021700009F007CE17CFC501B4010E943B1B5CCF0D
:1021800020E030E040E85EE30E94AD1D4B015C01C1
:1021900020E030E0A9010E94A01D20E030E040E0F6
:1021A0005FE387FD07C0C501B4010E943C1B0E948C
:1021B000911C4ACFC501B4010E943B1BF8CFB6E089
:1021C000BF8BE2E0EA8F50CD2F923F924F925F9209
:1021D0006F927F928F929F92AF92BF92CF92DF9237
:1021E000EF92FF920F931F93CF93DF9300D000D015
:1021F000CDB7DEB73C014B01242E522E302E20915C
:10220000790330917A036DE6809178030E94FE098C
:10221000852D0E94130A80E190E00E94841E5C01DB
:10222000002369F180E190E00E94841E9C838B83EF
:10223000D12CC12CC6014096482C4C188816990602
:1022400010F080E1482E80E091E085199109481650
:10225000190619F014F0452C4194332099F0AB8104
:10226000BC8190E080E093012C0D3D1D841578F435
:10227000F901E80FF91FE491ED930196F7CF1C8265
:102280001B82D6CFC3018C0D9D1D9C838B83009137
:10229000790310917A032B813C81442D6FE6809164
:1022A00078030E94AC09842D90E09A838983A1145D
:1022B000B10409F446C02091790330917A03422D8C
:1022C0004F716DE6809178030E94FE09852D0E9472
:1022D000130AE0907903F0907A0308EE13E0950179
:1022E000442D6FE6809178030E943F0C49815A810A
:1022F000B5018B819C810E94A91F892B11F1C50119
:102300000E94201F332029F08B819C810E94201F76
:10231000312C832D0F900F900F900F90DF91CF9164
:102320001F910F91FF90EF90DF90CF90BF90AF90F3
:102330009F908F907F906F905F904F903F902F90E5
:10234000089589819A81C80ED91EC814D904B8F499
:10235000540C09F423942091790330917A03422D8F
:102360004F716DE6809178030E94FE09852D0E94D1
:10237000130A60CF8B819C810E94201FCACFC501A8
:102380000E94201F3110F6CF33243394C2CF85ED45
:102390008093BC008091AF029091B002A091B102F5
:1023A000B091B2020796A11DB11D23E0B695A79585
:1023B000979587952A95D1F72091BC0024FD03C0FD
:1023C0001092AD0208954091AF025091B002609119
:1023D000B1027091B202452B462B472B69F300974F
:1023E000A105B10541F02AE22A95F1F700C0019755
:1023F000A109B109E1CF8091AE020C940A071F92A6
:102400000F920FB60F9211242F933F938F939F93A8
:10241000AF93BF9380913B0290913C02A0913D020B
:10242000B0913E0230913A0223E0230F2D3758F548
:102430000196A11DB11D20933A0280933B02909317
:102440003C02A0933D02B0933E0280913F029091E6
:102450004002A0914102B09142020196A11DB11D1E
:1024600080933F0290934002A0934102B0934202B6
:10247000BF91AF919F918F913F912F910F900FBE80
:102480000F901F90189526E8230F0296A11DB11DED
:10249000D2CF1F920F920FB60F9211242F933F931A
:1024A0004F935F936F937F938F939F93AF93BF935C
:1024B000EF93FF93E0910201F09103010995FF91E1
:1024C000EF91BF91AF919F918F917F916F915F91AC
:1024D0004F913F912F910F900FBE0F901F90189525
:1024E0001F920F920FB60F9211242F933F934F9389
:1024F0005F936F937F938F939F93AF93BF93EF936C
:10250000FF93E0910001F09101010995FF91EF9196
:10251000BF91AF919F918F917F916F915F914F91FB
:102520003F912F910F900FBE0F901F9018951F9203
:102530000F920FB60F9211242F933F934F935F93F7
:102540006F937F938F939F93AF93BF93EF93FF937B
:1025500083EB92E00E941B06FF91EF91BF91AF9138
:102560009F918F917F916F915F914F913F912F91AB
:102570000F900FBE0F901F9018951F920F920FB6DD
:102580000F9211242F938F939F93EF93FF93E091DA
:10259000C302F091C4028081E091C902F091CA02A5
:1025A00082FD1BC090818091CC028F5F8F73209140
:1025B000CD02821741F0E091CC02F0E0ED54FD4FE6
:1025C000958F8093CC02FF91EF919F918F912F91E6
:1025D0000F900FBE0F901F9018958081F4CF1F921F
:1025E0000F920FB60F9211242F933F934F935F9347
:1025F0006F937F938F939F93AF93BF93EF93FF93CB
:102600008091B900887F803609F44AC0F0F588329D
:1026100009F4A7C018F5803109F49BC0B8F48823E9
:1026200009F4F9C0883009F494C0FF91EF91BF918B
:10263000AF919F918F917F916F915F914F913F915A
:102640002F910F900FBE0F901F901895883109F4AD
:1026500088C0803251F780938B0214C0803409F413
:102660009DC040F48033B9F38833F9F680938B0230
:1026700085ECB0C0803509F485C0883509F496C072
:10268000883499F60E94C711D0CF883909F48CC0DC
:1026900038F5883729F050F4883611F0803729F65C
:1026A00083E08093AD021092E40157C0883809F4AA
:1026B0007BC0803919F0803809F0B7CF8091E401F0
:1026C000803208F071C0E091E40181E08E0F8093C8
:1026D000E4018091BB00F0E0EC53FE4F80833DC0ED
:1026E000803B39F0E0F4803A09F479C0883A09F087
:1026F0009CCF84E08093AD021092C3011092C2017E
:10270000E091E701F091E80109958091C201811102
:102710000FC081E08093C2011092A20109C0803CE9
:1027200009F4A6CF883C09F4A3CF883B09F07DCFFC
:10273000E091C30181E08E0F8093C301F0E0EE557C
:10274000FE4F80818093BB009091C3018091C201B4
:1027500029C0809188028093BB0085EC8093BC00E7
:1027600064CF90918A0280918902981758F5E09180
:102770008A0281E08E0F80938A02F0E0E959FD4FD2
:102780008081E9CFE0918A0281E08E0F80938A02F6
:102790008091BB00F0E0E959FD4F808390918A025F
:1027A000809189029817C8F285E8D8CFE0918A0213
:1027B00081E08E0F80938A028091BB00F0E0E9599E
:1027C000FD4F808380918C0281115CCF81E08093EA
:1027D000870284EA8093BC001092AD0226CF85EC7C
:1027E0008093BC001092AD028091E401803230F4FD
:1027F000E091E401F0E0EC53FE4F10826091E401BF
:1028000070E0E091E501F091E60184EC91E009953A
:102810001092E4010ACF10928B0234CFE3EBF2E086
:102820001382128288EE93E0A0E0B0E08483958367
:10283000A683B7832EE031E03183208325EC30E09E
:102840003587248724EC30E03787268720EC30E07A
:10285000318B208B21EC30E0338B228B22EC30E06B
:10286000358B248B26EC30E0378B268B118E128E25
:10287000138E148EE0E5F3E0138212828483958335
:10288000A683B78380E291E091838083E8E7F3E059
:1028900088E680831282118288EF9AE2A0E0B0E09D
:1028A000818B928BA38BB48BE8E6F3E080E090E021
:1028B000A0E8BFE380839183A283B383148215824F
:1028C0001682178210861186128613861486158644
:1028D00016861786ECE5F3E01082118212821382CD
:1028E000148215821682178210861186128613862C
:1028F0000895CF93DF93CDB7DEB7E8970FB6F8947E
:10290000DEBF0FBECDBF789484B5826084BD84B530
:10291000816084BD85B5826085BD85B5816085BDDA
:1029200080916E00816080936E0010928100809192
:10293000810082608093810080918100816080931A
:102940008100809180008160809380008091B1003F
:1029500084608093B1008091B00081608093B0006A
:1029600080917A00846080937A0080917A008260FE
:1029700080937A0080917A00816080937A008091C0
:102980007A00806880937A001092C1001092EA0168
:102990001092E90110924402109266020E94EC0625
:1029A0008AE995E09093E8018093E7018BE995E04F
:1029B0009093E6018093E5018CE08093B800E0916C
:1029C000C302F091C40282E08083E091BF02F091E3
:1029D000C0021082E091C102F091C20280E18083C6
:1029E0001092CB02E091C702F091C80286E080838A
:1029F000E091C502F091C602808180618083E09100
:102A0000C502F091C602808188608083E091C50292
:102A1000F091C602808180688083E091C502F091C8
:102A2000C60280818F7D808386E199E00E946D0AD5
:102A3000E0907903F0907A0301E023E042E06BE656
:102A4000809178030E94650DE0907903F0907A03FD
:102A500000E022E044E06BE1809178030E94650D84
:102A600080E090E0AAE7BCE3809391039093920307
:102A7000A0939303B0939403E0907903F0907A03CA
:102A800022E044E06CE1809178030E94650D80E0D3
:102A900090E0A0E0B9E380938D0390938E03A09320
:102AA0008F03B09390030091790310917A0320E093
:102AB00046E06BE6809178030E94B90DE2E5F9E00B
:102AC0002491EEE3F9E084918823C9F090E0880F27
:102AD000991FFC01EA56FF4F45915491FC01EE5CB1
:102AE000F64FA591B4919FB7F894FA018081209593
:102AF000822380838C91E22FE823EC939FBF88EFA1
:102B000098E00E946D0A0E943A0D843339F08C30AF
:102B100029F08DE391E00E947B0AFFCF87E591E0E9
:102B20000E947B0A89ED98E00E946D0A83EB92E097
:102B30000E94FB05892B31F083EB92E00E94D905BE
:102B4000892BA1F783EB92E00E94FB05892BD1F33F
:102B500083EB92E00E94FB05892B31F083EB92E03E
:102B60000E94D905892BA1F785EC98E00E946D0A97
:102B70000091790310917A0321E047E06BE68091A0
:102B800078030E94B90D6EE170E080E090E00E9451
:102B900058050091790310917A0320E046E06BE636
:102BA000809178030E94B90D2091790330917A03C6
:102BB00040E76DE6809178030E94FE0986E00E945E
:102BC000130A2091790330917A0340E06DE68091F9
:102BD00078030E94FE092091790330917A034FE730
:102BE00065E2809178030E94FE09009179031091BB
:102BF0007A0320E045E06AE6809178030E94B90DEF
:102C00002091790330917A0348E665E28091780358
:102C10000E94FE090091790310917A0321E041E0BE
:102C20006AE6809178030E94B90D64E170E080E06B
:102C300090E00E945805E0907903F0907A0303E059
:102C400023E042E06BE6809178030E94650D2091BD
:102C5000790330917A0342E168E3809178030E941E
:102C6000FE092091790330917A0344E069E1809173
:102C700078030E94FE09E0907903F0907A0301E066
:102C800023E045E06AE1809178030E94650DE090C1
:102C90007903F0907A0303E023E042E06AE1809157
:102CA00078030E94650DE0907903F0907A0322E0AA
:102CB00044E06BE1809178030E94650D01E020E023
:102CC00040E069E877E080EA90E00E94E410882321
:102CD00009F424C2198281E08A8300E026E142E0FF
:102CE00062E070E0CE0101960E94E4102091790329
:102CF00030917A0343E060E7809178030E94FE09F7
:102D00002091790330917A0340E061E78091780364
:102D10000E94FE090091790310917A0320E040E0BF
:102D200060E0809178030E94B90D20917903309181
:102D30007A0342E06FE1809178030E94FE092091BE
:102D4000790330917A034CE961E2809178030E9423
:102D5000FE092091790330917A0340E560E2809189
:102D600078030E94FE092091790330917A0340E0B4
:102D700062E2809178030E94FE090091790310912C
:102D80007A0321E046E06AE6809178030E94B90D5B
:102D90000091790310917A0321E043E06AE6809183
:102DA00078030E94B90D0091790310917A0320E015
:102DB00047E06AE6809178030E94B90D8AE290E0CC
:102DC0009093A4038093A30388E793E00E94F70DF8
:102DD00088E793E00E941F0D80E08093EB01209133
:102DE000790330917A0350E040E063E18091780309
:102DF0000E94ED092091790330917A0350E040E080
:102E000065E1809178030E94ED092091790330916A
:102E10007A0350E040E067E1809178030E94ED0979
:102E20000E943A0D66E0883308F067E72091790345
:102E300030917A0350E040E0809178030E94ED09E0
:102E40000E943A0D68E0883308F06AE72091790320
:102E500030917A0350E040E0809178030E94ED09C0
:102E60000E943A0D6AE0883308F06DE720917903FB
:102E700030917A0350E040E0809178030E94ED09A0
:102E8000F090EB01F1104CC100E010E028EA31E4D1
:102E90004EEA57E461EA7EE38BE30E94050E0FEFF2
:102EA0001FEF2CEB32E44EEA57E461EA7EE383E461
:102EB0000E94050E85E791E00E947B0A0E943A0D70
:102EC000E0907903F0907A0308EE13E025E933E00F
:102ED00043E066E08833D0F041E067E78091780313
:102EE0000E94650BE0907903F0907A0327E933E0C4
:102EF00041E06AE7809178030E94650BE0907903D6
:102F0000F0907A0329E933E041E06DE7809178039E
:102F10000E94650BE0907903F0907A0308EE13E0CD
:102F20002BE933E043E063E1809178030E94650B75
:102F30006091950370919603072E000C880B990BF6
:102F40000E94C91C45E00E94890A84E991E00E9420
:102F50001C0A6091970370919803072E000C880B50
:102F6000990B0E94C91C45E00E94890A84E991E0FE
:102F70000E941C0A6091990370919A03072E000C1D
:102F8000880B990B0E94C91C45E00E94890A84E9BC
:102F900091E00E941C0A60919B0370919C03072E94
:102FA000000C880B990B0E94C91C45E00E94890AFD
:102FB00084E991E00E941C0A60919D0370919E0338
:102FC000072E000C880B990B0E94C91C45E00E943B
:102FD000890A84E991E00E941C0A60919F03709124
:102FE000A003072E000C880B990B0E94C91C45E01A
:102FF0000E94890A87E991E00E941C0A85EB98E00B
:103000000E946D0A0091790310917A0321E047E054
:103010006AE6809178030E94B90D8BE798E00E94E0
:103020008A064AE060E070E0CB010E94290A86E748
:1030300098E00E946D0A86E995E0909301018093E3
:10304000000180916900836080936900E89A88E7B5
:1030500093E00E941F0D8CE498E00E946D0A81E0CD
:1030600080933902EDE5F9E02491E9E4F9E08491F7
:10307000882399F090E0880F991FFC01EA56FF4FD2
:10308000A591B491FC01EE5CF64F859194918FB7B8
:10309000F894EC91E22BEC938FBF80913902882356
:1030A00091F16090A3037090A40369A20E9433057C
:1030B0001B012C015301BB240E94000D9C01A8168A
:1030C000B9060CF065C0893C9105D4F188E793E01E
:1030D0000E94F70D0E94000D9C01892B09F05CC035
:1030E0000E9433056219730984099509C090890308
:1030F000D0908A03E0908B03F0908C03C616D7061D
:10310000E806F90638F7A0E0B0E0AB2B31F20E94F8
:103110000706882311F20E940000BFCF81E05DCE38
:103120008BE298E00E948A066F2D70E090E080E0CC
:103130004AE00E94290A89E298E00E946D0A92CF33
:103140000E94000D9C01A816B90614F56C01CA185E
:10315000DB084601F1E2CF16D1041CF080E2882E94
:10316000912C882099F0E0907903F0907A0308EE92
:1031700013E09E012F5F3F4F482D64E78091780355
:103180000E943F0CC818D90821F7DACF1982FACF6C
:103190002115310509F4B7CF2A153B05E9F00E9446
:1031A00033056219730984099509C0908903D09089
:1031B0008A03E0908B03F0908C03C616D706E806CE
:1031C000F90608F079CF9FCF1092F90116C06BED88
:1031D0007FE089E490ECC4C1B9A1BB23A9F3E090DE
:1031E0007903F0907A0308EE13E029EF31E0462DE1
:1031F00064E7809178030E943F0C6090FD0170901D
:10320000FE017624672476248090010290900202C9
:10321000982489249824A0900502B0900602BA242C
:10322000AB24BA246091F9017091FA0176276727DF
:103230007627072E000C880B990B0E94C91C20E0F2
:1032400030E040E858E30E94AD1D6B017C01C09264
:103250006803D0926903E0926A03F0926B03B301B2
:10326000770C880B990B0E94C91C20E030E040E8E5
:1032700058E30E94AD1D2B013C0140926C0350921B
:103280006D0360926E0370926F03B401990C880B0A
:10329000990B0E94C91C20E030E040E858E30E94EE
:1032A000AD1D69A37AA38BA39CA360937003709355
:1032B00071038093720390937303B501BB0C880B69
:1032C000990B0E94C91C20E030E040E858E30E94BE
:1032D000AD1D6DA37EA38FA398A760937403709315
:1032E000750380937603909377039B01AC01C30130
:1032F000B2010E94AD1D4B015C0129A13AA14BA175
:103300005CA1C701B6010E94AD1D9B01AC01C501C6
:10331000B4010E943B1B9B01AC010E943C1B6DA7AA
:103320007EA78FA798AB60935C0370935D03809337
:103330005E0390935F03A3019201C701B6010E944F
:10334000AD1D4B015C012DA13EA14FA158A569A166
:103350007AA18BA19CA10E94AD1D9B01AC01C5016E
:10336000B4010E943C1B9B01AC010E943C1B69A75D
:103370007AA78BA79CA760936003709361038093E7
:10338000620390936303A7019601C701B6010E94EF
:10339000AD1D4B015C01A3019201C301B2010E946A
:1033A000AD1D9B01AC01C501B4010E943B1B4B014B
:1033B0005C0129A13AA14BA15CA1CA01B9010E94FB
:1033C000AD1D9B01AC01C501B4010E943B1B4B012B
:1033D0005C012DA13EA14FA158A5CA01B9010E94CF
:1033E000AD1D9B01AC01C501B4010E943C1B4B010A
:1033F0005C018092640390926503A0926603B09290
:103400006703A7019601C701B6010E943C1B69AB87
:103410007AAB8BAB9CABA3019201C301B2010E94BA
:103420003C1B6DAB7EAB8FAB98AFA701960169A932
:103430007AA98BA99CA90E94AD1D6B017C01A301F7
:1034400092016DA97EA98FA998AD0E94AD1D9B0127
:10345000AC01C701B6010E943C1B20E030E040E80F
:103460005FE30E943B1B6B017C0129A13AA14BA1A8
:103470005CA16DA97EA98FA998AD0E94AD1D2B01FD
:103480003C012DA13EA14FA158A569A97AA98BA9FC
:103490009CA90E94AD1D9B01AC01C301B2010E9419
:1034A0003B1BA70196010E94BB1B6093ED0170932B
:1034B000EE018093EF019093F00129A53AA54BA569
:1034C0005CA5CA01B9010E94AD1D6B017C01A5017B
:1034D0009401C501B4010E94AD1D9B01AC01C7015F
:1034E000B6010E943C1B0E94201E9B01AC016DA5F1
:1034F0007EA58FA598A90E94BB1B6B017C01C09281
:10350000F101D092F201E092F301F092F401A501F1
:10351000940169A57AA58BA59CA50E94BB1B60930D
:10352000F5017093F6018093F7019093F80120E084
:1035300030E0A901C501B4010E941A1C87FF1AC01E
:1035400020E030E0A901C701B6010E94A01DA7013B
:10355000960118160CF03BCE6BED7FE089E490E409
:103560000E943B1B6093F1017093F2018093F30181
:103570009093F4018AE991E00E941C0A20E030E077
:1035800044E353E46091ED017091EE018091EF010D
:103590009091F0010E94AD1D2BED3FE049E450E415
:1035A0000E941F1C42E00E94890A85E991E00E9466
:1035B0001C0A20E030E044E353E46091F101709193
:1035C000F2018091F3019091F4010E94AD1D2BED69
:1035D0003FE049E450E40E941F1C42E00E94890A37
:1035E00085E991E00E941C0A20E030E044E353E4C6
:1035F0006091F5017091F6018091F7019091F801C9
:103600000E94AD1D2BED3FE049E450E40E941F1CD9
:1036100042E00E94890A8EE291E00E941C0A6091B9
:10362000EC0181E068276093EC018DE00E94E704E3
:103630006ACDA1E21A2EAA1BBB1BFD010DC0AA1F59
:10364000BB1FEE1FFF1FA217B307E407F50720F00B
:10365000A21BB30BE40BF50B661F771F881F991F86
:103660001A9469F760957095809590959B01AC01CF
:10367000BD01CF0108955058BB27AA270E94531BB4
:103680000C94661D0E94581D38F00E945F1D20F0AA
:1036900039F49F3F19F426F40C942E1D0EF4E09596
:1036A000E7FB0C94281DE92F0E94771D58F3BA17E9
:1036B000620773078407950720F079F4A6F50C9448
:1036C000991D0EF4E0950B2EBA2FA02D0B01B90118
:1036D00090010C01CA01A0011124FF27591B99F088
:1036E000593F50F4503E68F11A16F040A22F232F94
:1036F000342F4427585FF3CF469537952795A795E4
:10370000F0405395C9F77EF41F16BA0B620B730B8A
:10371000840BBAF09150A1F0FF0FBB1F661F771FFB
:10372000881FC2F70EC0BA0F621F731F841F48F4B0
:10373000879577956795B795F7959E3F08F0B0CF39
:103740009395880F08F09927EE0F97958795089520
:103750000E94581D60F080E891E009F49EEF0E94FD
:103760005F1D28F040E851E071F45EEF0CC00C944E
:103770002E1D0C94991DE92FE0780E94771D40F3CF
:10378000092E052AB1F3261737074807590738F0DD
:103790000E2E07F8E02569F0E025E0640AC0EF632B
:1037A00007F8009407FADB01B9019D01DC01CA01A9
:1037B000AD01EF930E94361C0E94661D0E94EB1B18
:1037C0005F91552339F02BED3FE049E450FD49EC82
:1037D0000C943C1B0895DF93DD27B92FBF7740E899
:1037E0005FE31616170648075B0718F4D92F0E94E7
:1037F000A51D9F938F937F936F930E94601EE8E6B1
:10380000F0E00E94311D0E94661D2F913F914F9163
:103810005F910E94C01DDD2351F09058A2EA2AED6D
:103820003FE049EC5FE3D0785D270E94531BDF91B6
:103830000C94661D0E94041D08F481E008950E9406
:10384000331C0C94661D0E945F1D58F00E94581D89
:1038500040F029F45F3F29F00C94281D51110C947D
:103860009A1D0C942E1D0E94771D68F39923B1F3C5
:10387000552391F3951B550BBB27AA276217730796
:10388000840738F09F5F5F4F220F331F441FAA1F2A
:10389000A9F335D00E2E3AF0E0E832D091505040E6
:1038A000E695001CCAF72BD0FE2F29D0660F771F94
:1038B000881FBB1F261737074807AB07B0E809F07A
:1038C000BB0B802DBF01FF2793585F4F3AF09E3FFF
:1038D000510578F00C94281D0C949A1D5F3FE4F379
:1038E000983ED4F3869577956795B795F7959F5F42
:1038F000C9F7880F911D9695879597F90895E1E08E
:10390000660F771F881FBB1F621773078407BA07EC
:1039100020F0621B730B840BBA0BEE1F88F7E09547
:1039200008950E94981C6894B1110C949A1D0895F2
:103930000E947F1D88F09F5798F0B92F9927B751A3
:10394000B0F0E1F0660F771F881F991F1AF0BA9543
:10395000C9F714C0B13091F00E94991DB1E00895EB
:103960000C94991D672F782F8827B85F39F0B93FDD
:10397000CCF3869577956795B395D9F73EF49095F6
:103980008095709561957F4F8F4F9F4F0895E89474
:1039900009C097FB3EF490958095709561957F4F97
:1039A0008F4F9F4F9923A9F0F92F96E9BB27939545
:1039B000F695879577956795B795F111F8CFFAF455
:1039C000BB0F11F460FF1BC06F5F7F4F8F4F9F4F86
:1039D00016C0882311F096E911C0772321F09EE8E4
:1039E000872F762F05C0662371F096E8862F70E04A
:1039F00060E02AF09A95660F771F881FDAF7880F24
:103A00009695879597F90895990F0008550FAA0B79
:103A1000E0E8FEEF16161706E807F907C0F01216E1
:103A20001306E407F50798F0621B730B840B950BE4
:103A300039F40A2661F0232B242B252B21F4089539
:103A40000A2609F4A140A6958FEF811D811D0895D6
:103A500097F99F6780E870E060E008959FEF80EC41
:103A60000895DF93CF931F930F93FF92EF92DF920E
:103A70007B018C01689406C0DA2EEF010E94C01D04
:103A8000FE01E894A5912591359145915591A6F3B4
:103A9000EF010E94531BFE019701A801DA9469F718
:103AA000DF90EF90FF900F911F91CF91DF910895DC
:103AB00000240A941616170618060906089500240D
:103AC0000A9412161306140605060895092E039487
:103AD000000C11F4882352F0BB0F40F4BF2B11F4FB
:103AE00060FF04C06F5F7F4F8F4F9F4F089557FD5A
:103AF0009058440F551F59F05F3F71F04795880F5C
:103B000097FB991F61F09F3F79F0879508951216F2
:103B100013061406551FF2CF4695F1DF08C016169E
:103B200017061806991FF1CF86957105610508944F
:103B30000895E894BB2766277727CB0197F9089566
:103B40000E94041D08F48FEF08959B01AC0160E012
:103B500070E080E89FE30C941F1C0E94C01D0C9431
:103B6000661D0E94581D38F00E945F1D20F09523AD
:103B700011F00C94281D0C942E1D11240C949A1DE8
:103B80000E94771D70F3959FC1F3950F50E0551F6C
:103B9000629FF001729FBB27F00DB11D639FAA27A2
:103BA000F00DB11DAA1F649F6627B00DA11D661FF1
:103BB000829F2227B00DA11D621F739FB00DA11D12
:103BC000621F839FA00D611D221F749F3327A00DCC
:103BD000611D231F849F600D211D822F762F6A2F68
:103BE00011249F5750409AF0F1F088234AF0EE0FCD
:103BF000FF1FBB1F661F771F881F91505040A9F7FA
:103C00009E3F510580F00C94281D0C949A1D5F3F37
:103C1000E4F3983ED4F3869577956795B795F79535
:103C2000E7959F5FC1F7FE2B880F911D96958795AD
:103C300097F9089519F416F40C942E1D0C94691E2E
:103C40000E947F1DB8F39923C9F3B6F39F57550B14
:103C500087FF0E94771E0024A0E640EA900180586A
:103C60005695979528F4805C660F771F881F20F083
:103C700026173707480730F4621B730B840B202983
:103C800031294A2BA69517940794202531254A27D8
:103C900058F7660F771F881F20F026173707480749
:103CA00030F4620B730B840B200D311D411DA09568
:103CB00081F7B901842F9158880F969587950895BB
:103CC0009B01AC010C94AD1D0E94041D880B990B47
:103CD00008959F3F31F0915020F48795779567952F
:103CE000B795880F911D9695879597F908959150EE
:103CF0005040660F771F881FD2F70895EE0FFF1F01
:103D00000590F491E02D09940F931F93CF93DF93C7
:103D10008230910510F482E090E0E091A703F091E9
:103D2000A80330E020E0B0E0A0E0309799F421153E
:103D3000310509F44AC0281B390B24303105D8F568
:103D40008A819B816115710589F1FB0193838283CF
:103D5000FE0111C04081518102811381481759072A
:103D6000E0F04817590799F4109761F012960C93F8
:103D7000129713961C933296CF01DF91CF911F912A
:103D80000F9108950093A7031093A803F4CF211572
:103D9000310551F04217530738F0A901DB019A01B0
:103DA000BD01DF01F801C1CFEF01F9CF9093A80366
:103DB0008093A703CDCFFE01E20FF31F8193919370
:103DC0002250310939832883D7CF2091A503309120
:103DD000A603232B41F42091060130910701309373
:103DE000A6032093A503209104013091050121151C
:103DF000310541F42DB73EB74091080150910901BA
:103E0000241B350BE091A503F091A603E217F307FD
:103E1000A0F42E1B3F0B2817390778F0AC014E5F3A
:103E20005F4F2417350748F04E0F5F1F5093A603CE
:103E30004093A503819391939FCFF0E0E0E09CCF66
:103E4000CF93DF930097E9F0FC013297138212823F
:103E5000A091A703B091A803ED0130E020E01097F6
:103E6000A1F420813181820F931F2091A50330910D
:103E7000A6032817390709F061C0F093A603E09361
:103E8000A503DF91CF910895EA01CE17DF07E8F58A
:103E90004A815B819E0141155105B1F7E901FB8320
:103EA000EA8349915991C40FD51FEC17FD0761F4BE
:103EB000808191810296840F951FE90199838883FF
:103EC000828193819B838A83F0E0E0E012968D915A
:103ED0009C9113970097B9F52D913C911197CD01C5
:103EE0000296820F931F2091A5033091A6032817F5
:103EF000390739F6309751F51092A8031092A703AD
:103F0000B093A603A093A503BCCFD383C283408103
:103F10005181840F951FC817D90761F44E5F5F4F19
:103F200088819981480F591F518340838A819B81E1
:103F3000938382832115310509F0B0CFF093A80354
:103F4000E093A7039ECFFD01DC01C0CF1382128254
:103F5000D7CFFB01DC0104C08D910190801921F4C1
:103F600041505040C8F7881B990B0895F894FFCF33
:103F70009C059C050000A9038000000000003D0690
:103F80009D05CA05A506FB05D905ED050000000045
:103F90007A094D09A90923094609330924090D0A9B
:103FA000006E616E00696E66006F7666004D50555A
:103FB0003630353020636F6E6E656374696F6E20C6
:103FC0006661696C6564004D50553630353020634C
:103FD0006F6E6E656374696F6E207375636365736E
:103FE0007366756C00546865736520617265207432
:103FF000686520416374697665206F6666736574D1
:10400000733A20002C09000A0A0079707209000036
:00000001FF
