:100000000C9447050C946F050C946F050C946F05C8
:100010000C946F050C946F050C946F050C946F0590
:100020000C946F050C946F050C946F050C946F0580
:100030000C946F050C946F050C946F050C946F0570
:100040000C94BC1A0C946F050C942C1B0C94061B7E
:100050000C946F050C946F050C946F050C946F0550
:100060000C945E1B0C946F0500000000003E5B4F7B
:100070005B3E3E6B4F6B3E1C3E7C3E1C183C7E3C08
:10008000181C577D571C1C5E7F5E1C00183C180016
:10009000FFE7C3E7FF0018241800FFE7DBE7FF30A6
:1000A000483A060E2629792926407F050507407F14
:1000B00005253F5A3CE73C5A7F3E1C1C08081C1C87
:1000C0003E7F14227F22145F5F005F5F06097F017D
:1000D0007F006689956A606060606094A2FFA29468
:1000E00008047E040810207E201008082A1C080836
:1000F0001C2A08081E101010100C1E0C1E0C303884
:100100003E3830060E3E0E06000000000000005F84
:1001100000000007000700147F147F14242A7F2AA0
:100120001223130864623649562050000807030062
:10013000001C2241000041221C002A1C7F1C2A08AE
:10014000083E080800807030000808080808000011
:1001500060600020100804023E5149453E00427F85
:10016000400072494949462141494D331814127FD4
:100170001027454545393C4A494931412111090774
:100180003649494936464949291E000014000000F5
:1001900040340000000814224114141414140041C7
:1001A00022140802015909063E415D594E7C121184
:1001B000127C7F494949363E414141227F414141BC
:1001C0003E7F494949417F090909013E4141517337
:1001D0007F0808087F00417F41002040413F017FA8
:1001E000081422417F404040407F021C027F7F0470
:1001F00008107F3E4141413E7F090909063E4151B9
:10020000215E7F09192946264949493203017F01A8
:10021000033F4040403F1F2040201F3F4038403FA9
:10022000631408146303047804036159494D4300BF
:100230007F4141410204081020004141417F0402F6
:10024000010204404040404000030708002054548D
:1002500078407F284444383844444428384444286B
:100260007F385454541800087E090218A4A49C78BE
:100270007F0804047800447D40002040403D007F1A
:100280001028440000417F40007C047804787C08FA
:100290000404783844444438FC18242418182424CE
:1002A00018FC7C08040408485454542404043F44B3
:1002B000243C4040207C1C2040201C3C4030403CE2
:1002C00044281028444C9090907C4464544C440042
:1002D00008364100000077000000413608000201A6
:1002E0000204023C2623263C1EA1A161123A404092
:1002F000207A38545455592155557941225454780F
:1003000042215554784020545579400C1E527212A7
:100310003955555559395454545939555454580030
:1003200000457C410002457D420001457C407D1234
:1003300011127DF0282528F07C5455450020545496
:100340007C547C0A097F4932494949323A44444441
:100350003A324A4848303A4141217A3A424020787C
:10036000009DA0A07D3D4242423D3D4040403D3C7D
:1003700024FF2424487E4943662B2FFC2F2BFF09A2
:1003800029F620C0887E0903205454794100004496
:100390007D413048484A32384040227A007A0A0A81
:1003A000727D0D19317D2629292F282629292926F4
:1003B00030484D4020380808080808080808382F39
:1003C00010C8ACBA2F102834FA00007B00000814C3
:1003D0002A142222142A14085500550055AA55AA99
:1003E00055AAFF55FF55FF000000FF00101010FF39
:1003F00000141414FF001010FF00FF1010F010F094
:10040000141414FC001414F700FF0000FF00FF1484
:1004100014F404FC141417101F10101F101F1414D0
:10042000141F00101010F0000000001F101010101A
:100430001F10101010F010000000FF10101010100E
:1004400010101010FF10000000FF140000FF00FF4C
:1004500000001F10170000FC04F4141417101714E8
:1004600014F404F40000FF00F7141414141414140A
:10047000F700F7141414171410101F101F1414147D
:10048000F4141010F010F000001F101F0000001FE7
:1004900014000000FC140000F010F01010FF10FF1A
:1004A000141414FF141010101F00000000F010FFAF
:1004B000FFFFFFFFF0F0F0F0F0FFFFFF0000000093
:1004C00000FFFF0F0F0F0F0F3844443844FC4A4A17
:1004D0004A347E02020606027E027E0263554941CC
:1004E000633844443C04407E201E2006027E020203
:1004F00099A5E7A5991C2A492A1C4C7201724C3017
:100500004A4D4D303048784830BC625A463D3E49ED
:100510004949007E0101017E2A2A2A2A2A44445F91
:10052000444440514A444040444A51400000FF0185
:1005300003E080FF000008086B6B08361236243693
:10054000060F090F060000181800000010100030F8
:1005500040FF0101001F01011E00191D1712003C80
:100560003C3C3C0000000000000103070F1F3F7FE0
:100570000080C0E0F0F8FCFEDB40A4A62EAF200017
:10058000A1C8D300408DAED580A800006000000057
:100590000000000000000000000000E0000000007B
:1005A00000000000000000000001E000000000006A
:1005B000000000000000000001F00000000000004A
:1005C0000000000000000003F00000000000000038
:1005D00000000000000007F0000000000000000024
:1005E000000000000007F80000000000000000000C
:1005F000000000000FF800000003C0007E000001B2
:10060000E0007F0FF800000003C000FE000001E0E2
:1006100000FFEFF800000003C000FE000001E00052
:10062000FFFFF800000003C000F00000000F007F93
:10063000FE7FC0000003C000F00000000F003FFE7E
:100640007FF83FF1FBCFFCFEF3BC3DEFE01FFE7FE8
:10065000FF7FFBFFDFFEFEFFBC3DEFE01FC6FFFF9D
:100660007FFBFFDFFEFEFFBC3DEFE00FE3C7FE7840
:100670007BC3DE1EF0FFBC3DEF0007FF87FC787BED
:10068000C3DE1EF0F83C3DEF0001FFFFF0007BC32E
:10069000C01EF0F03C3DEF0001F37FE03FFBC3CF15
:1006A000FEF0F03C3DEF0003E33F807FFBC3DFFE45
:1006B000F0F03C3DEF0007E73C00787BC3DE1EF026
:1006C000F03C3DEF0007FFBE00787BC3DE1EF0F07C
:1006D0003C3DEF0007FFFE00787BC3DE1EF0F03CE0
:1006E0003DEF000FFFFE007FFBFFDFFEF0F03FFD60
:1006F000EFE00FFFFF007FFBFFDFFEF0F03FFDEFBD
:10070000E00FF9FF003E79F9CF9EF0F01F3DE7E0E2
:100710001FF1FF0000000000000000000000001FAB
:1007200080FF007FFFFFFFFFFFFFFFFFFFE01C00D8
:100730007F007FFFFFFFFEB46D888D18E000001F73
:10074000007FFFFFFFFE95AD7DB577E000000F0055
:100750007FFFFFFFFEA5AD9D8D19E0000006007F25
:10076000FFFFFFFEB5ADEDB57EE00000000000012B
:100770008000000000000000000003800000000076
:10078000000000000007C0000000000000000000A2
:1007900007C00000000000000000000FC0000000C3
:1007A0000000000000001FE000000000000000004A
:1007B000001FE00000000000000000003FE000001B
:1007C000000000000000003FF000000000000000FA
:1007D00000007FF0000000000000001FF87FF00024
:1007E0000000000000003FFE7FF00000000000005D
:1007F000003FFF7FF0000000000000001FFFFBE053
:10080000000000000000000FFFF9FFC00000000022
:1008100000000FFFF9FFF800000000000007FFF1E3
:10082000FFFF00000000000003FC73FFFF800000DA
:1008300000000001FE3FFFFF80000000000000FFFD
:100840001E0FFF000000000000007FFE1FFC0000E4
:1008500000000000003FFFFFF80000000000000063
:100860000FDFFFE0000000000000001F19FFC000C4
:100870000000000000003F3CFF00000000000000FE
:10088000007E7CF800000000000000007FFE7C007D
:1008900000000000000000FFFFFC0000000000005E
:1008A0000000FFFFFE0000000000000000FFFFFE50
:1008B0000000000000000001FFEFFE00000000004B
:1008C000000001FFCFFE0000000000000003FF0752
:1008D000FE0000000000000003FC07FE0000000016
:1008E00000000003F003FE00000000000000018093
:1008F00000FE000000000000000000007E0000007C
:10090000000000000000003E0000000000000000A9
:1009100000000C000000000000078000FC00000345
:10092000C0000000078001FC000003C000000007B9
:100930008001FC000003C0000000078001E000000F
:10094000001E000000078001E00000001E007FE3A1
:10095000F79FF9FDE7787BDFC0FFF7FFBFFDFDFFE5
:10096000787BDFC0FFF7FFBFFDFDFF787BDFC0F0C6
:10097000F787BC3DE1FF787BDE00F0F787BC3DE107
:10098000F0787BDE0000F787803DE1E0787BDE00D9
:100990007FF7879FFDE1E0787BDE00FFF787BFFDF3
:1009A000E1E0787BDE00F0F787BC3DE1E0787BDEBC
:1009B00000F0F787BC3DE1E0787BDE00F0F787BC14
:1009C0003DE1E0787BDE00FFF7FFBFFDE1E07FFB6C
:1009D000DFC0FFF7FFBFFDE1E07FFBDFC07CF3F38B
:1009E0009F3DE1E03E7BCFC0000000000000000022
:1009F000000000FFFFFFFFFFFFFFFFFFFFC0FFFF43
:100A0000FFFFFD68DB111A31C0FFFFFFFFFD2B5A0E
:100A1000FB6AEFC0FFFFFFFFFD4B5B3B1A33C0FFDC
:100A2000FFFFFFFD6B5BDB6AFDC0000000002400E0
:100A300027002A0000000000250028002B000000ED
:100A40000000230026002900040404040404040414
:100A50000202020202020303030303030102040869
:100A60001020408001020408102001020408102018
:100A7000000000080002010000030407000000005D
:100A8000000000002200FF2100007D1C0421112431
:100A90001FBECFEFD8E0DEBFCDBF23E0AEE2B2E0B5
:100AA00001C01D92A93EB207E1F712E0A0E0B1E05B
:100AB000E2EFF4E402C005900D92AE32B107D9F72F
:100AC00015E0C6E4D5E004C02197FE010E9435215F
:100AD000C534D107C9F70E94001D0C946C220C94F8
:100AE00000002F923F924F925F926F927F928F926F
:100AF0009F92AF92BF92CF92DF92EF92FF920F93AD
:100B00001F93CF93DF93CDB7DEB76D970FB6F894F1
:100B1000DEBF0FBECDBF7A8769875C874B873E8774
:100B20002D87188B0F87FB0111821082FA01118229
:100B30001082F80111821082F90111821082209036
:100B4000BE033090BF032091BC032C83F090B90307
:100B50002F2D30E0388F2F8B46E0F49E900111242A
:100B60003E832D83A090AD03B090AE03E090BA0316
:100B7000E8E0EE9E6001112491012C5F3F4F3A8B1B
:100B8000298B2E5F3F4F3C8B2B8B245031093A8FA2
:100B9000298F2A5F3F4F3B832A8398878F83442482
:100BA0004A94542CAFEFBFEF8FEF9FE79C8F8B8F52
:100BB0000FEF1FE770E060E050E040E0EF81F88564
:100BC0008191F887EF83882309F4C0C02114310490
:100BD00009F487C08A3041F4EA81FB8184918E9DBB
:100BE000600D711D1124E8CF8D3041F3E989FA8938
:100BF0009491EB89FC892491891700F32817F0F26E
:100C0000E98DFA8D25913491891BF7E08F9F200D96
:100C1000311D1124F9013296849189833196949182
:100C20009D8B319684918E8B319684912A5F3F4FB4
:100C3000F901F491FD8F2C812223F1F03981632E8B
:100C4000712C680E711C87FD7A942F89388D629EF5
:100C50004001639E900C729E900C1124840E951E90
:100C6000A814B9044CF4EA81FB8194919E9D600D17
:100C7000711D112450E040E02F2D382F3203C001A8
:100C80001124840F951F2E2D3D8D3203F001112468
:100C90009F01260F371F801791070CF48C01EB8DF5
:100CA000FC8D2E173F0714F43C8F2B8FF981FF9D8D
:100CB000800D911D11240197A817B9070CF4DC01D0
:100CC0008D898E9D200D311D112421503109421630
:100CD00053060CF429019E899F9D400D511D11243E
:100CE0006DCF8A3019F46C0D7D1D66CF8D3009F4FF
:100CF00065CF2C81222359F08D819E81840F951F11
:100D0000A816B90624F46C0D7D1D50E040E02D813D
:100D10003E81240F351FC9010197A817B9070CF4AC
:100D2000DC01C601860F971F0197481659060CF47F
:100D30002C01401751070CF48A018B8D9C8D68178C
:100D4000790714F47C8F6B8FA90138CFA017B107F6
:100D50005CF0E985FA8511830083A01BB10B119625
:100D6000ED85FE85B183A0832B8D3C8D4216530605
:100D70006CF0EB85FC8531832083421A530AFFEF28
:100D80004F1A5F0AEF85F889518240826D960FB63F
:100D9000F894DEBF0FBECDBFDF91CF911F910F91B1
:100DA000FF90EF90DF90CF90BF90AF909F908F908B
:100DB0007F906F905F904F903F902F90089508958F
:100DC000833081F028F4813099F08230A9F00895C1
:100DD0008730A9F08830C9F08430B1F48091800068
:100DE0008F7D03C0809180008F778093800008956D
:100DF00084B58F7784BD089584B58F7DFBCF8091B6
:100E0000B0008F778093B00008958091B0008F7DFF
:100E1000F9CFCF93DF93282F30E0F901E059F54F58
:100E20008491F901E45AF54FD491F901E85BF54F4B
:100E3000C491CC23A1F081110E94E006EC2FF0E0D8
:100E4000EE0FFF1FE25CF54FA591B491EC91ED23FD
:100E500081E090E009F480E0DF91CF91089580E097
:100E600090E0FACF1F93CF93DF93282F30E0F90162
:100E7000E059F54F8491F901E45AF54FD491F90105
:100E8000E85BF54FC491CC23A9F0162F81110E9485
:100E9000E006EC2FF0E0EE0FFF1FEC5CF54FA591A4
:100EA000B4918FB7F894EC91111108C0D095DE235E
:100EB000DC938FBFDF91CF911F910895DE2BF8CF88
:100EC000CF93DF9390E0FC01E45AF54F2491885BC7
:100ED000954FFC0184918823D1F090E0880F991FF1
:100EE000FC01E65DF54FA591B491FC01EC5CF54F7A
:100EF000C591D49161110EC09FB7F8948C91E22FE7
:100F0000E0958E238C932881E223E8839FBFDF91B5
:100F1000CF9108958FB7F894EC91E22BEC938FBFAB
:100F2000F6CF3FB7F8948091F4029091F502A0912A
:100F3000F602B091F70226B5A89B05C02F3F19F025
:100F40000196A11DB11D3FBFBA2FA92F982F882749
:100F5000BC01CD01620F711D811D911D42E0660F24
:100F6000771F881F991F4A95D1F708958F929F92F6
:100F7000AF92BF92CF92DF92EF92FF924B015C0152
:100F80000E9491076B017C010E9491076C197D09F9
:100F90008E099F09683E734081059105A8F321E001
:100FA000821A9108A108B10888EEC80E83E0D81E05
:100FB000E11CF11C81149104A104B10429F7FF90F4
:100FC000EF90DF90CF90BF90AF909F908F9008955B
:100FD00008950895AF92BF92CF92DF92EF92FF9261
:100FE0000F931F93CF93DF936C017B018B01040F51
:100FF000151FEB015E01AE18BF08C017D10759F0ED
:101000006991D601ED91FC910190F081E02DC6012E
:101010000995892B79F7C501DF91CF911F910F9128
:10102000FF90EF90DF90CF90BF90AF900895FC01BC
:10103000538D448D252F30E0842F90E0821B930B3D
:10104000541710F0CF96089501970895FC01918DE3
:10105000828D981761F0A28DAE0FBF2FB11D5D96E6
:101060008C91928D9F5F9F73928F90E008958FEF88
:101070009FEF0895FC01918D828D981731F0828D3C
:10108000E80FF11D858D90E008958FEF9FEF089593
:10109000FC01918D228D892F90E0805C9F4F821BF7
:1010A00091098F73992708958CEF92E00E94480868
:1010B00021E0892B09F420E0822F089580E090E060
:1010C000892B29F00E94540881110C940000089586
:1010D000FC01A48DA80FB92FB11DA35ABF4F2C91AD
:1010E000848D90E001968F739927848FA689B789A4
:1010F0002C93A089B1898C91837080648C93938D9B
:10110000848D981306C00288F389E02D80818F7D3D
:1011100080830895EF92FF920F931F93CF93DF93F5
:10112000EC0181E0888F9B8D8C8D98131AC0E88923
:10113000F989808185FF15C09FB7F894EE89FF89F2
:101140006083E889F98980818370806480839FBF90
:1011500081E090E0DF91CF911F910F91FF90EF9090
:101160000895F62E0B8D10E00F5F1F4F0F731127A0
:10117000E02E8C8D8E110CC00FB607FCFACFE889DB
:10118000F989808185FFF5CFCE010E946808F1CFF3
:10119000EB8DEC0FFD2FF11DE35AFF4FF0829FB74F
:1011A000F8940B8FEA89FB8980818062CFCFCF933F
:1011B000DF93EC01888D8823B9F0AA89BB89E8897F
:1011C000F9898C9185FD03C0808186FD0DC00FB625
:1011D00007FCF7CF8C9185FFF2CF808185FFEDCFA3
:1011E000CE010E946808E9CFDF91CF910895EF9278
:1011F000FF920F931F93CF93DF93EC01EC80FD8060
:101200006E157F050CF070C057FF04C0240F351F0A
:1012100050E040E08E819F81FA01E20FF31F8E17AC
:101220009F071CF49C01241B350B121613060CF0AF
:101230005BC0922F842F8695869586958E9DD001D2
:101240008F9DB00D11246A0F7B1FAF8DB8A1A60F23
:10125000B71F477049F188E0841B482F682F70E062
:10126000FB01E059FA4FE491281708F063C0621BB4
:1012700071092FEF30E002C0359527956A95E2F7A6
:10128000E2230130110539F0B0F10230110561F5AA
:101290008C91E82702C08C91E82BEC93941720F1F5
:1012A0002C813D81A20FB31FE92FE41BE83078F0B9
:1012B0000230110521F58E2F9C9190959C932C81E5
:1012C0003D81A20FB31F88508830B0F7E770EE233E
:1012D00059F0F0E0E859FA4FE49101301105F9F0C6
:1012E00010F10230110519F1DF91CF911F910F918B
:1012F000FF90EF900895E0958C91E823CECF81E0A8
:101300000115110509F480E081959E2F8C932C81A5
:101310003D81A20FB31F98509830C0F7D7CF8C9162
:10132000E82BEC93E1CFE0958C91E823FACF8C91F8
:10133000E827F7CF0130110509F4ADCFE0F2023014
:10134000110509F4A5CFAE0DBF1DAECF0F931F93AE
:10135000CF93DF9377FF04C0260F371F70E060E064
:10136000DC011496CD91DC91FB01E20FF31FCE1747
:10137000DF071CF49E01261B370B121613064CF5D3
:10138000FA0157FD3796A3E0F595E795AA95E1F7A1
:10139000EC9FD001ED9FB00DFC9FB00D11246A0FA2
:1013A0007B1FDC015F96ED91FC91E60FF71F477004
:1013B000552781E090E001C0880F4A95EAF7482F51
:1013C0000130110559F0A8F02E0F3F1F0230110512
:1013D000E1F0DF91CF911F910F9108952E0F3F1FE4
:1013E000E217F307B1F38191DF011197842B8C93FE
:1013F000F7CF80952E0F3F1FE217F30751F391911E
:10140000DF01119798239C93F7CFE217F30709F3B5
:101410008191DF01119784278C93F7CF0F931F934E
:10142000FA01DC0156964C9156974230E9F0433070
:10143000A1F1413061F514964D915C91DA01AE1B3A
:10144000BF0BFD01E21BF30B77FD0BC0DC01169611
:101450004D915C916417750724F4AB01BF010E94A4
:10146000A6091F910F91089514964D915C91DA0190
:10147000A61BB70BBD0161507109DC0116964D9199
:101480005C91DA01AE1BBF0BFD01E21BF30B77FD94
:10149000E8CFAF010E94F708E4CF16964D915C911A
:1014A000DA01A61BB70BBD0161507109CDCF0F93B7
:1014B0001F93FA01DC0156964C9156974230A9F0E1
:1014C000433091F1413019F514964D915C91DA0158
:1014D000AE1BBF0BFD013197F7FD04C0AB01BF018F
:1014E0000E94F7081F910F91089514964D915C91F9
:1014F000DA01A61BB70BBD01DC0116964D915C917C
:10150000DA01AE1BBF0BFD013197621B730BF7FDB8
:10151000E9CFDC0116964D915C91E417F50714F7BD
:10152000AF010E94A609DECF16964D915C91DA01BB
:10153000A61BB70BBD01621B730BCECFFC0177FD61
:1015400064C080859185681779070CF05EC057FDEF
:101550005CC082859385481759070CF056C0868970
:101560008230B1F0833029F1813041F4848195815A
:10157000841B950BAB01BC01615071092130310511
:1015800009F108F443C02230310509F463C008951D
:1015900084819581DC01A61BB70BBD0161507109E7
:1015A00086819781DC01A41BB50BAD014150510927
:1015B000E5CF86819781861B970BBA01AC0141501C
:1015C0005109DCCFCA0157FD0796A3E09595879591
:1015D000AA95E1F7A481B5818A9F90018B9F300D78
:1015E0009A9F300D1124620F731F078CF0A1E02D1C
:1015F000E60FF71F4770552721E030E001C0220FAA
:101600004A95EAF78081822B80830895CA0157FDAD
:10161000079633E0959587953A95E1F7A481B581D2
:101620008A9F90018B9F300D9A9F300D1124620F7D
:10163000731F078CF0A1E02DE60FF71F47705527A9
:1016400081E090E001C0880F4A95EAF7809590818B
:101650008923DACFCA0157FD079623E09595879530
:101660002A95E1F7A481B5818A9F90018B9F300D67
:101670009A9F300D1124620F731F078CF0A1E02D8B
:10168000E60FF71F4770552721E030E001C0220F19
:101690004A95EAF780818227B7CF08958EBD000072
:1016A0000DB407FEFDCF8EB508958CBD9DBD089588
:1016B0000895FC016370668B848195812681378152
:1016C000613039F0633029F0918780873387228732
:1016D0000895318720879387828708952F923F92BC
:1016E0004F925F926F927F928F929F92AF92BF9232
:1016F000CF92DF92EF92FF920F931F93CF93DF93DE
:10170000CDB7DEB76A970FB6F894DEBF0FBECDBF78
:101710009A8F898F7A8369834A01D22E18870F8323
:101720003701BC2CDC0159962D913C915A9721151B
:10173000310509F015C118968D919C91199768177C
:1017400079070CF0D7C11A968D919C9148175907CB
:101750000CF0D0C14C2C512CB6E0CB9E600D711D0D
:1017600011247C876B87161617060CF0C3C1EA2D6F
:10177000F0E0FA87E98793E0EE0FFF1F9A95E1F713
:10178000F88BEF87CF01840F951F181619060CF000
:10179000B1C1A98DBA8D58968C91811104C0BFEA50
:1017A000BD1508F4D394A98DBA8DED91FC911197D4
:1017B0000284F385E02DCD010995B5E0DB9EC001E3
:1017C0001124E981FA81FC83EB83312C212C9C01CB
:1017D00028593F4F388F2F8B4A2D50E05E8B4D8B11
:1017E000EF89F88DE20DF31D44919E828D82D12CFC
:1017F000C12C69817A81620D731D7A8B698B842F6C
:1018000090E09C8B8B8BE98DFA8DA081B18140FF9C
:1018100082C0F1E0BF126FC0AF126DC01C96ED9197
:10182000FC912F813885A4014C0D5D1D69897A8951
:10183000898D9A8D0995EB89FC89F595E7954E2F51
:101840005FEFC51AD50A6D817E818D899E89680FEB
:10185000791F7E836D8398E0C916D10481F6AFEFBE
:101860002A1A3A0AEB81FC81E40DF51DFC83EB8317
:10187000F5E02F16310409F0B3CF2F8138852615F6
:101880003705B9F0A98DBA8DED91FC91B1E0BB128D
:1018900057C0AB1255C069817A816B5F7F4F00885A
:1018A000F189E02D830128E030E0A401898D9A8D33
:1018B0000995A98DBA8DED91FC9111970688F7894C
:1018C000E02DCD016A960FB6F894DEBF0FBECDBFF6
:1018D000DF91CF911F910F91FF90EF90DF90CF900C
:1018E000BF90AF909F908F907F906F905F904F9040
:1018F0003F902F9009941E96ED91FC91EF80F88413
:1019000009851A8592014D815E816B817C81898D6B
:101910009A8D099590CF2F8138852615370509F4C2
:101920008ACF31E0B31207C0A31205C01C96ED9117
:10193000FC91930178CF1E96ED91FC917301E0CF5D
:101940006B857C85641975090684F785E02D730124
:101950000F8518899201A401898D9A8D0995A9CFC7
:10196000F90134969491329745915491D91AB7E080
:10197000DB9E400D511D1124F901259134913C8BC2
:101980002B8BFA0125903490FA013296749031969F
:101990003491398B329664903196449041E04C15E5
:1019A00018F04A1508F07FC0662D062C000C770B46
:1019B0007C836B83842D042C000C990B9E838D8378
:1019C000A98DBA8DED91FC9111970284F385E02DDC
:1019D000CD010995512CD12CC12CEA2DF0E0FA87CC
:1019E000E9872B2D30E03C872B87A401440D511D46
:1019F00047FC5A95588F4F8B69817A81660D711D0E
:101A000067FC7A957E876D877989C71608F051CF74
:101A10002C2D30E04D815E81420F531FA985BA8580
:101A20004A9FC0014B9F900D5A9F900D1124FC01BD
:101A3000E80DF91DF88BEF87852D612C4F89588DA6
:101A4000420F531F5E8B4D8B671408F050C0442427
:101A50004394480E877041F4C1010196EB89FC89DB
:101A6000E20DF31DD4901C01D7FE19C0A98DBA8DCB
:101A7000ED91FC91662D70E0B1E0BB1219C0AB1284
:101A800017C02D853E85620F731F0484F585E02DF8
:101A90002F8138854D895E89898D9A8D0995DD0C58
:101AA0006394842DD1CF1E821D821C821B8288CF1D
:101AB0004B815C81640F751FAB85BC856A9FC0013B
:101AC0006B9F900D7A9F900D112469817A81680F28
:101AD000791F0684F785E02DEF80F88409851A8543
:101AE0009D014F855889898D9A8D0995D8CF570CBE
:101AF000C3948ACF6A960FB6F894DEBF0FBECDBFEF
:101B0000DF91CF911F910F91FF90EF90DF90CF90D9
:101B1000BF90AF909F908F907F906F905F904F900D
:101B20003F902F9008958F929F92AF92CF92EF9215
:101B3000FF920F931F93CF93DF93EC01262F898D94
:101B40009A8D009709F051C06A30D1F41D861C8629
:101B50008D8948E0849F900111248E859F85820F96
:101B6000931F9F878E8781E090E0DF91CF911F9137
:101B70000F91FF90EF90CF90AF909F908F9008952E
:101B80006D3089F3CC88AD888F898823C1F08C852E
:101B90009D8536E0C39E800D911D11244885598591
:101BA0004817590764F44E855F851D861C8638E00A
:101BB000A39EC0011124840F951F9F878E87EA88FA
:101BC000FB88088919894E855F856C857D85CE01E6
:101BD0000E946E0B2C898C859D8546E0249F800D8C
:101BE000911D11249D878C87BECF6A3069F41D86B4
:101BF0001C86FC013896E4912D898E859F85E29F95
:101C0000800D911D1124ADCF6D3009F4ACCFFC01D6
:101C100034963491631708F4A6CF3296E491E61710
:101C200008F4A1CFFC01329685909490462F431B77
:101C3000342F47E0349F800C911C1124F40132961C
:101C400034913196E4913323A9F1EE2399F1CC88B4
:101C5000F4013596E491AD884F89442301F10E2EAD
:101C6000000CFF0BE30FF11DCE9EA001CF9E500D87
:101C700011246C857D85460F571F6885798564170B
:101C800075076CF44E855F851D861C86FC013896B1
:101C9000E491AE9E400D511D11245F874E87EA8866
:101CA000FB88088919894E855F856C857D85CE0105
:101CB0000E946E0BF4013496E4912C898C859D85ED
:101CC000E29F800D911D11248DCF6F927F928F9294
:101CD0009F92AF92BF92CF92DF92EF92FF920F93BB
:101CE0001F93CF93DF93EC016B015A013901480137
:101CF000E881F9810284F385E02D0995E881F98175
:101D00000288F389E02D87019301A501B601CE0178
:101D10000995A501480D591D41505109E881F981E6
:101D20000288F389E02D9301B601CE010995E8817F
:101D3000F9810088F189E02D9401A501B601CE0159
:101D40000995C60CD71CB60161507109E881F9816B
:101D50000088F189E02D9401A501CE010995E88163
:101D6000F9810688F789E02DCE01DF91CF911F918F
:101D70000F91FF90EF90DF90CF90BF90AF909F902A
:101D80008F907F906F9009946F927F928F929F9225
:101D9000AF92BF92CF92DF92EF92FF920F931F9379
:101DA000CF93DF935C01EB016A01490138018701A0
:101DB000DC01ED91FC916217730719F56416750645
:101DC0002CF0962D872D3A01C92ED82E9601261972
:101DD00037092F5F3F4F048CF58DE02DA301BE0125
:101DE000C5010995DF91CF911F910F91FF90EF9061
:101DF000DF90CF90BF90AF909F908F907F906F902B
:101E000008954615570591F42617370724F0892DB4
:101E10004B01C22FD82F9E01281939092F5F3F4F40
:101E2000068CF78DE02DA601B401DACF0284F3858C
:101E3000E02D0995D501ED91FC910488F589E02DFF
:101E400083019401A601BE01C5010995D501ED915B
:101E5000FC910688F789E02DC501DF91CF911F9194
:101E60000F91FF90EF90DF90CF90BF90AF909F9039
:101E70008F907F906F900994EF92FF920F931F9332
:101E8000DC011A960D911C911B9718962D913C918F
:101E90001997ED91FC9100A0F1A1E02D7B0150E09C
:101EA00040E070E060E009951F910F91FF90EF9086
:101EB00008954F925F926F927F928F929F92AF920E
:101EC000BF92CF92DF92EF92FF920F931F93CF9327
:101ED000DF936C012B015A0139014801DC01ED91BE
:101EE000FC910284F385E02D0995E201640C751CD8
:101EF000D601ED91FC91C615D7055CF40088F189F7
:101F0000E02D87019401A501BE01C6010995219626
:101F1000EFCF0688F789E02DC601DF91CF911F91A1
:101F20000F91FF90EF90DF90CF90BF90AF909F9078
:101F30008F907F906F905F904F9009948F929F92B7
:101F4000AF92BF92CF92DF92EF92FF920F931F93C7
:101F5000CF93DF93EC015B014A016901E881F981CC
:101F60000284F385E02D099595012C0D3D1D21502E
:101F70003109E881F9810488F589E02D780184012F
:101F8000A401B501CE010995E881F9810688F78998
:101F9000E02DCE01DF91CF911F910F91FF90EF9037
:101FA000DF90CF90BF90AF909F908F9009948F92C9
:101FB0009F92AF92BF92CF92DF92EF92FF920F93D8
:101FC0001F93CF93DF93EC015B014A016901780114
:101FD000E881F9810284F385E02D0995C80CD91CAC
:101FE000860101501109E881F9810488F589E02D05
:101FF0009501A401B501CE010995E881F981068812
:10200000F789E02DCE01DF91CF911F910F91FF90C5
:10201000EF90DF90CF90BF90AF909F908F900994FA
:10202000EF92FF920F931F93DC01ED91FC9100A0C2
:10203000F1A1E02D09951F910F91FF90EF90089568
:102040000F931F93DC01ED91FC91068CF78DE02D31
:1020500009951F910F9108950F931F93DC01ED9146
:10206000FC91048CF58DE02D09951F910F91089539
:10207000DC01ED91FC910084F185E02D09943F9203
:102080004F925F926F927F928F929F92AF92BF9288
:10209000CF92DF92EF92FF920F931F93CF93DF9334
:1020A0005C017B014A016901390187E0680E711CFE
:1020B00093E0759467949A95E1F72B01400E511EB9
:1020C00010E000E0312CD0E0C0E0CE01877099270D
:1020D000330C892B59F4FE0183E0F595E7958A9539
:1020E000E1F7E00FF11FE80DF91D349037FE0AC04B
:1020F00021E030E0A701B5016C0F7D1F85EA93E078
:102100000E9438102196CC16DD06F9F68FEFE81AFA
:10211000F80A060D171DE414F504A9F6DF91CF9116
:102120001F910F91FF90EF90DF90CF90BF90AF90F5
:102130009F908F907F906F905F904F903F90089509
:102140002F923F924F925F926F927F928F929F92C7
:10215000AF92BF92CF92DF92EF92FF920F931F93B5
:10216000CF93DF9300D000D000D0CDB7DEB73C01D5
:102170006A013E832D83FC82EB825801A41AB50AC2
:10218000B7FE03C0B194A194B1088D809E80861AD9
:10219000970A97FE03C09194819491088A149B0436
:1021A0005CF0902F812F0D811E819D838E839C2D4D
:1021B0008D2D6B01692F782F0C151D055CF09D810D
:1021C0008E817E836D83692F782F902F812F8601DA
:1021D000C92ED82E1601201A310A2B012D813E81DD
:1021E000421A530A57FE03C0519441945108710199
:1021F00037FE03C03FEFE31AF30AF594E7948D81AD
:102200009E81861797075CF5A1E0B0E0BA83A983A9
:10221000C016D1064CF1D301ED91FC910484F585F3
:10222000E02D2B813C81A8016D817E818A149B0465
:102230001CF04D815E81B801C3010995E418F508D1
:10224000F7FE0AC02D813E8189819A81280F391FAE
:102250003E832D83E20CF31C0F5F1F4FD9CF2FEF6E
:102260003FEF3A832983D4CF26960FB6F894DEBF8A
:102270000FBECDBFDF91CF911F910F91FF90EF90D7
:10228000DF90CF90BF90AF909F908F907F906F9096
:102290005F904F903F902F90089508952091940261
:1022A000260F3327331F21323105ECF42091B80279
:1022B000FC0190E080E0243069F082E00895A09174
:1022C00094022191AC014C585D4FA40FB52FB11D64
:1022D0002C930196861798F380919402680F60936F
:1022E000940280E0089581E008951092B80281E0A0
:1022F0008093BA021092B90261E082E10E94320733
:1023000061E083E10E943207E9EBF0E080818E7F9B
:10231000808380818D7F808388E48093B80085E40A
:102320008093BC000895CF93DF9391E09093730264
:102330008823B9F0C091B800D091BA008091BC0058
:102340008A7B8093BC0060E082E10E94320760E0FB
:1023500083E10E9432070E947511D093BA00C093A6
:10236000B800DF91CF910895E091E4028091E302FB
:10237000E81730F4F0E0E25BFD4F808190E00895D3
:102380008FEF9FEF08959091E4028091E3022FEF89
:102390003FEF981748F4E92FF0E0E25BFD4F208112
:1023A00030E09F5F9093E402C90108958091E302B9
:1023B0009091E402891B990B0895CF92DF92EF92DE
:1023C000FF920F931F93CF93DF937C01CB018A0180
:1023D0002091FB02222389F0EB016B01C40ED51E74
:1023E000CC15DD0569F06991D701ED91FC91019063
:1023F000F081E02DC7010995F3CF642F0E944E11A3
:10240000C801DF91CF911F910F91FF90EF90DF9066
:10241000CF900895CF93DF931F92CDB7DEB7698336
:102420002091FB022223F9F02091F802203258F08B
:1024300021E030E0FC013383228390E080E00F90C4
:10244000DF91CF9108958091F902E82FF0E0E25DED
:10245000FD4F998190838F5F8093F9028093F802FA
:1024600081E090E0ECCF61E0CE0101960E944E1138
:10247000F7CFCF92DF92EF92FF920F931F93CF93FC
:10248000DF93D091F80281E0D13208F09CC0C09176
:10249000FA020E9491076B017C018091B8028111C0
:1024A0006CC082E08093B80281E08093BA028FEF23
:1024B0008093B7021092DC02D093DB02AEE2B2E06E
:1024C000EBEBF2E080E0D8138DC01092DD0280913A
:1024D000DD02CC0FC82BC093DD028091B9028130A0
:1024E00009F084C01092B9020E9491076B017C012F
:1024F0008091DD028093BB0080916F029091700209
:10250000A0917102B0917202892B8A2B8B2BA1F0C2
:102510000E94910700916F02109170022091710248
:10252000309172026C197D098E099F0906171707F1
:102530002807390708F442C08091BC0083FDD8CF3A
:1025400085EC8093BC000E9491076B017C01809117
:10255000B802823009F44CC08091B7028F3F09F471
:1025600069C08091B702803209F466C08091B702D9
:10257000803309F463C084E026C080916F0290919B
:102580007002A0917102B0917202892B8A2B8B2B61
:1025900009F483CF0E94910700916F02109170029D
:1025A00020917102309172026C197D098E099F0988
:1025B000061717072807390708F06FCF80916E02BA
:1025C0000E94931185E01092F9021092F802109285
:1025D000FB02DF91CF911F910F91FF90EF90DF9061
:1025E000CF9008959D9191938F5F6DCF85EEA9CF88
:1025F00080916F0290917002A0917102B09172026D
:10260000892B8A2B8B2B09F4A2CF0E949107009172
:102610006F021091700220917102309172026C1958
:102620007D098E099F09061717072807390708F043
:102630008ECFC4CF80E0C7CF82E0C5CF83E0C3CFC9
:10264000EF92FF920F931F93CF93DF937C01C62FDE
:102650008091C2039091C303009709F459C020915F
:10266000C60331E03093FB022093FA021092F90284
:102670001092F802DC01ED91FC910190F081E02DC7
:1026800060E009958701EE24E394F12CD1E0C1507C
:102690008091C2039091C303CF3F91F1B0E2EB165A
:1026A000F104D8F00E9439128091C2039091C303C3
:1026B0002091C603D093FB022093FA021092F902F4
:1026C0001092F802DC01ED91FC910190F081E02D77
:1026D00060E00995EE24E394F12C8091C20390917F
:1026E000C303F8016491DC01ED91FC910190F0814C
:1026F000E02D0995BFEFEB1AFB0A0F5F1F4FC7CF05
:10270000DF91CF911F910F91FF90EF900C943912B0
:10271000E091D203F091D30390818091D80380950A
:10272000892380838701C15008F438C0F80184915F
:102730002091C0033091C103232B29F00E944E0B3E
:102740000F5F1F4FF0CF28E030E040E8E091CE036C
:10275000F091CF039091D603582F5423D9F0508194
:10276000952B9083E091D003F091D103908150910B
:10277000D703952B9083E091D003F091D103508142
:102780009091D703909595239083469521503109D8
:10279000E9F6D6CF508190959523E3CFDF91CF9185
:1027A0001F910F91FF90EF9008951F93CF93DF93A8
:1027B000EC018D8D9E8D009721F1162F29A131E01E
:1027C0003093FB022093FA021092F9021092F80261
:1027D000DC01ED91FC910190F081E02D60E0099524
:1027E0008D8D9E8DDC01ED91FC910190F081E02DAD
:1027F000612F09958D8D9E8DDF91CF911F910C9446
:102800003912ADA5BEA59C918BA9809589238C9387
:102810008B8D9C8D892B31F0862FDF91CF911F916D
:102820000C944E0B28E030E080E8A9A5BAA599A940
:10283000462F4823C1F04C91942B9C93ABA5BCA58B
:102840009C914AA9942B9C93ABA5BCA54C919AA9A9
:10285000909594239C9386952150310931F7DF910F
:10286000CF911F9108954C9190959423E6CFDF92DC
:10287000EF92FF920F931F93CF93DF938091C20348
:102880009091C303892B09F498C02091DA03309109
:10289000DB034091DC035091DD0360E074E284EFE0
:1028A00090E00E94132120513109410951095695A8
:1028B0004795379527952093B80065E084E89AE01E
:1028C0000E9420136091A903615085EA93E00E9461
:1028D000D5132091AB033091AC03C901079697FD46
:1028E000079633E0959587953A95E1F72091A903EE
:1028F0003091AA03829F8001839F100D929F100D3B
:102900001124C091C403D091C5038091C20390915A
:10291000C3030C0F1D1F009709F48FC02091C6033D
:1029200031E03093FB022093FA021092F9021092E8
:10293000F802DC01ED91FC910190F081E02D60E462
:102940000995EE24E394F12CDD24D3948091C20305
:102950009091C3030C171D0709F446C0B0E2EB16B3
:10296000F104D8F00E9439128091C2039091C30300
:102970002091C603D092FB022093FA021092F90232
:102980001092F802DC01ED91FC910190F081E02DB4
:1029900060E40995EE24E394F12C8091C2039091B8
:1029A000C3036991DC01ED91FC910190F081E02D70
:1029B0000995BFEFEB1AFB0AC9CF8091C003909134
:1029C000C103892B31F08091E3039091E4030E94CD
:1029D000550BE091D403F091D50390818091D903F8
:1029E00080958923808369CF0E9439128091C20328
:1029F0009091C303892B09F461C02091DE033091CB
:102A0000DF034091E0035091E10360E074E284EF62
:102A100090E00E9413212051310941095109569536
:102A20004795379527952093B800DF91CF911F9157
:102A30000F91FF90EF90DF900895E091D203F09115
:102A4000D30380819091D803892B80830C171D07B5
:102A500069F289912091C0033091C103232B19F0B1
:102A60000E944E0BF3CF28E030E040E8E091CE0327
:102A7000F091CF039091D603582F5423D9F0508171
:102A8000952B9083E091D003F091D10390815091E8
:102A9000D703952B9083E091D003F091D10350811F
:102AA0009091D703909595239083469521503109B5
:102AB000E9F6CCCF508190959523E3CFE091D403F4
:102AC000F091D50380819091D903892B8083ADCF7C
:102AD0001F93CF93DF93EC01162F8D8D9E8D892B45
:102AE000B1F12DA93EA94FA958AD60E074E284EF81
:102AF00090E00E9413212051310941095109569556
:102B00004795379527952093B80066EA111167EA33
:102B1000CE010E94D5138D8D9E8D892B41F129AD5B
:102B20003AAD4BAD5CAD60E074E284EF90E00E94A2
:102B3000132120513109410951095695479537957F
:102B400027952093B800DF91CF911F9108958B8D29
:102B50009C8D892B21F08EAD9FAD0E94550BEFA56A
:102B6000F8A990818CA9809589238083CECFEFA589
:102B7000F8A980819CA9892B8083E5CF90E080E033
:102B800008952091AB033091AC03C901079697FDDE
:102B9000079623E0959587952A95E1F72091A9035B
:102BA0003091AA03829FA001839F500D929F500DE8
:102BB000112470E060E08091C4039091C5030C94EF
:102BC00065220E946022FB0101900020E9F7319705
:102BD000AF01461B570BDC01ED91FC910280F381A4
:102BE000E02D09940F931F93CF93DF93EC010E9484
:102BF000E3158C016AE571E0CE010E94E315800FB8
:102C0000911FDF91CF911F910F9108950F931F9303
:102C1000CF93DF93CDB7DEB728970FB6F894DEBF1A
:102C20000FBECDBF0E94C1158E01095F1F4F9E01CF
:102C30002B5F3F4FAE014D5F5F4FBE016F5F7F4F18
:102C40008AEB91E00E9471052D813E8180E890E041
:102C5000821B930B969587959093B2038093B10353
:102C60001092B4031092B3036DE571E085EA93E02E
:102C70000E94F2158091020190910301813091052B
:102C800009F051C09093E6028093E5021092B203DE
:102C90001092B1038FE090E09093B4038093B3035C
:102CA00062E671E085EA93E00E94F2151092B203A9
:102CB0001092B1038EE190E09093B4038093B3033C
:102CC0006BE671E085EA93E00E94F2151092B20380
:102CD0001092B1030DE210E01093B4030093B3031C
:102CE00061E771E085EA93E00E94F21586E490E0E6
:102CF0009093B2038093B1031093B4030093B30392
:102D00006AE771E085EA93E00E94F2150E943714A9
:102D100028960FB6F894DEBF0FBECDBFDF91CF91DE
:102D20001F910F9108958230910509F59093E60265
:102D30008093E5021092B2031092B1038FE090E00D
:102D40009093B4038093B30364E671E085EA93E063
:102D50000E94F2151092B2031092B1038EE190E03E
:102D60009093B4038093B30369E671E0ABCF8330F3
:102D7000910589F59093E6028093E5021092B203E3
:102D80001092B1038FE090E09093B4038093B3036B
:102D900064E671E085EA93E00E94F2151092B203B6
:102DA0001092B1038EE190E09093B4038093B3034B
:102DB0006BE671E085EA93E00E94F2151092B2038F
:102DC0001092B1030DE210E01093B4030093B3032B
:102DD0006FE671E087CF8430910509F097CF90932B
:102DE000E6028093E5021092B2031092B1038FE0E5
:102DF00090E09093B4038093B30364E671E085EAB6
:102E000093E00E94F2151092B2031092B1038EE18A
:102E100090E09093B4038093B3036BE671E085EA8E
:102E200093E00E94F2151092B2031092B1030DE2EA
:102E300010E01093B4030093B30361E771E085EAF7
:102E400093E00E94F21586E490E09093B2038093A1
:102E5000B1031093B4030093B30368E771E052CF5A
:102E6000CF92DF92EF92FF920F931F93CF93DF9356
:102E7000CDB7DEB728970FB6F894DEBF0FBECDBF33
:102E80000E94C1158091000190910101813091054E
:102E900089F40E94061628960FB6F894DEBF0FBE7E
:102EA000CDBFDF91CF911F910F91FF90EF90DF90F9
:102EB000CF9008958230910509F085C00E94C11518
:102EC0008E010F5F1F4F9E012D5F3F4FAE014B5F85
:102ED0005F4FBE01695F7F4F8AEB91E00E947105F1
:102EE0002B813C8180E890E0821B930B969587951F
:102EF0009093B2038093B1031092B4031092B30382
:102F000065EA71E085EA93E00E94F2158091020182
:102F1000909103019C01215031092330310508F0C3
:102F200043C01092B2031092B1038FE090E09093EF
:102F3000B4038093B30360E871E085EA93E00E94F4
:102F4000F2151092B2031092B1038EE190E09093CB
:102F5000B4038093B3036BE871E085EA93E00E94C9
:102F6000F2151092B2031092B1030DE210E010932B
:102F7000B4030093B30362E871E085EA93E00E9432
:102F8000F21586E490E09093B2038093B10310931E
:102F9000B4030093B30362E871E085EA93E00E9412
:102FA000F2150E94371477CF0497D9F71092B20325
:102FB0001092B1038FE090E09093B4038093B30339
:102FC00062E871E0BACF8330910509F05BC00E94DE
:102FD000C1158E010F5F1F4F9E012D5F3F4FAE0148
:102FE0004B5F5F4FBE01695F7F4F8BEB91E00E94AB
:102FF00071052B813C8180E890E0821B930B9695B4
:1030000087959093B2038093B1031092B40310920A
:10301000B3036BE671E085EA93E00E94F21581E06C
:1030200090E090930301809302011092B2031092FA
:10303000B1038FE090E09093B4038093B30364E90D
:1030400071E085EA93E00E94F2151092B2031092AB
:10305000B1038EE190E09093B4038093B3036EE9E3
:1030600071E085EA93E00E94F2151092B20310928B
:10307000B1038DE290E09093B4038093B3036AEAC6
:1030800071E08BCF8430910509F06BC00E94C115AF
:103090008E010F5F1F4F9E012D5F3F4FAE014B5FB3
:1030A0005F4FBE01695F7F4F88EB91E00E94710521
:1030B0002B813C8180E890E0821B930B969587954D
:1030C0009093B2038093B1031092B4031092B303B0
:1030D00061E771E085EA93E00E94F21581E090E0FB
:1030E00090930301809302011092B2031092B103F6
:1030F0008FE090E09093B4038093B3036FEB71E0A3
:1031000085EA93E00E94F2151092B2031092B10387
:103110008EE190E09093B4038093B30366EC71E08A
:1031200085EA93E00E94F2151092B2031092B10367
:103130000DE210E01093B4030093B3036CEC71E064
:1031400085EA93E00E94F21586E490E09093B20342
:103150008093B1031093B4030093B30361EC71E067
:103160001CCF059709F097CE0E94C1158E010F5F05
:103170001F4F9E012D5F3F4FAE014B5F5F4FBE0162
:10318000695F7F4F8AEB91E00E9471052B813C8142
:1031900080E890E0821B930B969587959093B203FD
:1031A0008093B1031092B4031092B30362ED71E007
:1031B00085EA93E00E94F21580910201909103014B
:1031C0008130910509F05BC01092B2031092B103F7
:1031D0000FE010E01093B4030093B30368ED71E0C7
:1031E00085EA93E00E94F215A9E1CA2ED12CD09273
:1031F000B203C092B1031093B4030093B3036DED17
:1032000071E085EA93E00E94F215E2E3EE2EF12CE4
:10321000F092B203E092B1031093B4030093B303AE
:1032200062EE71E085EA93E00E94F2151092B2031B
:103230001092B1030EE110E01093B4030093B303B6
:1032400067EE71E085EA93E00E94F215D092B20336
:10325000C092B1031093B4030093B3036CEE71E01A
:1032600085EA93E00E94F215F092B203E092B10376
:103270001093B4030093B30361EF71E08ECE8230FC
:103280009105F1F41092B2031092B1030FE010E037
:103290001093B4030093B30366EF71E085EA93E003
:1032A0000E94F215F9E1CF2ED12CD092B203C09238
:1032B000B1031093B4030093B3036BEF71E0A1CF9C
:1032C0008330910579F51092B2031092B1030FE0AB
:1032D00010E01093B4030093B30366EF71E085EA46
:1032E00093E00E94F21569E1C62ED12CD092B20370
:1032F000C092B1031093B4030093B3036DED71E07A
:1033000085EA93E00E94F21572E3E72EF12CF09229
:10331000B203E092B1031093B4030093B30360E0EF
:1033200072E080CF8430910509F03FC01092B20363
:103330001092B1030FE010E01093B4030093B303B5
:1033400066EF71E085EA93E00E94F21549E1C42E30
:10335000D12CD092B203C092B1031093B403009366
:10336000B3036DED71E085EA93E00E94F21552E33C
:10337000E52EF12CF092B203E092B1031093B40366
:103380000093B30362EE71E085EA93E00E94F215C8
:103390001092B2031092B1030EE110E01093B40347
:1033A0000093B30365E072E04DCF8530910509F0DD
:1033B0004DC01092B2031092B1030FE010E01093D1
:1033C000B4030093B30366EF71E085EA93E00E94D3
:1033D000F21529E1C22ED12CD092B203C092B103D2
:1033E0001093B4030093B3036DED71E085EA93E0AD
:1033F0000E94F21532E3E32EF12CF092B203E09238
:10340000B1031093B4030093B30362EE71E085EA55
:1034100093E00E94F2151092B2031092B1030EE1F4
:1034200010E01093B4030093B30367EE71E085EAF4
:1034300093E00E94F215D092B203C092B1031093B0
:10344000B4030093B3036AE072E00ACF069709F071
:10345000A8CD1092B2031092B1030FE010E01093C8
:10346000B4030093B30366EF71E085EA93E00E9432
:10347000F21589E1C82ED12CD092B203C092B103CB
:103480001093B4030093B3036DED71E085EA93E00C
:103490000E94F21592E3E92EF12CF092B203E09231
:1034A000B1031093B4030093B30362EE71E085EAB5
:1034B00093E00E94F2151092B2031092B1030EE154
:1034C00010E01093B4030093B30367EE71E085EA54
:1034D00093E00E94F215D092B203C092B103109310
:1034E000B4030093B3036CEE71E085EA93E00E94AD
:1034F000F215F092B203E092B1031093B40300937B
:10350000B3036FE072E049CD85ED8093BC008091FC
:103510006F0290917002A0917102B09172020796B1
:10352000A11DB11D23E0B695A795979587952A957E
:10353000D1F72091BC0024FD03C01092B802089579
:1035400040916F025091700260917102709172020D
:10355000452B462B472B69F30097A105B10541F098
:103560002AE22A95F1F700C00197A109B109E1CF3C
:1035700080916E020C9493111F920F920FB60F92CE
:1035800011242F933F938F939F93AF93BF93809179
:10359000F0029091F102A091F202B091F302309109
:1035A000EF0223E0230F2D3758F50196A11DB11D21
:1035B0002093EF028093F0029093F102A093F20225
:1035C000B093F3028091F4029091F502A091F6027B
:1035D000B091F7020196A11DB11D8093F402909362
:1035E000F502A093F602B093F702BF91AF919F91BD
:1035F0008F913F912F910F900FBE0F901F901895B4
:1036000026E8230F0296A11DB11DD2CF1F920F9263
:103610000FB60F9211242F933F934F935F936F93A5
:103620007F938F939F93AF93BF93EF93FF938CEF11
:1036300092E00E946808FF91EF91BF91AF919F9136
:103640008F917F916F915F914F913F912F910F904B
:103650000FBE0F901F9018951F920F920FB60F92EA
:1036600011242F938F939F93EF93FF93E0910C037B
:10367000F0910D038081E0911203F091130382FD1C
:103680001BC09081809115038F5F8F73209116036B
:10369000821741F0E0911503F0E0E450FD4F958F63
:1036A00080931503FF91EF919F918F912F910F9030
:1036B0000FBE0F901F9018958081F4CF1F920F922C
:1036C0000FB60F9211242F933F934F935F936F93F5
:1036D0007F938F939F93AF93BF93EF93FF938091CB
:1036E000B900887F803609F44AC0F0F5883209F4C1
:1036F000A7C018F5803109F49BC0B8F4882309F4F9
:10370000F9C0883009F494C0FF91EF91BF91AF9157
:103710009F918F917F916F915F914F913F912F91E9
:103720000F900FBE0F901F901895883109F488C034
:10373000803251F78093B70214C0803409F49DC0E1
:1037400040F48033B9F38833F9F68093B70285ECFF
:10375000B0C0803509F485C0883509F496C0883436
:1037600099F60E94841AD0CF883909F48CC038F5B4
:10377000883729F050F4883611F0803729F683E035
:103780008093B8021092B60257C0883809F47BC003
:10379000803919F0803809F0B7CF8091B6028032B5
:1037A00008F071C0E091B60281E08E0F8093B602FE
:1037B0008091BB00F0E0EA56FD4F80833DC0803B26
:1037C00039F0E0F4803A09F479C0883A09F09CCFE6
:1037D00084E08093B8021092950210929402E091D6
:1037E000E102F091E20209958091940281110FC0EB
:1037F00081E0809394021092740209C0803C09F425
:10380000A6CF883C09F4A3CF883B09F07DCFE09197
:10381000950281E08E0F80939502F0E0EC58FD4F09
:1038200080818093BB00909195028091940229C081
:103830008091DD028093BB0085EC8093BC0064CF57
:103840009091DC028091DB02981758F5E091DC0240
:1038500081E08E0F8093DC02F0E0E554FD4F808123
:10386000E9CFE091DC0281E08E0F8093DC02809151
:10387000BB00F0E0E554FD4F80839091DC02809125
:10388000DB029817C8F285E8D8CFE091DC0281E02E
:103890008E0F8093DC028091BB00F0E0E554FD4F79
:1038A00080838091BA0281115CCF81E08093B9025C
:1038B00084EA8093BC001092B80226CF85EC8093F6
:1038C000BC001092B8028091B602803230F4E091D0
:1038D000B602F0E0EA56FD4F10826091B60270E049
:1038E000E091DF02F091E00286E992E00995109202
:1038F000B6020ACF1092B70234CFECEFF2E0138297
:10390000128248EE53E060E070E0448355836683A2
:1039100077838EE091E09183808385EC90E09587BA
:10392000848784EC90E09787868780EC90E0918B89
:10393000808B81EC90E0938B828B82EC90E0958B76
:10394000848B86EC90E0978B868B118E128E138E73
:10395000148EA9E9B3E013961C921E921297149646
:103960004D935D936D937C93179780E291E0119650
:103970009C938E93E5EAF3E01382128220E830E014
:103980003583248380E490E0978386833187208782
:1039900093878287168A158614861786168681E095
:1039A000858B848B2FEF3FEF338B228B318B208BDA
:1039B000878B108E128E118E82E391E0918380832B
:1039C000148E138EB68FA58F10A2178E8FEF84A33F
:1039D00085A386A387A380A780E89AE1A6E0B0E04C
:1039E00085AB96ABA7ABB0AF80EA96E8A1E0B0E0BC
:1039F00081AF92AFA3AFB4AF80E586AF17AE0895A5
:103A0000CF93DF93CDB7DEB728970FB6F894DEBF1C
:103A10000FBECDBF789484B5826084BD84B58160CB
:103A200084BD85B5826085BD85B5816085BD809189
:103A30006E00816080936E00109281008091810001
:103A400082608093810080918100816080938100F9
:103A5000809180008160809380008091B1008460BB
:103A60008093B1008091B00081608093B00080911C
:103A70007A00846080937A0080917A0082608093DB
:103A80007A0080917A00816080937A0080917A0038
:103A9000806880937A001092C100E0910C03F0914D
:103AA0000D0382E08083E0910803F0910903108206
:103AB000E0910A03F0910B038FEC808310921403C2
:103AC000E0911003F091110386E08083E0910E03F2
:103AD000F0910F03808180618083E0910E03F0916B
:103AE0000F03808188608083E0910E03F0910F03C3
:103AF000808180688083E0910E03F0910F038081C4
:103B00008F7D808364E172E08CEF92E00E94F21579
:103B10008091C4039091C503892B11F10E94C115B6
:103B20002091AB033091AC038091A9039091AA033B
:103B3000213231050CF049C1B9016052710977FF9A
:103B400002C06F5F7F4F759567958357910997FD09
:103B5000019600E210E023E730E04AE855E048C172
:103B60002091AB033091AC03C901079697FD0796EE
:103B7000B3E095958795BA95E1F72091A903309127
:103B8000AA03AC01429FC001439F900D529F900D2C
:103B900011240E943B219093C5038093C403892B79
:103BA00009F0BCCF0E94C115EE24E394F12CF092F1
:103BB000B803E092B703F092B603E092B50382E057
:103BC0008093B9038093BA038E010F5F1F4F9E014C
:103BD0002D5F3F4FAE014B5F5F4FBE01695F7F4F6F
:103BE00089EB91E00E9471058B819C8120E8C22EB7
:103BF000D12CC81AD90AD694C79489819A8103E333
:103C000010E0081B190B16950795D092B203C092CD
:103C1000B1031093B4030093B30362E272E085EA48
:103C200093E00E94F21555E0C50ED11CD092B2036C
:103C3000C092B103015F1F4F1093B4030093B3030D
:103C400068E272E085EA93E00E94F2150E94371460
:103C500068EE73E080E090E00E94B6070E94C11514
:103C6000F0920101E09200010E94C11581E0809371
:103C7000B9038093BA031092B2031092B103109269
:103C8000B4031092B30360E082E00E9460070E94D8
:103C9000061650E0652E50E0752E65E0E62EF12CFC
:103CA00074E0C72ED12CE3E0AE2EB12CF2E08F2EC3
:103CB000912C82E00E9409078C019093EE02809380
:103CC000ED0284E00E9409079093EC028093EB02DE
:103CD00087E00E9409079093EA028093E90283E05B
:103CE0000E9409079093E8028093E70262E370E084
:103CF00080E090E00E94B6070130110591F48091B8
:103D00000201909103018430910509F054C2209181
:103D10000001309101012130310509F057C20E94A4
:103D200030178091EB029091EC0281309105A1F463
:103D300090930301809302012091000130910101D1
:103D40002115310539F02A30310524F49093010111
:103D5000809300010E9430178091E9029091EA025D
:103D6000019771F4809102019091030181309105D6
:103D700029F0019790930301809302010E9430176C
:103D80008091E7029091E8028130910591F490933F
:103D90000301809302018091E5029091E602813057
:103DA000910509F019C290920101809200010E94D0
:103DB00030176114710409F47CCF0E9454088823E1
:103DC00009F477CF0E94000074CFB90160547109E3
:103DD00077FF02C06F5F7F4F759567958255910998
:103DE00097FD019600E410E022E530E04AE657E056
:103DF000959587950E943F1082E08093C70380913C
:103E0000C2039091C303892B09F4DFC08CE3809334
:103E1000C6031092E4021092E3021092F90210928B
:103E2000F8020E94751188EE97E09093E202809369
:103E3000E10289EE97E09093E0028093DF028091A7
:103E4000CD0387FD1EC061E00E94600761E08091A4
:103E5000CD030E94320761E070E080E090E00E94B4
:103E6000B60760E08091CD030E9432076AE070E0FF
:103E700080E090E00E94B60761E08091CD030E944F
:103E800032078091C2039091C303892B09F45CC16E
:103E90002091DA033091DB034091DC035091DD0384
:103EA00060E074E284EF90E00E9413212051310918
:103EB0004109510956954795379527952093B800A4
:103EC00064E086E895E00E9420136091AB036150A6
:103ED00085EA93E00E94D51364E082E895E00E94B1
:103EE00020138091C70364E1813009F460E185EA21
:103EF00093E00E94D51364E08EE795E00E942013C2
:103F00008FE88093E2038091A9039091AA038038FF
:103F1000910509F032C18091AB039091AC038034DC
:103F2000910509F03AC18091C703813009F423C19A
:103F30008FEC8093E20312E16AED85EA93E00E9440
:103F4000D513612F85EA93E00E94D51361E885EAD5
:103F500093E00E94D5136091E20385EA93E00E940A
:103F6000D51369ED85EA93E00E94D5138091C703CC
:103F700061EF813009F462E285EA93E00E94D51393
:103F800066E088E795E00E9420138091C20390913B
:103F9000C303892B09F405C12091DE033091DF03AF
:103FA0004091E0035091E10360E074E284EF90E01F
:103FB0000E94132120513109410951095695479515
:103FC000379527952093B800EDCD61E08091CB0324
:103FD0000E94600761E08091CC030E94600780919D
:103FE000CB03082E000C990BFC01E85BF54FE49124
:103FF000F0E0EE0FFF1FEC5CF54F2591349130930C
:10400000D3032093D203FC01E45AF54FE491E093EB
:10401000D8038091CC03082E000C990BFC01E85BBF
:10402000F54FE491F0E0EE0FFF1FEC5CF54FA5912A
:10403000B491B093D503A093D403FC01E45AF54F97
:10404000E491E093D9038C91E82BEC938091C00329
:104050009091C103892B09F434C01FB7F894809163
:10406000DE02811127C0E2E5FAE08491E6E6FAE09B
:104070009491E82FF0E0EE0FFF1FE65DF54FA5915C
:10408000B491EC91E92321F461E08AE00E943207C7
:1040900061E08AE00E9460078CB580618CBD8CB5C0
:1040A00080648CBD61E08DE00E94600761E08BE080
:1040B0000E9460078091DE028F5F8093DE021FBF47
:1040C000BECE61E08091C9030E94600761E08091EB
:1040D000CA030E9460078091C903082E000C990B47
:1040E000FC01E85BF54FE491F0E0EE0FFF1FEC5CA4
:1040F000F54F259134913093CF032093CE03FC01EB
:10410000E45AF54FE491E093D6038091CA03082E58
:10411000000C990BFC01E85BF54FE491F0E0EE0F29
:10412000FF1FEC5CF54FA591B491B093D103A09320
:10413000D003FC01E45AF54FE491E093D7038C914E
:10414000E095E823EC937BCE8091C0039091C1036E
:10415000892B31F08091E3039091E4030E94550B89
:10416000E091D403F091D50390818091D90380959B
:1041700089238083A5CE8FE9DCCE8036910569F452
:104180008091AB039091AC03409739F48091C703C1
:10419000813029F08FEA8093E20312E0CDCE80E1F6
:1041A000FACFE091D403F091D50380819091D903A7
:1041B000892B8083F7CC8630910541F42091000152
:1041C000309101012530310509F4A9CD0196909374
:1041D000030180930201A3CD8230910529F4B092AE
:1041E0000101A0920001E3CD8330910529F4D09222
:1041F0000101C0920001DBCD049709F0D8CDF09207
:104200000101E0920001D3CD82E391E09093A603F7
:104210008093A5038091C4039091C503009711F08A
:104220000C94D7210895A1E21A2EAA1BBB1BFD01F5
:104230000DC0AA1FBB1FEE1FFF1FA217B307E40785
:10424000F50720F0A21BB30BE40BF50B661F771FDD
:10425000881F991F1A9469F76095709580959095BD
:104260009B01AC01BD01CF010895EE0FFF1F05902A
:10427000F491E02D09940F931F93CF93DF93823035
:10428000910510F482E090E0E091E703F091E803FB
:1042900030E020E0B0E0A0E0309799F4211531053E
:1042A00009F44AC0281B390B24303105D8F58A811E
:1042B0009B816115710589F1FB0193838283FE0166
:1042C00011C0408151810281138148175907E0F0E4
:1042D0004817590799F4109761F012960C931297AA
:1042E00013961C933296CF01DF91CF911F910F91BE
:1042F00008950093E7031093E803F4CF21153105E7
:1043000051F04217530738F0A901DB019A01BD01B2
:10431000DF01F801C1CFEF01F9CF9093E80380935B
:10432000E703CDCFFE01E20FF31F8193919322505B
:10433000310939832883D7CF2091E5033091E603F3
:10434000232B41F420910601309107013093E603BD
:104350002093E503209104013091050121153105D9
:1043600041F42DB73EB74091080150910901241B3B
:10437000350BE091E503F091E603E217F307A0F4B3
:104380002E1B3F0B2817390778F0AC014E5F5F4FAB
:104390002417350748F04E0F5F1F5093E6034093F4
:1043A000E503819391939FCFF0E0E0E09CCFCF9322
:1043B000DF930097E9F0FC01329713821282A091FB
:1043C000E703B091E803ED0130E020E01097A1F49D
:1043D00020813181820F931F2091E5033091E60304
:1043E0002817390709F061C0F093E603E093E5036D
:1043F000DF91CF910895EA01CE17DF07E8F54A81F2
:104400005B819E0141155105B1F7E901FB83EA8308
:1044100049915991C40FD51FEC17FD0761F48081B4
:1044200091810296840F951FE90199838883828187
:1044300093819B838A83F0E0E0E012968D919C91BA
:1044400013970097B9F52D913C911197CD010296E4
:10445000820F931F2091E5033091E6032817390757
:1044600039F6309751F51092E8031092E703B093B4
:10447000E603A093E503BCCFD383C283408151817F
:10448000840F951FC817D90761F44E5F5F4F88816D
:104490009981480F591F518340838A819B8193835F
:1044A00082832115310509F0B0CFF093E803E09342
:1044B000E7039ECFFD01DC01C0CF13821282D7CF6C
:1044C00081E090E0F8940C946C22DC0101C06D93C3
:1044D00041505040E0F7089515E0C6E4D5E004C02F
:1044E000FE010E9435212196C734D107C9F7F894FF
:0244F000FFCFFC
:1044F200010001000000E9038000000000008A08BA
:10450200EA071708D708480826083A0800000000FA
:104512000A12DD11BE15DF06D611C311B411000057
:104522000000930DEA07BE154D119E0ADF063810F2
:1045320010102C102010A010DF06590B68150E0A5F
:10454200570A590F3C0FC40E650E0D0A004D656ED9
:1045520075003E2054494D45003E20424C45003EE8
:1045620020454550524F4D003E204C49474854008B
:104572003E205365742054696D650047657420546C
:10458200696D65003E20436F6E6E6563740043681B
:10459200616E67652054696D65004368616E676589
:1045A20020454550524F4D00585858585858003ED3
:1045B20020526561640057726974650045726173C7
:1045C20065004C69676874003E204C310020204C25
:1045D200320020204C330020204C340020204C3567
:1045E2000020204C360020204C31003E204C32006E
:1045F2003E204C33003E204C34003E204C35003EE1
:10460200204C360053657474696E672055702E2EE7
:0E4612002E00435949565300433258580000B9
:00000001FF
